{
  "_format": "hh-sol-artifact-1",
  "contractName": "Cofrinho",
  "sourceName": "contracts/Cofrinho.sol",
  "abi": [
    {
      "inputs": [
        {
          "internalType": "string",
          "name": "_nome",
          "type": "string"
        },
        {
          "internalType": "uint256",
          "name": "_meta",
          "type": "uint256"
        },
        {
          "internalType": "uint256",
          "name": "numeroDeDias",
          "type": "uint256"
        },
        {
          "internalType": "enum Cofrinho.ModoDeHierarquia",
          "name": "_modo",
          "type": "uint8"
        },
        {
          "internalType": "uint256",
          "name": "_numeroDeCuradores",
          "type": "uint256"
        }
      ],
      "stateMutability": "nonpayable",
      "type": "constructor"
    },
    {
      "inputs": [
        {
          "internalType": "address",
          "name": "_curador",
          "type": "address"
        }
      ],
      "name": "adicionarCurador",
      "outputs": [],
      "stateMutability": "nonpayable",
      "type": "function"
    },
    {
      "inputs": [
        {
          "internalType": "uint256",
          "name": "_novosDias",
          "type": "uint256"
        }
      ],
      "name": "alterarDataFim",
      "outputs": [],
      "stateMutability": "nonpayable",
      "type": "function"
    },
    {
      "inputs": [
        {
          "internalType": "uint256",
          "name": "_novaMeta",
          "type": "uint256"
        }
      ],
      "name": "alterarMeta",
      "outputs": [],
      "stateMutability": "nonpayable",
      "type": "function"
    },
    {
      "inputs": [
        {
          "internalType": "enum Cofrinho.ModoDeHierarquia",
          "name": "_novoModo",
          "type": "uint8"
        }
      ],
      "name": "alterarModoHierarquia",
      "outputs": [],
      "stateMutability": "nonpayable",
      "type": "function"
    },
    {
      "inputs": [
        {
          "internalType": "string",
          "name": "_novoNome",
          "type": "string"
        }
      ],
      "name": "alterarNome",
      "outputs": [],
      "stateMutability": "nonpayable",
      "type": "function"
    },
    {
      "inputs": [
        {
          "internalType": "address",
          "name": "",
          "type": "address"
        }
      ],
      "name": "curadores",
      "outputs": [
        {
          "internalType": "bool",
          "name": "",
          "type": "bool"
        }
      ],
      "stateMutability": "view",
      "type": "function"
    },
    {
      "inputs": [],
      "name": "dataFim",
      "outputs": [
        {
          "internalType": "uint256",
          "name": "",
          "type": "uint256"
        }
      ],
      "stateMutability": "view",
      "type": "function"
    },
    {
      "inputs": [
        {
          "internalType": "address",
          "name": "",
          "type": "address"
        }
      ],
      "name": "doacoes",
      "outputs": [
        {
          "internalType": "uint256",
          "name": "",
          "type": "uint256"
        }
      ],
      "stateMutability": "view",
      "type": "function"
    },
    {
      "inputs": [
        {
          "internalType": "address",
          "name": "",
          "type": "address"
        }
      ],
      "name": "jaVotou",
      "outputs": [
        {
          "internalType": "bool",
          "name": "",
          "type": "bool"
        }
      ],
      "stateMutability": "view",
      "type": "function"
    },
    {
      "inputs": [],
      "name": "meta",
      "outputs": [
        {
          "internalType": "uint256",
          "name": "",
          "type": "uint256"
        }
      ],
      "stateMutability": "view",
      "type": "function"
    },
    {
      "inputs": [],
      "name": "metaAtingida",
      "outputs": [
        {
          "internalType": "bool",
          "name": "",
          "type": "bool"
        }
      ],
      "stateMutability": "view",
      "type": "function"
    },
    {
      "inputs": [],
      "name": "modoDeHierarquia",
      "outputs": [
        {
          "internalType": "enum Cofrinho.ModoDeHierarquia",
          "name": "",
          "type": "uint8"
        }
      ],
      "stateMutability": "view",
      "type": "function"
    },
    {
      "inputs": [],
      "name": "nome",
      "outputs": [
        {
          "internalType": "string",
          "name": "",
          "type": "string"
        }
      ],
      "stateMutability": "view",
      "type": "function"
    },
    {
      "inputs": [],
      "name": "numCuradoresAdd",
      "outputs": [
        {
          "internalType": "uint256",
          "name": "",
          "type": "uint256"
        }
      ],
      "stateMutability": "view",
      "type": "function"
    },
    {
      "inputs": [],
      "name": "numeroDeCuradores",
      "outputs": [
        {
          "internalType": "uint256",
          "name": "",
          "type": "uint256"
        }
      ],
      "stateMutability": "view",
      "type": "function"
    },
    {
      "inputs": [],
      "name": "owner",
      "outputs": [
        {
          "internalType": "address",
          "name": "",
          "type": "address"
        }
      ],
      "stateMutability": "view",
      "type": "function"
    },
    {
      "inputs": [
        {
          "internalType": "uint256",
          "name": "",
          "type": "uint256"
        }
      ],
      "name": "sugestoes",
      "outputs": [
        {
          "internalType": "string",
          "name": "descricao",
          "type": "string"
        },
        {
          "internalType": "address",
          "name": "curador",
          "type": "address"
        },
        {
          "internalType": "uint256",
          "name": "votos",
          "type": "uint256"
        }
      ],
      "stateMutability": "view",
      "type": "function"
    },
    {
      "inputs": [],
      "name": "totalArrecadado",
      "outputs": [
        {
          "internalType": "uint256",
          "name": "",
          "type": "uint256"
        }
      ],
      "stateMutability": "view",
      "type": "function"
    },
    {
      "inputs": [],
      "name": "votacaoIniciada",
      "outputs": [
        {
          "internalType": "bool",
          "name": "",
          "type": "bool"
        }
      ],
      "stateMutability": "view",
      "type": "function"
    }
  ],
  "bytecode": "0x608060405260016008553480156200001657600080fd5b50604051620022563803806200225683398181016040528101906200003c9190620004c0565b84600590816200004d9190620007a8565b50336000806101000a81548173ffffffffffffffffffffffffffffffffffffffff021916908373ffffffffffffffffffffffffffffffffffffffff160217905550836001819055506201518083620000a69190620008be565b42620000b3919062000909565b60038190555081600660006101000a81548160ff02191690836002811115620000e157620000e062000944565b5b021790555060006002811115620000fd57620000fc62000944565b5b600660009054906101000a900460ff16600281111562000122576200012162000944565b5b03620001a757600160078190555060011515600960008060009054906101000a900473ffffffffffffffffffffffffffffffffffffffff1673ffffffffffffffffffffffffffffffffffffffff1673ffffffffffffffffffffffffffffffffffffffff16815260200190815260200160002060009054906101000a90505050620002bf565b60016002811115620001be57620001bd62000944565b5b600660009054906101000a900460ff166002811115620001e357620001e262000944565b5b03620002be57600081116200022f576040517f08c379a00000000000000000000000000000000000000000000000000000000081526004016200022690620009fa565b60405180910390fd5b6001816200023e919062000909565b6007819055506001600960008060009054906101000a900473ffffffffffffffffffffffffffffffffffffffff1673ffffffffffffffffffffffffffffffffffffffff1673ffffffffffffffffffffffffffffffffffffffff16815260200190815260200160002060006101000a81548160ff0219169083151502179055505b5b505050505062000a1c565b6000604051905090565b600080fd5b600080fd5b600080fd5b600080fd5b6000601f19601f8301169050919050565b7f4e487b7100000000000000000000000000000000000000000000000000000000600052604160045260246000fd5b6200033382620002e8565b810181811067ffffffffffffffff82111715620003555762000354620002f9565b5b80604052505050565b60006200036a620002ca565b905062000378828262000328565b919050565b600067ffffffffffffffff8211156200039b576200039a620002f9565b5b620003a682620002e8565b9050602081019050919050565b60005b83811015620003d3578082015181840152602081019050620003b6565b60008484015250505050565b6000620003f6620003f0846200037d565b6200035e565b905082815260208101848484011115620004155762000414620002e3565b5b62000422848285620003b3565b509392505050565b600082601f830112620004425762000441620002de565b5b815162000454848260208601620003df565b91505092915050565b6000819050919050565b62000472816200045d565b81146200047e57600080fd5b50565b600081519050620004928162000467565b92915050565b60038110620004a657600080fd5b50565b600081519050620004ba8162000498565b92915050565b600080600080600060a08688031215620004df57620004de620002d4565b5b600086015167ffffffffffffffff8111156200050057620004ff620002d9565b5b6200050e888289016200042a565b9550506020620005218882890162000481565b9450506040620005348882890162000481565b93505060606200054788828901620004a9565b92505060806200055a8882890162000481565b9150509295509295909350565b600081519050919050565b7f4e487b7100000000000000000000000000000000000000000000000000000000600052602260045260246000fd5b60006002820490506001821680620005ba57607f821691505b602082108103620005d057620005cf62000572565b5b50919050565b60008190508160005260206000209050919050565b60006020601f8301049050919050565b600082821b905092915050565b6000600883026200063a7fffffffffffffffffffffffffffffffffffffffffffffffffffffffffffffffff82620005fb565b620006468683620005fb565b95508019841693508086168417925050509392505050565b6000819050919050565b600062000689620006836200067d846200045d565b6200065e565b6200045d565b9050919050565b6000819050919050565b620006a58362000668565b620006bd620006b48262000690565b84845462000608565b825550505050565b600090565b620006d4620006c5565b620006e18184846200069a565b505050565b5b818110156200070957620006fd600082620006ca565b600181019050620006e7565b5050565b601f82111562000758576200072281620005d6565b6200072d84620005eb565b810160208510156200073d578190505b620007556200074c85620005eb565b830182620006e6565b50505b505050565b600082821c905092915050565b60006200077d600019846008026200075d565b1980831691505092915050565b60006200079883836200076a565b9150826002028217905092915050565b620007b38262000567565b67ffffffffffffffff811115620007cf57620007ce620002f9565b5b620007db8254620005a1565b620007e88282856200070d565b600060209050601f8311600181146200082057600084156200080b578287015190505b6200081785826200078a565b86555062000887565b601f1984166200083086620005d6565b60005b828110156200085a5784890151825560018201915060208501945060208101905062000833565b868310156200087a578489015162000876601f8916826200076a565b8355505b6001600288020188555050505b505050505050565b7f4e487b7100000000000000000000000000000000000000000000000000000000600052601160045260246000fd5b6000620008cb826200045d565b9150620008d8836200045d565b9250828202620008e8816200045d565b915082820484148315176200090257620009016200088f565b5b5092915050565b600062000916826200045d565b915062000923836200045d565b92508282019050808211156200093e576200093d6200088f565b5b92915050565b7f4e487b7100000000000000000000000000000000000000000000000000000000600052602160045260246000fd5b600082825260208201905092915050565b7f4e756d65726f2064652063757261646f726573206465766520736572206d616960008201527f6f7220717565207a65726f000000000000000000000000000000000000000000602082015250565b6000620009e2602b8362000973565b9150620009ef8262000984565b604082019050919050565b6000602082019050818103600083015262000a1581620009d3565b9050919050565b61182a8062000a2c6000396000f3fe608060405234801561001057600080fd5b50600436106101205760003560e01c80633260e7a2116100ad578063c885044e11610071578063c885044e1461030f578063cfe70f511461032d578063e7770ccf1461034b578063ee22ba8114610367578063f90c6d1d1461038357610120565b80633260e7a21461026757806385e656f5146102975780638da5cb5b146102b5578063b23d8829146102d3578063b983bdf5146102f157610120565b806316bb69fd116100f457806316bb69fd146101c15780632503c6d8146101df57806328f3b1fe146101fb5780632b66fedb146102175780632deb124b1461024957610120565b8062dd2325146101255780630444f11f14610143578063092f8cfb146101615780630c5db63814610191575b600080fd5b61012d61039f565b60405161013a9190610bfe565b60405180910390f35b61014b6103a5565b6040516101589190610bfe565b60405180910390f35b61017b60048036038101906101769190610c8b565b6103ab565b6040516101889190610bfe565b60405180910390f35b6101ab60048036038101906101a69190610c8b565b6103c3565b6040516101b89190610cd3565b60405180910390f35b6101c96103e3565b6040516101d69190610d65565b60405180910390f35b6101f960048036038101906101f49190610c8b565b6103f6565b005b61021560048036038101906102109190610dac565b6106ce565b005b610231600480360381019061022c9190610dac565b6107a9565b60405161024093929190610e78565b60405180910390f35b61025161088b565b60405161025e9190610eb6565b60405180910390f35b610281600480360381019061027c9190610c8b565b610919565b60405161028e9190610cd3565b60405180910390f35b61029f610939565b6040516102ac9190610cd3565b60405180910390f35b6102bd61094c565b6040516102ca9190610ed8565b60405180910390f35b6102db610970565b6040516102e89190610bfe565b60405180910390f35b6102f9610976565b6040516103069190610cd3565b60405180910390f35b610317610989565b6040516103249190610bfe565b60405180910390f35b61033561098f565b6040516103429190610bfe565b60405180910390f35b61036560048036038101906103609190610f18565b610995565b005b610381600480360381019061037c919061107a565b610a50565b005b61039d60048036038101906103989190610dac565b610af1565b005b60025481565b60075481565b600b6020528060005260406000206000915090505481565b60096020528060005260406000206000915054906101000a900460ff1681565b600660009054906101000a900460ff1681565b60008054906101000a900473ffffffffffffffffffffffffffffffffffffffff1673ffffffffffffffffffffffffffffffffffffffff163373ffffffffffffffffffffffffffffffffffffffff1614610484576040517f08c379a000000000000000000000000000000000000000000000000000000000815260040161047b90611135565b60405180910390fd5b6001600281111561049857610497610cee565b5b600660009054906101000a900460ff1660028111156104ba576104b9610cee565b5b146104fa576040517f08c379a00000000000000000000000000000000000000000000000000000000081526004016104f1906111c7565b60405180910390fd5b600960008273ffffffffffffffffffffffffffffffffffffffff1673ffffffffffffffffffffffffffffffffffffffff16815260200190815260200160002060009054906101000a900460ff1615610587576040517f08c379a000000000000000000000000000000000000000000000000000000000815260040161057e90611233565b60405180910390fd5b60008054906101000a900473ffffffffffffffffffffffffffffffffffffffff1673ffffffffffffffffffffffffffffffffffffffff168173ffffffffffffffffffffffffffffffffffffffff1603610615576040517f08c379a000000000000000000000000000000000000000000000000000000000815260040161060c9061129f565b60405180910390fd5b6007546008541061065b576040517f08c379a000000000000000000000000000000000000000000000000000000000815260040161065290611331565b60405180910390fd5b6001600960008373ffffffffffffffffffffffffffffffffffffffff1673ffffffffffffffffffffffffffffffffffffffff16815260200190815260200160002060006101000a81548160ff021916908315150217905550600860008154809291906106c690611380565b919050555050565b60008054906101000a900473ffffffffffffffffffffffffffffffffffffffff1673ffffffffffffffffffffffffffffffffffffffff163373ffffffffffffffffffffffffffffffffffffffff161461075c576040517f08c379a000000000000000000000000000000000000000000000000000000000815260040161075390611135565b60405180910390fd5b6000811161079f576040517f08c379a000000000000000000000000000000000000000000000000000000000815260040161079690611414565b60405180910390fd5b8060018190555050565b600a81815481106107b957600080fd5b90600052602060002090600402016000915090508060000180546107dc90611463565b80601f016020809104026020016040519081016040528092919081815260200182805461080890611463565b80156108555780601f1061082a57610100808354040283529160200191610855565b820191906000526020600020905b81548152906001019060200180831161083857829003601f168201915b5050505050908060010160009054906101000a900473ffffffffffffffffffffffffffffffffffffffff16908060020154905083565b6005805461089890611463565b80601f01602080910402602001604051908101604052809291908181526020018280546108c490611463565b80156109115780601f106108e657610100808354040283529160200191610911565b820191906000526020600020905b8154815290600101906020018083116108f457829003601f168201915b505050505081565b600c6020528060005260406000206000915054906101000a900460ff1681565b600460019054906101000a900460ff1681565b60008054906101000a900473ffffffffffffffffffffffffffffffffffffffff1681565b60085481565b600460009054906101000a900460ff1681565b60015481565b60035481565b60008054906101000a900473ffffffffffffffffffffffffffffffffffffffff1673ffffffffffffffffffffffffffffffffffffffff163373ffffffffffffffffffffffffffffffffffffffff1614610a23576040517f08c379a0000000000000000000000000000000000000000000000000000000008152600401610a1a90611135565b60405180910390fd5b80600660006101000a81548160ff02191690836002811115610a4857610a47610cee565b5b021790555050565b60008054906101000a900473ffffffffffffffffffffffffffffffffffffffff1673ffffffffffffffffffffffffffffffffffffffff163373ffffffffffffffffffffffffffffffffffffffff1614610ade576040517f08c379a0000000000000000000000000000000000000000000000000000000008152600401610ad590611135565b60405180910390fd5b8060059081610aed9190611640565b5050565b60008054906101000a900473ffffffffffffffffffffffffffffffffffffffff1673ffffffffffffffffffffffffffffffffffffffff163373ffffffffffffffffffffffffffffffffffffffff1614610b7f576040517f08c379a0000000000000000000000000000000000000000000000000000000008152600401610b7690611135565b60405180910390fd5b60008111610bc2576040517f08c379a0000000000000000000000000000000000000000000000000000000008152600401610bb99061175e565b60405180910390fd5b6201518081610bd1919061177e565b42610bdc91906117c0565b60038190555050565b6000819050919050565b610bf881610be5565b82525050565b6000602082019050610c136000830184610bef565b92915050565b6000604051905090565b600080fd5b600080fd5b600073ffffffffffffffffffffffffffffffffffffffff82169050919050565b6000610c5882610c2d565b9050919050565b610c6881610c4d565b8114610c7357600080fd5b50565b600081359050610c8581610c5f565b92915050565b600060208284031215610ca157610ca0610c23565b5b6000610caf84828501610c76565b91505092915050565b60008115159050919050565b610ccd81610cb8565b82525050565b6000602082019050610ce86000830184610cc4565b92915050565b7f4e487b7100000000000000000000000000000000000000000000000000000000600052602160045260246000fd5b60038110610d2e57610d2d610cee565b5b50565b6000819050610d3f82610d1d565b919050565b6000610d4f82610d31565b9050919050565b610d5f81610d44565b82525050565b6000602082019050610d7a6000830184610d56565b92915050565b610d8981610be5565b8114610d9457600080fd5b50565b600081359050610da681610d80565b92915050565b600060208284031215610dc257610dc1610c23565b5b6000610dd084828501610d97565b91505092915050565b600081519050919050565b600082825260208201905092915050565b60005b83811015610e13578082015181840152602081019050610df8565b60008484015250505050565b6000601f19601f8301169050919050565b6000610e3b82610dd9565b610e458185610de4565b9350610e55818560208601610df5565b610e5e81610e1f565b840191505092915050565b610e7281610c4d565b82525050565b60006060820190508181036000830152610e928186610e30565b9050610ea16020830185610e69565b610eae6040830184610bef565b949350505050565b60006020820190508181036000830152610ed08184610e30565b905092915050565b6000602082019050610eed6000830184610e69565b92915050565b60038110610f0057600080fd5b50565b600081359050610f1281610ef3565b92915050565b600060208284031215610f2e57610f2d610c23565b5b6000610f3c84828501610f03565b91505092915050565b600080fd5b600080fd5b7f4e487b7100000000000000000000000000000000000000000000000000000000600052604160045260246000fd5b610f8782610e1f565b810181811067ffffffffffffffff82111715610fa657610fa5610f4f565b5b80604052505050565b6000610fb9610c19565b9050610fc58282610f7e565b919050565b600067ffffffffffffffff821115610fe557610fe4610f4f565b5b610fee82610e1f565b9050602081019050919050565b82818337600083830152505050565b600061101d61101884610fca565b610faf565b90508281526020810184848401111561103957611038610f4a565b5b611044848285610ffb565b509392505050565b600082601f83011261106157611060610f45565b5b813561107184826020860161100a565b91505092915050565b6000602082840312156110905761108f610c23565b5b600082013567ffffffffffffffff8111156110ae576110ad610c28565b5b6110ba8482850161104c565b91505092915050565b7f4170656e6173206f20646f6e6f20706f6465206578656375746172206573746160008201527f2066756e63616f00000000000000000000000000000000000000000000000000602082015250565b600061111f602783610de4565b915061112a826110c3565b604082019050919050565b6000602082019050818103600083015261114e81611112565b9050919050565b7f45737465206d6f646f206e616f207065726d697465206d756c7469706c6f732060008201527f63757261646f7265730000000000000000000000000000000000000000000000602082015250565b60006111b1602983610de4565b91506111bc82611155565b604082019050919050565b600060208201905081810360008301526111e0816111a4565b9050919050565b7f4573746520656e64657265636f206a61206520756d2063757261646f72000000600082015250565b600061121d601d83610de4565b9150611228826111e7565b602082019050919050565b6000602082019050818103600083015261124c81611210565b9050919050565b7f4f20646f6e6f206a61206520756d2063757261646f7200000000000000000000600082015250565b6000611289601683610de4565b915061129482611253565b602082019050919050565b600060208201905081810360008301526112b88161127c565b9050919050565b7f4e756d65726f206d6178696d6f2064652063757261646f726573206174696e6760008201527f69646f0000000000000000000000000000000000000000000000000000000000602082015250565b600061131b602383610de4565b9150611326826112bf565b604082019050919050565b6000602082019050818103600083015261134a8161130e565b9050919050565b7f4e487b7100000000000000000000000000000000000000000000000000000000600052601160045260246000fd5b600061138b82610be5565b91507fffffffffffffffffffffffffffffffffffffffffffffffffffffffffffffffff82036113bd576113bc611351565b5b600182019050919050565b7f4d657461206465766520736572206d61696f7220717565207a65726f00000000600082015250565b60006113fe601c83610de4565b9150611409826113c8565b602082019050919050565b6000602082019050818103600083015261142d816113f1565b9050919050565b7f4e487b7100000000000000000000000000000000000000000000000000000000600052602260045260246000fd5b6000600282049050600182168061147b57607f821691505b60208210810361148e5761148d611434565b5b50919050565b60008190508160005260206000209050919050565b60006020601f8301049050919050565b600082821b905092915050565b6000600883026114f67fffffffffffffffffffffffffffffffffffffffffffffffffffffffffffffffff826114b9565b61150086836114b9565b95508019841693508086168417925050509392505050565b6000819050919050565b600061153d61153861153384610be5565b611518565b610be5565b9050919050565b6000819050919050565b61155783611522565b61156b61156382611544565b8484546114c6565b825550505050565b600090565b611580611573565b61158b81848461154e565b505050565b5b818110156115af576115a4600082611578565b600181019050611591565b5050565b601f8211156115f4576115c581611494565b6115ce846114a9565b810160208510156115dd578190505b6115f16115e9856114a9565b830182611590565b50505b505050565b600082821c905092915050565b6000611617600019846008026115f9565b1980831691505092915050565b60006116308383611606565b9150826002028217905092915050565b61164982610dd9565b67ffffffffffffffff81111561166257611661610f4f565b5b61166c8254611463565b6116778282856115b3565b600060209050601f8311600181146116aa5760008415611698578287015190505b6116a28582611624565b86555061170a565b601f1984166116b886611494565b60005b828110156116e0578489015182556001820191506020850194506020810190506116bb565b868310156116fd57848901516116f9601f891682611606565b8355505b6001600288020188555050505b505050505050565b7f44696173206465766520736572206d61696f7220717565207a65726f00000000600082015250565b6000611748601c83610de4565b915061175382611712565b602082019050919050565b600060208201905081810360008301526117778161173b565b9050919050565b600061178982610be5565b915061179483610be5565b92508282026117a281610be5565b915082820484148315176117b9576117b8611351565b5b5092915050565b60006117cb82610be5565b91506117d683610be5565b92508282019050808211156117ee576117ed611351565b5b9291505056fea264697066735822122093059a213a3bac057587bc19cdc98247b91ed57ea5a2260e60d53c1e46fbdc6864736f6c63430008130033",
  "linkReferences": {},
  "deployedLinkReferences": {}
}