{
  "_format": "hh-sol-artifact-1",
  "contractName": "Cofrinho",
  "sourceName": "contracts/Cofrinho.sol",
  "abi": [
    {
      "inputs": [
        {
          "internalType": "string",
          "name": "_nome",
          "type": "string"
        },
        {
          "internalType": "uint256",
          "name": "_meta",
          "type": "uint256"
        },
        {
          "internalType": "uint256",
          "name": "numeroDeDias",
          "type": "uint256"
        },
        {
          "internalType": "enum Cofrinho.ModoDeHierarquia",
          "name": "_modo",
          "type": "uint8"
        },
        {
          "internalType": "uint256",
          "name": "_numeroDeCuradores",
          "type": "uint256"
        }
      ],
      "stateMutability": "nonpayable",
      "type": "constructor"
    },
    {
      "inputs": [
        {
          "internalType": "address",
          "name": "_curador",
          "type": "address"
        }
      ],
      "name": "adicionarCurador",
      "outputs": [],
      "stateMutability": "nonpayable",
      "type": "function"
    },
    {
      "inputs": [
        {
          "internalType": "uint256",
          "name": "_novosDias",
          "type": "uint256"
        }
      ],
      "name": "alterarDataFim",
      "outputs": [],
      "stateMutability": "nonpayable",
      "type": "function"
    },
    {
      "inputs": [
        {
          "internalType": "uint256",
          "name": "_novaMeta",
          "type": "uint256"
        }
      ],
      "name": "alterarMeta",
      "outputs": [],
      "stateMutability": "nonpayable",
      "type": "function"
    },
    {
      "inputs": [
        {
          "internalType": "enum Cofrinho.ModoDeHierarquia",
          "name": "_novoModo",
          "type": "uint8"
        }
      ],
      "name": "alterarModoHierarquia",
      "outputs": [],
      "stateMutability": "nonpayable",
      "type": "function"
    },
    {
      "inputs": [
        {
          "internalType": "string",
          "name": "_novoNome",
          "type": "string"
        }
      ],
      "name": "alterarNome",
      "outputs": [],
      "stateMutability": "nonpayable",
      "type": "function"
    },
    {
      "inputs": [
        {
          "internalType": "address",
          "name": "",
          "type": "address"
        }
      ],
      "name": "curadores",
      "outputs": [
        {
          "internalType": "bool",
          "name": "",
          "type": "bool"
        }
      ],
      "stateMutability": "view",
      "type": "function"
    },
    {
      "inputs": [],
      "name": "dataFim",
      "outputs": [
        {
          "internalType": "uint256",
          "name": "",
          "type": "uint256"
        }
      ],
      "stateMutability": "view",
      "type": "function"
    },
    {
      "inputs": [
        {
          "internalType": "address",
          "name": "",
          "type": "address"
        }
      ],
      "name": "doacoes",
      "outputs": [
        {
          "internalType": "uint256",
          "name": "",
          "type": "uint256"
        }
      ],
      "stateMutability": "view",
      "type": "function"
    },
    {
      "inputs": [
        {
          "internalType": "address",
          "name": "",
          "type": "address"
        }
      ],
      "name": "jaVotou",
      "outputs": [
        {
          "internalType": "bool",
          "name": "",
          "type": "bool"
        }
      ],
      "stateMutability": "view",
      "type": "function"
    },
    {
      "inputs": [],
      "name": "meta",
      "outputs": [
        {
          "internalType": "uint256",
          "name": "",
          "type": "uint256"
        }
      ],
      "stateMutability": "view",
      "type": "function"
    },
    {
      "inputs": [],
      "name": "metaAtingida",
      "outputs": [
        {
          "internalType": "bool",
          "name": "",
          "type": "bool"
        }
      ],
      "stateMutability": "view",
      "type": "function"
    },
    {
      "inputs": [],
      "name": "modoDeHierarquia",
      "outputs": [
        {
          "internalType": "enum Cofrinho.ModoDeHierarquia",
          "name": "",
          "type": "uint8"
        }
      ],
      "stateMutability": "view",
      "type": "function"
    },
    {
      "inputs": [],
      "name": "nome",
      "outputs": [
        {
          "internalType": "string",
          "name": "",
          "type": "string"
        }
      ],
      "stateMutability": "view",
      "type": "function"
    },
    {
      "inputs": [],
      "name": "numCuradoresAdd",
      "outputs": [
        {
          "internalType": "uint256",
          "name": "",
          "type": "uint256"
        }
      ],
      "stateMutability": "view",
      "type": "function"
    },
    {
      "inputs": [],
      "name": "numeroDeCuradores",
      "outputs": [
        {
          "internalType": "uint256",
          "name": "",
          "type": "uint256"
        }
      ],
      "stateMutability": "view",
      "type": "function"
    },
    {
      "inputs": [],
      "name": "owner",
      "outputs": [
        {
          "internalType": "address",
          "name": "",
          "type": "address"
        }
      ],
      "stateMutability": "view",
      "type": "function"
    },
    {
      "inputs": [
        {
          "internalType": "uint256",
          "name": "",
          "type": "uint256"
        }
      ],
      "name": "sugestoes",
      "outputs": [
        {
          "internalType": "string",
          "name": "descricao",
          "type": "string"
        },
        {
          "internalType": "address",
          "name": "curador",
          "type": "address"
        },
        {
          "internalType": "uint256",
          "name": "votos",
          "type": "uint256"
        }
      ],
      "stateMutability": "view",
      "type": "function"
    },
    {
      "inputs": [],
      "name": "totalArrecadado",
      "outputs": [
        {
          "internalType": "uint256",
          "name": "",
          "type": "uint256"
        }
      ],
      "stateMutability": "view",
      "type": "function"
    },
    {
      "inputs": [],
      "name": "votacaoIniciada",
      "outputs": [
        {
          "internalType": "bool",
          "name": "",
          "type": "bool"
        }
      ],
      "stateMutability": "view",
      "type": "function"
    }
  ],
  "bytecode": "0x608060405260016008553480156200001657600080fd5b50604051620023c6380380620023c683398181016040528101906200003c91906200054c565b6000841162000082576040517f08c379a0000000000000000000000000000000000000000000000000000000008152600401620000799062000654565b60405180910390fd5b60008311620000c8576040517f08c379a0000000000000000000000000000000000000000000000000000000008152600401620000bf90620006c6565b60405180910390fd5b8460059081620000d9919062000929565b50336000806101000a81548173ffffffffffffffffffffffffffffffffffffffff021916908373ffffffffffffffffffffffffffffffffffffffff16021790555083600181905550620151808362000132919062000a3f565b426200013f919062000a8a565b60038190555081600660006101000a81548160ff021916908360028111156200016d576200016c62000ac5565b5b02179055506000600281111562000189576200018862000ac5565b5b600660009054906101000a900460ff166002811115620001ae57620001ad62000ac5565b5b036200023357600160078190555060011515600960008060009054906101000a900473ffffffffffffffffffffffffffffffffffffffff1673ffffffffffffffffffffffffffffffffffffffff1673ffffffffffffffffffffffffffffffffffffffff16815260200190815260200160002060009054906101000a905050506200034b565b600160028111156200024a576200024962000ac5565b5b600660009054906101000a900460ff1660028111156200026f576200026e62000ac5565b5b036200034a5760008111620002bb576040517f08c379a0000000000000000000000000000000000000000000000000000000008152600401620002b29062000b6a565b60405180910390fd5b600181620002ca919062000a8a565b6007819055506001600960008060009054906101000a900473ffffffffffffffffffffffffffffffffffffffff1673ffffffffffffffffffffffffffffffffffffffff1673ffffffffffffffffffffffffffffffffffffffff16815260200190815260200160002060006101000a81548160ff0219169083151502179055505b5b505050505062000b8c565b6000604051905090565b600080fd5b600080fd5b600080fd5b600080fd5b6000601f19601f8301169050919050565b7f4e487b7100000000000000000000000000000000000000000000000000000000600052604160045260246000fd5b620003bf8262000374565b810181811067ffffffffffffffff82111715620003e157620003e062000385565b5b80604052505050565b6000620003f662000356565b9050620004048282620003b4565b919050565b600067ffffffffffffffff82111562000427576200042662000385565b5b620004328262000374565b9050602081019050919050565b60005b838110156200045f57808201518184015260208101905062000442565b60008484015250505050565b6000620004826200047c8462000409565b620003ea565b905082815260208101848484011115620004a157620004a06200036f565b5b620004ae8482856200043f565b509392505050565b600082601f830112620004ce57620004cd6200036a565b5b8151620004e08482602086016200046b565b91505092915050565b6000819050919050565b620004fe81620004e9565b81146200050a57600080fd5b50565b6000815190506200051e81620004f3565b92915050565b600381106200053257600080fd5b50565b600081519050620005468162000524565b92915050565b600080600080600060a086880312156200056b576200056a62000360565b5b600086015167ffffffffffffffff8111156200058c576200058b62000365565b5b6200059a88828901620004b6565b9550506020620005ad888289016200050d565b9450506040620005c0888289016200050d565b9350506060620005d38882890162000535565b9250506080620005e6888289016200050d565b9150509295509295909350565b600082825260208201905092915050565b7f4d657461206465766520736572206d61696f7220717565207a65726f00000000600082015250565b60006200063c601c83620005f3565b9150620006498262000604565b602082019050919050565b600060208201905081810360008301526200066f816200062d565b9050919050565b7f5072617a6f206465766520736572206d61696f7220717565207a65726f000000600082015250565b6000620006ae601d83620005f3565b9150620006bb8262000676565b602082019050919050565b60006020820190508181036000830152620006e1816200069f565b9050919050565b600081519050919050565b7f4e487b7100000000000000000000000000000000000000000000000000000000600052602260045260246000fd5b600060028204905060018216806200073b57607f821691505b602082108103620007515762000750620006f3565b5b50919050565b60008190508160005260206000209050919050565b60006020601f8301049050919050565b600082821b905092915050565b600060088302620007bb7fffffffffffffffffffffffffffffffffffffffffffffffffffffffffffffffff826200077c565b620007c786836200077c565b95508019841693508086168417925050509392505050565b6000819050919050565b60006200080a62000804620007fe84620004e9565b620007df565b620004e9565b9050919050565b6000819050919050565b6200082683620007e9565b6200083e620008358262000811565b84845462000789565b825550505050565b600090565b6200085562000846565b620008628184846200081b565b505050565b5b818110156200088a576200087e6000826200084b565b60018101905062000868565b5050565b601f821115620008d957620008a38162000757565b620008ae846200076c565b81016020851015620008be578190505b620008d6620008cd856200076c565b83018262000867565b50505b505050565b600082821c905092915050565b6000620008fe60001984600802620008de565b1980831691505092915050565b6000620009198383620008eb565b9150826002028217905092915050565b6200093482620006e8565b67ffffffffffffffff81111562000950576200094f62000385565b5b6200095c825462000722565b620009698282856200088e565b600060209050601f831160018114620009a157600084156200098c578287015190505b6200099885826200090b565b86555062000a08565b601f198416620009b18662000757565b60005b82811015620009db57848901518255600182019150602085019450602081019050620009b4565b86831015620009fb5784890151620009f7601f891682620008eb565b8355505b6001600288020188555050505b505050505050565b7f4e487b7100000000000000000000000000000000000000000000000000000000600052601160045260246000fd5b600062000a4c82620004e9565b915062000a5983620004e9565b925082820262000a6981620004e9565b9150828204841483151762000a835762000a8262000a10565b5b5092915050565b600062000a9782620004e9565b915062000aa483620004e9565b925082820190508082111562000abf5762000abe62000a10565b5b92915050565b7f4e487b7100000000000000000000000000000000000000000000000000000000600052602160045260246000fd5b7f4e756d65726f2064652063757261646f726573206465766520736572206d616960008201527f6f7220717565207a65726f000000000000000000000000000000000000000000602082015250565b600062000b52602b83620005f3565b915062000b5f8262000af4565b604082019050919050565b6000602082019050818103600083015262000b858162000b43565b9050919050565b61182a8062000b9c6000396000f3fe608060405234801561001057600080fd5b50600436106101205760003560e01c80633260e7a2116100ad578063c885044e11610071578063c885044e1461030f578063cfe70f511461032d578063e7770ccf1461034b578063ee22ba8114610367578063f90c6d1d1461038357610120565b80633260e7a21461026757806385e656f5146102975780638da5cb5b146102b5578063b23d8829146102d3578063b983bdf5146102f157610120565b806316bb69fd116100f457806316bb69fd146101c15780632503c6d8146101df57806328f3b1fe146101fb5780632b66fedb146102175780632deb124b1461024957610120565b8062dd2325146101255780630444f11f14610143578063092f8cfb146101615780630c5db63814610191575b600080fd5b61012d61039f565b60405161013a9190610bfe565b60405180910390f35b61014b6103a5565b6040516101589190610bfe565b60405180910390f35b61017b60048036038101906101769190610c8b565b6103ab565b6040516101889190610bfe565b60405180910390f35b6101ab60048036038101906101a69190610c8b565b6103c3565b6040516101b89190610cd3565b60405180910390f35b6101c96103e3565b6040516101d69190610d65565b60405180910390f35b6101f960048036038101906101f49190610c8b565b6103f6565b005b61021560048036038101906102109190610dac565b6106ce565b005b610231600480360381019061022c9190610dac565b6107a9565b60405161024093929190610e78565b60405180910390f35b61025161088b565b60405161025e9190610eb6565b60405180910390f35b610281600480360381019061027c9190610c8b565b610919565b60405161028e9190610cd3565b60405180910390f35b61029f610939565b6040516102ac9190610cd3565b60405180910390f35b6102bd61094c565b6040516102ca9190610ed8565b60405180910390f35b6102db610970565b6040516102e89190610bfe565b60405180910390f35b6102f9610976565b6040516103069190610cd3565b60405180910390f35b610317610989565b6040516103249190610bfe565b60405180910390f35b61033561098f565b6040516103429190610bfe565b60405180910390f35b61036560048036038101906103609190610f18565b610995565b005b610381600480360381019061037c919061107a565b610a50565b005b61039d60048036038101906103989190610dac565b610af1565b005b60025481565b60075481565b600b6020528060005260406000206000915090505481565b60096020528060005260406000206000915054906101000a900460ff1681565b600660009054906101000a900460ff1681565b60008054906101000a900473ffffffffffffffffffffffffffffffffffffffff1673ffffffffffffffffffffffffffffffffffffffff163373ffffffffffffffffffffffffffffffffffffffff1614610484576040517f08c379a000000000000000000000000000000000000000000000000000000000815260040161047b90611135565b60405180910390fd5b6001600281111561049857610497610cee565b5b600660009054906101000a900460ff1660028111156104ba576104b9610cee565b5b146104fa576040517f08c379a00000000000000000000000000000000000000000000000000000000081526004016104f1906111c7565b60405180910390fd5b600960008273ffffffffffffffffffffffffffffffffffffffff1673ffffffffffffffffffffffffffffffffffffffff16815260200190815260200160002060009054906101000a900460ff1615610587576040517f08c379a000000000000000000000000000000000000000000000000000000000815260040161057e90611233565b60405180910390fd5b60008054906101000a900473ffffffffffffffffffffffffffffffffffffffff1673ffffffffffffffffffffffffffffffffffffffff168173ffffffffffffffffffffffffffffffffffffffff1603610615576040517f08c379a000000000000000000000000000000000000000000000000000000000815260040161060c9061129f565b60405180910390fd5b6007546008541061065b576040517f08c379a000000000000000000000000000000000000000000000000000000000815260040161065290611331565b60405180910390fd5b6001600960008373ffffffffffffffffffffffffffffffffffffffff1673ffffffffffffffffffffffffffffffffffffffff16815260200190815260200160002060006101000a81548160ff021916908315150217905550600860008154809291906106c690611380565b919050555050565b60008054906101000a900473ffffffffffffffffffffffffffffffffffffffff1673ffffffffffffffffffffffffffffffffffffffff163373ffffffffffffffffffffffffffffffffffffffff161461075c576040517f08c379a000000000000000000000000000000000000000000000000000000000815260040161075390611135565b60405180910390fd5b6000811161079f576040517f08c379a000000000000000000000000000000000000000000000000000000000815260040161079690611414565b60405180910390fd5b8060018190555050565b600a81815481106107b957600080fd5b90600052602060002090600402016000915090508060000180546107dc90611463565b80601f016020809104026020016040519081016040528092919081815260200182805461080890611463565b80156108555780601f1061082a57610100808354040283529160200191610855565b820191906000526020600020905b81548152906001019060200180831161083857829003601f168201915b5050505050908060010160009054906101000a900473ffffffffffffffffffffffffffffffffffffffff16908060020154905083565b6005805461089890611463565b80601f01602080910402602001604051908101604052809291908181526020018280546108c490611463565b80156109115780601f106108e657610100808354040283529160200191610911565b820191906000526020600020905b8154815290600101906020018083116108f457829003601f168201915b505050505081565b600c6020528060005260406000206000915054906101000a900460ff1681565b600460019054906101000a900460ff1681565b60008054906101000a900473ffffffffffffffffffffffffffffffffffffffff1681565b60085481565b600460009054906101000a900460ff1681565b60015481565b60035481565b60008054906101000a900473ffffffffffffffffffffffffffffffffffffffff1673ffffffffffffffffffffffffffffffffffffffff163373ffffffffffffffffffffffffffffffffffffffff1614610a23576040517f08c379a0000000000000000000000000000000000000000000000000000000008152600401610a1a90611135565b60405180910390fd5b80600660006101000a81548160ff02191690836002811115610a4857610a47610cee565b5b021790555050565b60008054906101000a900473ffffffffffffffffffffffffffffffffffffffff1673ffffffffffffffffffffffffffffffffffffffff163373ffffffffffffffffffffffffffffffffffffffff1614610ade576040517f08c379a0000000000000000000000000000000000000000000000000000000008152600401610ad590611135565b60405180910390fd5b8060059081610aed9190611640565b5050565b60008054906101000a900473ffffffffffffffffffffffffffffffffffffffff1673ffffffffffffffffffffffffffffffffffffffff163373ffffffffffffffffffffffffffffffffffffffff1614610b7f576040517f08c379a0000000000000000000000000000000000000000000000000000000008152600401610b7690611135565b60405180910390fd5b60008111610bc2576040517f08c379a0000000000000000000000000000000000000000000000000000000008152600401610bb99061175e565b60405180910390fd5b6201518081610bd1919061177e565b42610bdc91906117c0565b60038190555050565b6000819050919050565b610bf881610be5565b82525050565b6000602082019050610c136000830184610bef565b92915050565b6000604051905090565b600080fd5b600080fd5b600073ffffffffffffffffffffffffffffffffffffffff82169050919050565b6000610c5882610c2d565b9050919050565b610c6881610c4d565b8114610c7357600080fd5b50565b600081359050610c8581610c5f565b92915050565b600060208284031215610ca157610ca0610c23565b5b6000610caf84828501610c76565b91505092915050565b60008115159050919050565b610ccd81610cb8565b82525050565b6000602082019050610ce86000830184610cc4565b92915050565b7f4e487b7100000000000000000000000000000000000000000000000000000000600052602160045260246000fd5b60038110610d2e57610d2d610cee565b5b50565b6000819050610d3f82610d1d565b919050565b6000610d4f82610d31565b9050919050565b610d5f81610d44565b82525050565b6000602082019050610d7a6000830184610d56565b92915050565b610d8981610be5565b8114610d9457600080fd5b50565b600081359050610da681610d80565b92915050565b600060208284031215610dc257610dc1610c23565b5b6000610dd084828501610d97565b91505092915050565b600081519050919050565b600082825260208201905092915050565b60005b83811015610e13578082015181840152602081019050610df8565b60008484015250505050565b6000601f19601f8301169050919050565b6000610e3b82610dd9565b610e458185610de4565b9350610e55818560208601610df5565b610e5e81610e1f565b840191505092915050565b610e7281610c4d565b82525050565b60006060820190508181036000830152610e928186610e30565b9050610ea16020830185610e69565b610eae6040830184610bef565b949350505050565b60006020820190508181036000830152610ed08184610e30565b905092915050565b6000602082019050610eed6000830184610e69565b92915050565b60038110610f0057600080fd5b50565b600081359050610f1281610ef3565b92915050565b600060208284031215610f2e57610f2d610c23565b5b6000610f3c84828501610f03565b91505092915050565b600080fd5b600080fd5b7f4e487b7100000000000000000000000000000000000000000000000000000000600052604160045260246000fd5b610f8782610e1f565b810181811067ffffffffffffffff82111715610fa657610fa5610f4f565b5b80604052505050565b6000610fb9610c19565b9050610fc58282610f7e565b919050565b600067ffffffffffffffff821115610fe557610fe4610f4f565b5b610fee82610e1f565b9050602081019050919050565b82818337600083830152505050565b600061101d61101884610fca565b610faf565b90508281526020810184848401111561103957611038610f4a565b5b611044848285610ffb565b509392505050565b600082601f83011261106157611060610f45565b5b813561107184826020860161100a565b91505092915050565b6000602082840312156110905761108f610c23565b5b600082013567ffffffffffffffff8111156110ae576110ad610c28565b5b6110ba8482850161104c565b91505092915050565b7f4170656e6173206f20646f6e6f20706f6465206578656375746172206573746160008201527f2066756e63616f00000000000000000000000000000000000000000000000000602082015250565b600061111f602783610de4565b915061112a826110c3565b604082019050919050565b6000602082019050818103600083015261114e81611112565b9050919050565b7f45737465206d6f646f206e616f207065726d697465206d756c7469706c6f732060008201527f63757261646f7265730000000000000000000000000000000000000000000000602082015250565b60006111b1602983610de4565b91506111bc82611155565b604082019050919050565b600060208201905081810360008301526111e0816111a4565b9050919050565b7f4573746520656e64657265636f206a61206520756d2063757261646f72000000600082015250565b600061121d601d83610de4565b9150611228826111e7565b602082019050919050565b6000602082019050818103600083015261124c81611210565b9050919050565b7f4f20646f6e6f206a61206520756d2063757261646f7200000000000000000000600082015250565b6000611289601683610de4565b915061129482611253565b602082019050919050565b600060208201905081810360008301526112b88161127c565b9050919050565b7f4e756d65726f206d6178696d6f2064652063757261646f726573206174696e6760008201527f69646f0000000000000000000000000000000000000000000000000000000000602082015250565b600061131b602383610de4565b9150611326826112bf565b604082019050919050565b6000602082019050818103600083015261134a8161130e565b9050919050565b7f4e487b7100000000000000000000000000000000000000000000000000000000600052601160045260246000fd5b600061138b82610be5565b91507fffffffffffffffffffffffffffffffffffffffffffffffffffffffffffffffff82036113bd576113bc611351565b5b600182019050919050565b7f4d657461206465766520736572206d61696f7220717565207a65726f00000000600082015250565b60006113fe601c83610de4565b9150611409826113c8565b602082019050919050565b6000602082019050818103600083015261142d816113f1565b9050919050565b7f4e487b7100000000000000000000000000000000000000000000000000000000600052602260045260246000fd5b6000600282049050600182168061147b57607f821691505b60208210810361148e5761148d611434565b5b50919050565b60008190508160005260206000209050919050565b60006020601f8301049050919050565b600082821b905092915050565b6000600883026114f67fffffffffffffffffffffffffffffffffffffffffffffffffffffffffffffffff826114b9565b61150086836114b9565b95508019841693508086168417925050509392505050565b6000819050919050565b600061153d61153861153384610be5565b611518565b610be5565b9050919050565b6000819050919050565b61155783611522565b61156b61156382611544565b8484546114c6565b825550505050565b600090565b611580611573565b61158b81848461154e565b505050565b5b818110156115af576115a4600082611578565b600181019050611591565b5050565b601f8211156115f4576115c581611494565b6115ce846114a9565b810160208510156115dd578190505b6115f16115e9856114a9565b830182611590565b50505b505050565b600082821c905092915050565b6000611617600019846008026115f9565b1980831691505092915050565b60006116308383611606565b9150826002028217905092915050565b61164982610dd9565b67ffffffffffffffff81111561166257611661610f4f565b5b61166c8254611463565b6116778282856115b3565b600060209050601f8311600181146116aa5760008415611698578287015190505b6116a28582611624565b86555061170a565b601f1984166116b886611494565b60005b828110156116e0578489015182556001820191506020850194506020810190506116bb565b868310156116fd57848901516116f9601f891682611606565b8355505b6001600288020188555050505b505050505050565b7f44696173206465766520736572206d61696f7220717565207a65726f00000000600082015250565b6000611748601c83610de4565b915061175382611712565b602082019050919050565b600060208201905081810360008301526117778161173b565b9050919050565b600061178982610be5565b915061179483610be5565b92508282026117a281610be5565b915082820484148315176117b9576117b8611351565b5b5092915050565b60006117cb82610be5565b91506117d683610be5565b92508282019050808211156117ee576117ed611351565b5b9291505056fea26469706673582212206edbc03d1724088daae76feaa7492f5363f4560d209125731eecfb0eef974c2664736f6c63430008130033",
  "linkReferences": {},
  "deployedLinkReferences": {}
}