{
  "_format": "hh-sol-artifact-1",
  "contractName": "Cofrinho",
  "sourceName": "contracts/Cofrinho.sol",
  "abi": [
    {
      "inputs": [
        {
          "internalType": "string",
          "name": "_nome",
          "type": "string"
        },
        {
          "internalType": "uint256",
          "name": "_metaEmWei",
          "type": "uint256"
        },
        {
          "internalType": "uint256",
          "name": "numeroDeDias",
          "type": "uint256"
        },
        {
          "internalType": "enum Cofrinho.ModoDeHierarquia",
          "name": "_modo",
          "type": "uint8"
        },
        {
          "internalType": "uint256",
          "name": "_numeroDeCuradores",
          "type": "uint256"
        }
      ],
      "stateMutability": "nonpayable",
      "type": "constructor"
    },
    {
      "anonymous": false,
      "inputs": [
        {
          "indexed": false,
          "internalType": "uint256",
          "name": "id",
          "type": "uint256"
        },
        {
          "indexed": false,
          "internalType": "string",
          "name": "descricao",
          "type": "string"
        }
      ],
      "name": "audicaoConcluida",
      "type": "event"
    },
    {
      "anonymous": false,
      "inputs": [
        {
          "indexed": false,
          "internalType": "address",
          "name": "doador",
          "type": "address"
        },
        {
          "indexed": false,
          "internalType": "uint256",
          "name": "valor",
          "type": "uint256"
        }
      ],
      "name": "doacaoRecebida",
      "type": "event"
    },
    {
      "anonymous": false,
      "inputs": [
        {
          "indexed": false,
          "internalType": "uint256",
          "name": "id",
          "type": "uint256"
        },
        {
          "indexed": false,
          "internalType": "string",
          "name": "descricao",
          "type": "string"
        },
        {
          "indexed": false,
          "internalType": "address",
          "name": "autor",
          "type": "address"
        }
      ],
      "name": "sugestaoAdicionada",
      "type": "event"
    },
    {
      "anonymous": false,
      "inputs": [
        {
          "indexed": false,
          "internalType": "address",
          "name": "votante",
          "type": "address"
        },
        {
          "indexed": false,
          "internalType": "uint256",
          "name": "idSugestao",
          "type": "uint256"
        }
      ],
      "name": "votoRecebido",
      "type": "event"
    },
    {
      "inputs": [
        {
          "internalType": "address",
          "name": "_curador",
          "type": "address"
        }
      ],
      "name": "adcionarCurador",
      "outputs": [],
      "stateMutability": "nonpayable",
      "type": "function"
    },
    {
      "inputs": [
        {
          "internalType": "string",
          "name": "_descricao",
          "type": "string"
        },
        {
          "internalType": "address",
          "name": "_endereco",
          "type": "address"
        }
      ],
      "name": "adicionarSugestaoComContrato",
      "outputs": [],
      "stateMutability": "nonpayable",
      "type": "function"
    },
    {
      "inputs": [
        {
          "internalType": "string",
          "name": "_descricao",
          "type": "string"
        }
      ],
      "name": "adicionarSugestaoSemContrato",
      "outputs": [],
      "stateMutability": "nonpayable",
      "type": "function"
    },
    {
      "inputs": [
        {
          "internalType": "uint256",
          "name": "_novosDias",
          "type": "uint256"
        }
      ],
      "name": "alterarDataFim",
      "outputs": [],
      "stateMutability": "nonpayable",
      "type": "function"
    },
    {
      "inputs": [
        {
          "internalType": "uint256",
          "name": "_novaMetaEmWei",
          "type": "uint256"
        }
      ],
      "name": "alterarMeta",
      "outputs": [],
      "stateMutability": "nonpayable",
      "type": "function"
    },
    {
      "inputs": [
        {
          "internalType": "enum Cofrinho.ModoDeHierarquia",
          "name": "_novoModo",
          "type": "uint8"
        }
      ],
      "name": "alterarModoHierarquia",
      "outputs": [],
      "stateMutability": "nonpayable",
      "type": "function"
    },
    {
      "inputs": [
        {
          "internalType": "string",
          "name": "_novoNome",
          "type": "string"
        }
      ],
      "name": "alterarNome",
      "outputs": [],
      "stateMutability": "nonpayable",
      "type": "function"
    },
    {
      "inputs": [],
      "name": "auditarVotos",
      "outputs": [],
      "stateMutability": "nonpayable",
      "type": "function"
    },
    {
      "inputs": [
        {
          "internalType": "address",
          "name": "",
          "type": "address"
        }
      ],
      "name": "curadores",
      "outputs": [
        {
          "internalType": "bool",
          "name": "",
          "type": "bool"
        }
      ],
      "stateMutability": "view",
      "type": "function"
    },
    {
      "inputs": [],
      "name": "dataFim",
      "outputs": [
        {
          "internalType": "uint256",
          "name": "",
          "type": "uint256"
        }
      ],
      "stateMutability": "view",
      "type": "function"
    },
    {
      "inputs": [
        {
          "internalType": "address",
          "name": "",
          "type": "address"
        }
      ],
      "name": "doacoes",
      "outputs": [
        {
          "internalType": "uint256",
          "name": "",
          "type": "uint256"
        }
      ],
      "stateMutability": "view",
      "type": "function"
    },
    {
      "inputs": [],
      "name": "doar",
      "outputs": [],
      "stateMutability": "payable",
      "type": "function"
    },
    {
      "inputs": [],
      "name": "iniciarVotacao",
      "outputs": [],
      "stateMutability": "nonpayable",
      "type": "function"
    },
    {
      "inputs": [],
      "name": "iniciarVotacaoRADM",
      "outputs": [],
      "stateMutability": "nonpayable",
      "type": "function"
    },
    {
      "inputs": [
        {
          "internalType": "address",
          "name": "",
          "type": "address"
        }
      ],
      "name": "jaSugeriu",
      "outputs": [
        {
          "internalType": "bool",
          "name": "",
          "type": "bool"
        }
      ],
      "stateMutability": "view",
      "type": "function"
    },
    {
      "inputs": [
        {
          "internalType": "address",
          "name": "",
          "type": "address"
        }
      ],
      "name": "jaVotou",
      "outputs": [
        {
          "internalType": "bool",
          "name": "",
          "type": "bool"
        }
      ],
      "stateMutability": "view",
      "type": "function"
    },
    {
      "inputs": [
        {
          "internalType": "address",
          "name": "",
          "type": "address"
        }
      ],
      "name": "jaVotouRADM",
      "outputs": [
        {
          "internalType": "bool",
          "name": "",
          "type": "bool"
        }
      ],
      "stateMutability": "view",
      "type": "function"
    },
    {
      "inputs": [],
      "name": "meta",
      "outputs": [
        {
          "internalType": "uint256",
          "name": "",
          "type": "uint256"
        }
      ],
      "stateMutability": "view",
      "type": "function"
    },
    {
      "inputs": [],
      "name": "metaAtingida",
      "outputs": [
        {
          "internalType": "bool",
          "name": "",
          "type": "bool"
        }
      ],
      "stateMutability": "view",
      "type": "function"
    },
    {
      "inputs": [],
      "name": "modoDeHierarquia",
      "outputs": [
        {
          "internalType": "enum Cofrinho.ModoDeHierarquia",
          "name": "",
          "type": "uint8"
        }
      ],
      "stateMutability": "view",
      "type": "function"
    },
    {
      "inputs": [],
      "name": "nome",
      "outputs": [
        {
          "internalType": "string",
          "name": "",
          "type": "string"
        }
      ],
      "stateMutability": "view",
      "type": "function"
    },
    {
      "inputs": [],
      "name": "numCuradoresAdd",
      "outputs": [
        {
          "internalType": "uint256",
          "name": "",
          "type": "uint256"
        }
      ],
      "stateMutability": "view",
      "type": "function"
    },
    {
      "inputs": [],
      "name": "numVotosRADM",
      "outputs": [
        {
          "internalType": "uint256",
          "name": "",
          "type": "uint256"
        }
      ],
      "stateMutability": "view",
      "type": "function"
    },
    {
      "inputs": [],
      "name": "numeroDeCuradores",
      "outputs": [
        {
          "internalType": "uint256",
          "name": "",
          "type": "uint256"
        }
      ],
      "stateMutability": "view",
      "type": "function"
    },
    {
      "inputs": [],
      "name": "owner",
      "outputs": [
        {
          "internalType": "address",
          "name": "",
          "type": "address"
        }
      ],
      "stateMutability": "view",
      "type": "function"
    },
    {
      "inputs": [],
      "name": "retiradoAntesDaMeta",
      "outputs": [
        {
          "internalType": "bool",
          "name": "",
          "type": "bool"
        }
      ],
      "stateMutability": "view",
      "type": "function"
    },
    {
      "inputs": [],
      "name": "retirarAntesDaMeta",
      "outputs": [],
      "stateMutability": "nonpayable",
      "type": "function"
    },
    {
      "inputs": [],
      "name": "sacar",
      "outputs": [],
      "stateMutability": "nonpayable",
      "type": "function"
    },
    {
      "inputs": [
        {
          "internalType": "uint256",
          "name": "",
          "type": "uint256"
        }
      ],
      "name": "sugestoes",
      "outputs": [
        {
          "internalType": "bool",
          "name": "ehContrato",
          "type": "bool"
        },
        {
          "internalType": "address",
          "name": "endereco",
          "type": "address"
        },
        {
          "internalType": "string",
          "name": "descricao",
          "type": "string"
        },
        {
          "internalType": "address",
          "name": "curador",
          "type": "address"
        },
        {
          "internalType": "uint256",
          "name": "votos",
          "type": "uint256"
        }
      ],
      "stateMutability": "view",
      "type": "function"
    },
    {
      "inputs": [],
      "name": "totalArrecadado",
      "outputs": [
        {
          "internalType": "uint256",
          "name": "",
          "type": "uint256"
        }
      ],
      "stateMutability": "view",
      "type": "function"
    },
    {
      "inputs": [],
      "name": "votacaoIniciada",
      "outputs": [
        {
          "internalType": "bool",
          "name": "",
          "type": "bool"
        }
      ],
      "stateMutability": "view",
      "type": "function"
    },
    {
      "inputs": [],
      "name": "votacaoRADMiniciada",
      "outputs": [
        {
          "internalType": "bool",
          "name": "",
          "type": "bool"
        }
      ],
      "stateMutability": "view",
      "type": "function"
    },
    {
      "inputs": [
        {
          "internalType": "uint256",
          "name": "_idSugestao",
          "type": "uint256"
        }
      ],
      "name": "votar",
      "outputs": [],
      "stateMutability": "nonpayable",
      "type": "function"
    },
    {
      "inputs": [
        {
          "internalType": "bool",
          "name": "_voto",
          "type": "bool"
        }
      ],
      "name": "votarRADM",
      "outputs": [],
      "stateMutability": "nonpayable",
      "type": "function"
    },
    {
      "inputs": [],
      "name": "votosFavoraveisRADM",
      "outputs": [
        {
          "internalType": "uint256",
          "name": "",
          "type": "uint256"
        }
      ],
      "stateMutability": "view",
      "type": "function"
    },
    {
      "inputs": [
        {
          "internalType": "address",
          "name": "",
          "type": "address"
        }
      ],
      "name": "votosRADM",
      "outputs": [
        {
          "internalType": "bool",
          "name": "",
          "type": "bool"
        }
      ],
      "stateMutability": "view",
      "type": "function"
    }
  ],
  "bytecode": "0x608060405260006008553480156200001657600080fd5b50604051620050c7380380620050c783398181016040528101906200003c91906200048f565b6000841162000082576040517f08c379a0000000000000000000000000000000000000000000000000000000008152600401620000799062000597565b60405180910390fd5b336000806101000a81548173ffffffffffffffffffffffffffffffffffffffff021916908373ffffffffffffffffffffffffffffffffffffffff1602179055508460059081620000d39190620007fa565b50836001819055506201518083620000ec919062000910565b42620000f991906200095b565b60038190555081600660006101000a81548160ff0219169083600281111562000127576200012662000996565b5b021790555060016007819055506001600960008060009054906101000a900473ffffffffffffffffffffffffffffffffffffffff1673ffffffffffffffffffffffffffffffffffffffff1673ffffffffffffffffffffffffffffffffffffffff16815260200190815260200160002060006101000a81548160ff02191690831515021790555060006002811115620001c457620001c362000996565b5b600660009054906101000a900460ff166002811115620001e957620001e862000996565b5b03620001fd5760016007819055506200028e565b6001600281111562000214576200021362000996565b5b600660009054906101000a900460ff16600281111562000239576200023862000996565b5b036200028d576001811162000285576040517f08c379a00000000000000000000000000000000000000000000000000000000081526004016200027c9062000a3b565b60405180910390fd5b806007819055505b5b505050505062000a5d565b6000604051905090565b600080fd5b600080fd5b600080fd5b600080fd5b6000601f19601f8301169050919050565b7f4e487b7100000000000000000000000000000000000000000000000000000000600052604160045260246000fd5b6200030282620002b7565b810181811067ffffffffffffffff82111715620003245762000323620002c8565b5b80604052505050565b60006200033962000299565b9050620003478282620002f7565b919050565b600067ffffffffffffffff8211156200036a5762000369620002c8565b5b6200037582620002b7565b9050602081019050919050565b60005b83811015620003a257808201518184015260208101905062000385565b60008484015250505050565b6000620003c5620003bf846200034c565b6200032d565b905082815260208101848484011115620003e457620003e3620002b2565b5b620003f184828562000382565b509392505050565b600082601f830112620004115762000410620002ad565b5b815162000423848260208601620003ae565b91505092915050565b6000819050919050565b62000441816200042c565b81146200044d57600080fd5b50565b600081519050620004618162000436565b92915050565b600381106200047557600080fd5b50565b600081519050620004898162000467565b92915050565b600080600080600060a08688031215620004ae57620004ad620002a3565b5b600086015167ffffffffffffffff811115620004cf57620004ce620002a8565b5b620004dd88828901620003f9565b9550506020620004f08882890162000450565b9450506040620005038882890162000450565b9350506060620005168882890162000478565b9250506080620005298882890162000450565b9150509295509295909350565b600082825260208201905092915050565b7f4d657461206465766520736572206d61696f7220717565207a65726f00000000600082015250565b60006200057f601c8362000536565b91506200058c8262000547565b602082019050919050565b60006020820190508181036000830152620005b28162000570565b9050919050565b600081519050919050565b7f4e487b7100000000000000000000000000000000000000000000000000000000600052602260045260246000fd5b600060028204905060018216806200060c57607f821691505b602082108103620006225762000621620005c4565b5b50919050565b60008190508160005260206000209050919050565b60006020601f8301049050919050565b600082821b905092915050565b6000600883026200068c7fffffffffffffffffffffffffffffffffffffffffffffffffffffffffffffffff826200064d565b6200069886836200064d565b95508019841693508086168417925050509392505050565b6000819050919050565b6000620006db620006d5620006cf846200042c565b620006b0565b6200042c565b9050919050565b6000819050919050565b620006f783620006ba565b6200070f6200070682620006e2565b8484546200065a565b825550505050565b600090565b6200072662000717565b62000733818484620006ec565b505050565b5b818110156200075b576200074f6000826200071c565b60018101905062000739565b5050565b601f821115620007aa57620007748162000628565b6200077f846200063d565b810160208510156200078f578190505b620007a76200079e856200063d565b83018262000738565b50505b505050565b600082821c905092915050565b6000620007cf60001984600802620007af565b1980831691505092915050565b6000620007ea8383620007bc565b9150826002028217905092915050565b6200080582620005b9565b67ffffffffffffffff811115620008215762000820620002c8565b5b6200082d8254620005f3565b6200083a8282856200075f565b600060209050601f8311600181146200087257600084156200085d578287015190505b620008698582620007dc565b865550620008d9565b601f198416620008828662000628565b60005b82811015620008ac5784890151825560018201915060208501945060208101905062000885565b86831015620008cc5784890151620008c8601f891682620007bc565b8355505b6001600288020188555050505b505050505050565b7f4e487b7100000000000000000000000000000000000000000000000000000000600052601160045260246000fd5b60006200091d826200042c565b91506200092a836200042c565b92508282026200093a816200042c565b91508282048414831517620009545762000953620008e1565b5b5092915050565b600062000968826200042c565b915062000975836200042c565b925082820190508082111562000990576200098f620008e1565b5b92915050565b7f4e487b7100000000000000000000000000000000000000000000000000000000600052602160045260246000fd5b7f4e756d65726f2064652063757261646f726573206465766520736572206d616960008201527f6f722071756520756d0000000000000000000000000000000000000000000000602082015250565b600062000a2360298362000536565b915062000a3082620009c5565b604082019050919050565b6000602082019050818103600083015262000a568162000a14565b9050919050565b61465a8062000a6d6000396000f3fe60806040526004361061020e5760003560e01c80636cca4e9a11610118578063b23d8829116100a0578063e001c4ef1161006f578063e001c4ef1461074f578063e7770ccf14610766578063ee22ba811461078f578063ef7a6519146107b8578063f90c6d1d146107e15761020e565b8063b23d8829146106a3578063b983bdf5146106ce578063c885044e146106f9578063cfe70f51146107245761020e565b80637ee11c9d116100e75780637ee11c9d146105ef57806385e656f51461062c5780638da5cb5b14610657578063a51068c814610682578063ab24edd0146106995761020e565b80636cca4e9a146105475780636e36c8da146105845780636fb29f6e146105af5780637eb5d7e0146105c65761020e565b806328f3b1fe1161019b57806332428f811161016a57806332428f81146104625780633260e7a21461047957806354e520be146104b6578063602cb6be146104e1578063687186621461050a5761020e565b806328f3b1fe146103a45780632b66fedb146103cd5780632deb124b1461040e57806331c10a0b146104395761020e565b806316bb69fd116101e257806316bb69fd146102e35780631d35823d1461030e5780631de1002e14610339578063216068311461036457806322b356791461038d5761020e565b8062dd2325146102135780630444f11f1461023e578063092f8cfb146102695780630c5db638146102a6575b600080fd5b34801561021f57600080fd5b5061022861080a565b6040516102359190612b57565b60405180910390f35b34801561024a57600080fd5b50610253610810565b6040516102609190612b57565b60405180910390f35b34801561027557600080fd5b50610290600480360381019061028b9190612be4565b610816565b60405161029d9190612b57565b60405180910390f35b3480156102b257600080fd5b506102cd60048036038101906102c89190612be4565b61082e565b6040516102da9190612c2c565b60405180910390f35b3480156102ef57600080fd5b506102f861084e565b6040516103059190612cbe565b60405180910390f35b34801561031a57600080fd5b50610323610861565b6040516103309190612b57565b60405180910390f35b34801561034557600080fd5b5061034e610867565b60405161035b9190612b57565b60405180910390f35b34801561037057600080fd5b5061038b60048036038101906103869190612d05565b61086d565b005b34801561039957600080fd5b506103a2610c3a565b005b3480156103b057600080fd5b506103cb60048036038101906103c69190612d05565b610d92565b005b3480156103d957600080fd5b506103f460048036038101906103ef9190612d05565b610e6d565b604051610405959493929190612dd1565b60405180910390f35b34801561041a57600080fd5b50610423610f88565b6040516104309190612e2b565b60405180910390f35b34801561044557600080fd5b50610460600480360381019061045b9190612e79565b611016565b005b34801561046e57600080fd5b506104776112c4565b005b34801561048557600080fd5b506104a0600480360381019061049b9190612be4565b611795565b6040516104ad9190612c2c565b60405180910390f35b3480156104c257600080fd5b506104cb6117b5565b6040516104d89190612c2c565b60405180910390f35b3480156104ed57600080fd5b5061050860048036038101906105039190612fdb565b6117c8565b005b34801561051657600080fd5b50610531600480360381019061052c9190612be4565b6118c1565b60405161053e9190612c2c565b60405180910390f35b34801561055357600080fd5b5061056e60048036038101906105699190612be4565b6118e1565b60405161057b9190612c2c565b60405180910390f35b34801561059057600080fd5b50610599611901565b6040516105a69190612c2c565b60405180910390f35b3480156105bb57600080fd5b506105c4611914565b005b3480156105d257600080fd5b506105ed60048036038101906105e89190613037565b611aeb565b005b3480156105fb57600080fd5b5061061660048036038101906106119190612be4565b611be3565b6040516106239190612c2c565b60405180910390f35b34801561063857600080fd5b50610641611c03565b60405161064e9190612c2c565b60405180910390f35b34801561066357600080fd5b5061066c611c16565b6040516106799190613080565b60405180910390f35b34801561068e57600080fd5b50610697611c3a565b005b6106a1611e9b565b005b3480156106af57600080fd5b506106b8612129565b6040516106c59190612b57565b60405180910390f35b3480156106da57600080fd5b506106e361212f565b6040516106f09190612c2c565b60405180910390f35b34801561070557600080fd5b5061070e612142565b60405161071b9190612b57565b60405180910390f35b34801561073057600080fd5b50610739612148565b6040516107469190612b57565b60405180910390f35b34801561075b57600080fd5b5061076461214e565b005b34801561077257600080fd5b5061078d600480360381019061078891906130c0565b612383565b005b34801561079b57600080fd5b506107b660048036038101906107b19190613037565b61243e565b005b3480156107c457600080fd5b506107df60048036038101906107da9190612be4565b6124df565b005b3480156107ed57600080fd5b5061080860048036038101906108039190612d05565b6127c3565b005b60025481565b60075481565b600b6020528060005260406000206000915090505481565b60096020528060005260406000206000915054906101000a900460ff1681565b600660009054906101000a900460ff1681565b600f5481565b60105481565b60011515600960003373ffffffffffffffffffffffffffffffffffffffff1673ffffffffffffffffffffffffffffffffffffffff16815260200190815260200160002060009054906101000a900460ff1615151480610917575060008054906101000a900473ffffffffffffffffffffffffffffffffffffffff1673ffffffffffffffffffffffffffffffffffffffff163373ffffffffffffffffffffffffffffffffffffffff16145b610956576040517f08c379a000000000000000000000000000000000000000000000000000000000815260040161094d9061315f565b60405180910390fd5b600460009054906101000a900460ff166109a5576040517f08c379a000000000000000000000000000000000000000000000000000000000815260040161099c906131cb565b60405180910390fd5b6000600a80549050116109ed576040517f08c379a00000000000000000000000000000000000000000000000000000000081526004016109e490613237565b60405180910390fd5b600c60003373ffffffffffffffffffffffffffffffffffffffff1673ffffffffffffffffffffffffffffffffffffffff16815260200190815260200160002060009054906101000a900460ff1615610a7a576040517f08c379a0000000000000000000000000000000000000000000000000000000008152600401610a71906132a3565b60405180910390fd5b6000600a8281548110610a9057610a8f6132c3565b5b906000526020600020906005020190508060040160003373ffffffffffffffffffffffffffffffffffffffff1673ffffffffffffffffffffffffffffffffffffffff16815260200190815260200160002060009054906101000a900460ff1615610b2f576040517f08c379a0000000000000000000000000000000000000000000000000000000008152600401610b269061333e565b60405180910390fd5b6001816003016000828254610b44919061338d565b9250508190555060018160040160003373ffffffffffffffffffffffffffffffffffffffff1673ffffffffffffffffffffffffffffffffffffffff16815260200190815260200160002060006101000a81548160ff0219169083151502179055506001600c60003373ffffffffffffffffffffffffffffffffffffffff1673ffffffffffffffffffffffffffffffffffffffff16815260200190815260200160002060006101000a81548160ff0219169083151502179055507f3f92be13299954b41820d38ee58049e4753f8eeec966d21ab95d10585ccd4a9d3383604051610c2e9291906133c1565b60405180910390a15050565b60008054906101000a900473ffffffffffffffffffffffffffffffffffffffff1673ffffffffffffffffffffffffffffffffffffffff163373ffffffffffffffffffffffffffffffffffffffff1614610cc8576040517f08c379a0000000000000000000000000000000000000000000000000000000008152600401610cbf9061345c565b60405180910390fd5b600460019054906101000a900460ff1615610d18576040517f08c379a0000000000000000000000000000000000000000000000000000000008152600401610d0f906134ee565b60405180910390fd5b600460029054906101000a900460ff16158015610d36575060035442105b610d75576040517f08c379a0000000000000000000000000000000000000000000000000000000008152600401610d6c90613580565b60405180910390fd5b6001600460016101000a81548160ff021916908315150217905550565b60008054906101000a900473ffffffffffffffffffffffffffffffffffffffff1673ffffffffffffffffffffffffffffffffffffffff163373ffffffffffffffffffffffffffffffffffffffff1614610e20576040517f08c379a0000000000000000000000000000000000000000000000000000000008152600401610e179061345c565b60405180910390fd5b60008111610e63576040517f08c379a0000000000000000000000000000000000000000000000000000000008152600401610e5a906135ec565b60405180910390fd5b8060018190555050565b600a8181548110610e7d57600080fd5b90600052602060002090600502016000915090508060000160009054906101000a900460ff16908060000160019054906101000a900473ffffffffffffffffffffffffffffffffffffffff1690806001018054610ed99061363b565b80601f0160208091040260200160405190810160405280929190818152602001828054610f059061363b565b8015610f525780601f10610f2757610100808354040283529160200191610f52565b820191906000526020600020905b815481529060010190602001808311610f3557829003601f168201915b5050505050908060020160009054906101000a900473ffffffffffffffffffffffffffffffffffffffff16908060030154905085565b60058054610f959061363b565b80601f0160208091040260200160405190810160405280929190818152602001828054610fc19061363b565b801561100e5780601f10610fe35761010080835404028352916020019161100e565b820191906000526020600020905b815481529060010190602001808311610ff157829003601f168201915b505050505081565b60011515600960003373ffffffffffffffffffffffffffffffffffffffff1673ffffffffffffffffffffffffffffffffffffffff16815260200190815260200160002060009054906101000a900460ff16151514806110c0575060008054906101000a900473ffffffffffffffffffffffffffffffffffffffff1673ffffffffffffffffffffffffffffffffffffffff163373ffffffffffffffffffffffffffffffffffffffff16145b6110ff576040517f08c379a00000000000000000000000000000000000000000000000000000000081526004016110f69061315f565b60405180910390fd5b600460019054906101000a900460ff1661114e576040517f08c379a0000000000000000000000000000000000000000000000000000000008152600401611145906136de565b60405180910390fd5b600e60003373ffffffffffffffffffffffffffffffffffffffff1673ffffffffffffffffffffffffffffffffffffffff16815260200190815260200160002060009054906101000a900460ff16156111db576040517f08c379a00000000000000000000000000000000000000000000000000000000081526004016111d290613770565b60405180910390fd5b80600d60003373ffffffffffffffffffffffffffffffffffffffff1673ffffffffffffffffffffffffffffffffffffffff16815260200190815260200160002060006101000a81548160ff0219169083151502179055506001600e60003373ffffffffffffffffffffffffffffffffffffffff1673ffffffffffffffffffffffffffffffffffffffff16815260200190815260200160002060006101000a81548160ff0219169083151502179055506010600081548092919061129d90613790565b919050555080156112c157600f60008154809291906112bb90613790565b91905055505b50565b60011515600960003373ffffffffffffffffffffffffffffffffffffffff1673ffffffffffffffffffffffffffffffffffffffff16815260200190815260200160002060009054906101000a900460ff161515148061136e575060008054906101000a900473ffffffffffffffffffffffffffffffffffffffff1673ffffffffffffffffffffffffffffffffffffffff163373ffffffffffffffffffffffffffffffffffffffff16145b6113ad576040517f08c379a00000000000000000000000000000000000000000000000000000000081526004016113a49061315f565b60405180910390fd5b600460009054906101000a900460ff166113fc576040517f08c379a00000000000000000000000000000000000000000000000000000000081526004016113f390613824565b60405180910390fd5b6000805b600a8054905081101561145357600a8181548110611421576114206132c3565b5b9060005260206000209060050201600301548261143e919061338d565b9150808061144b90613790565b915050611400565b50600160026007546114659190613873565b61146f919061338d565b8110156114b1576040517f08c379a00000000000000000000000000000000000000000000000000000000081526004016114a890613916565b60405180910390fd5b60008060005b600a805490508110156115305781600a82815481106114d9576114d86132c3565b5b906000526020600020906005020160030154111561151d57600a8181548110611505576115046132c3565b5b90600052602060002090600502016003015491508092505b808061152890613790565b9150506114b7565b507f42e5a462441b9114139eea16bb727926bb6a77dd0c4c7d3844273d2a83e6ec8782600a8481548110611567576115666132c3565b5b90600052602060002090600502016001016040516115869291906139cf565b60405180910390a1600a82815481106115a2576115a16132c3565b5b906000526020600020906005020160000160009054906101000a900460ff16156116bf576000600a83815481106115dc576115db6132c3565b5b906000526020600020906005020160000160019054906101000a900473ffffffffffffffffffffffffffffffffffffffff1673ffffffffffffffffffffffffffffffffffffffff1660025460405161163390613a30565b60006040518083038185875af1925050503d8060008114611670576040519150601f19603f3d011682016040523d82523d6000602084013e611675565b606091505b50509050806116b9576040517f08c379a00000000000000000000000000000000000000000000000000000000081526004016116b090613a91565b60405180910390fd5b50611790565b60008060009054906101000a900473ffffffffffffffffffffffffffffffffffffffff1673ffffffffffffffffffffffffffffffffffffffff1660025460405161170890613a30565b60006040518083038185875af1925050503d8060008114611745576040519150601f19603f3d011682016040523d82523d6000602084013e61174a565b606091505b505090508061178e576040517f08c379a000000000000000000000000000000000000000000000000000000000815260040161178590613a91565b60405180910390fd5b505b505050565b600c6020528060005260406000206000915054906101000a900460ff1681565b600460019054906101000a900460ff1681565b60011515600960003373ffffffffffffffffffffffffffffffffffffffff1673ffffffffffffffffffffffffffffffffffffffff16815260200190815260200160002060009054906101000a900460ff1615151480611872575060008054906101000a900473ffffffffffffffffffffffffffffffffffffffff1673ffffffffffffffffffffffffffffffffffffffff163373ffffffffffffffffffffffffffffffffffffffff16145b6118b1576040517f08c379a00000000000000000000000000000000000000000000000000000000081526004016118a89061315f565b60405180910390fd5b6118bd826001836128b7565b5050565b600e6020528060005260406000206000915054906101000a900460ff1681565b60116020528060005260406000206000915054906101000a900460ff1681565b600460039054906101000a900460ff1681565b60011515600960003373ffffffffffffffffffffffffffffffffffffffff1673ffffffffffffffffffffffffffffffffffffffff16815260200190815260200160002060009054906101000a900460ff16151514806119be575060008054906101000a900473ffffffffffffffffffffffffffffffffffffffff1673ffffffffffffffffffffffffffffffffffffffff163373ffffffffffffffffffffffffffffffffffffffff16145b6119fd576040517f08c379a00000000000000000000000000000000000000000000000000000000081526004016119f49061315f565b60405180910390fd5b600460009054906101000a900460ff1615611a4d576040517f08c379a0000000000000000000000000000000000000000000000000000000008152600401611a4490613afd565b60405180910390fd5b6000600a8054905011611a95576040517f08c379a0000000000000000000000000000000000000000000000000000000008152600401611a8c90613b69565b60405180910390fd5b600460029054906101000a900460ff1680611ab1575060035442115b80611ac85750600460039054906101000a900460ff165b15611ae9576001600460006101000a81548160ff0219169083151502179055505b565b60011515600960003373ffffffffffffffffffffffffffffffffffffffff1673ffffffffffffffffffffffffffffffffffffffff16815260200190815260200160002060009054906101000a900460ff1615151480611b95575060008054906101000a900473ffffffffffffffffffffffffffffffffffffffff1673ffffffffffffffffffffffffffffffffffffffff163373ffffffffffffffffffffffffffffffffffffffff16145b611bd4576040517f08c379a0000000000000000000000000000000000000000000000000000000008152600401611bcb9061315f565b60405180910390fd5b611be0816000806128b7565b50565b600d6020528060005260406000206000915054906101000a900460ff1681565b600460029054906101000a900460ff1681565b60008054906101000a900473ffffffffffffffffffffffffffffffffffffffff1681565b60008054906101000a900473ffffffffffffffffffffffffffffffffffffffff1673ffffffffffffffffffffffffffffffffffffffff163373ffffffffffffffffffffffffffffffffffffffff1614611cc8576040517f08c379a0000000000000000000000000000000000000000000000000000000008152600401611cbf9061345c565b60405180910390fd5b600460029054906101000a900460ff16611d17576040517f08c379a0000000000000000000000000000000000000000000000000000000008152600401611d0e90613bd5565b60405180910390fd5b60004711611d5a576040517f08c379a0000000000000000000000000000000000000000000000000000000008152600401611d5190613c41565b60405180910390fd5b600460039054906101000a900460ff1615611daa576040517f08c379a0000000000000000000000000000000000000000000000000000000008152600401611da190613cad565b60405180910390fd5b600047905060008060009054906101000a900473ffffffffffffffffffffffffffffffffffffffff1673ffffffffffffffffffffffffffffffffffffffff1682604051611df690613a30565b60006040518083038185875af1925050503d8060008114611e33576040519150601f19603f3d011682016040523d82523d6000602084013e611e38565b606091505b5050905080611e7c576040517f08c379a0000000000000000000000000000000000000000000000000000000008152600401611e7390613d19565b60405180910390fd5b6001600460036101000a81548160ff0219169083151502179055505050565b60003411611ede576040517f08c379a0000000000000000000000000000000000000000000000000000000008152600401611ed590613d85565b60405180910390fd5b60035442108015611efc5750600460009054906101000a900460ff16155b611f3b576040517f08c379a0000000000000000000000000000000000000000000000000000000008152600401611f3290613df1565b60405180910390fd5b34600b60003373ffffffffffffffffffffffffffffffffffffffff1673ffffffffffffffffffffffffffffffffffffffff1681526020019081526020016000206000828254611f8a919061338d565b925050819055503460026000828254611fa3919061338d565b92505081905550600280811115611fbd57611fbc612c47565b5b600660009054906101000a900460ff166002811115611fdf57611fde612c47565b5b1480156120365750600960003373ffffffffffffffffffffffffffffffffffffffff1673ffffffffffffffffffffffffffffffffffffffff16815260200190815260200160002060009054906101000a900460ff16155b156120ac576001600960003373ffffffffffffffffffffffffffffffffffffffff1673ffffffffffffffffffffffffffffffffffffffff16815260200190815260200160002060006101000a81548160ff021916908315150217905550600760008154809291906120a690613790565b91905055505b7f458808d3c9f01b7679951b11acb044063e54829c96d0d803dfb38372bda45f4333346040516120dd9291906133c1565b60405180910390a1600154600254101580156121065750600460029054906101000a900460ff16155b15612127576001600460026101000a81548160ff0219169083151502179055505b565b60085481565b600460009054906101000a900460ff1681565b60015481565b60035481565b60011515600960003373ffffffffffffffffffffffffffffffffffffffff1673ffffffffffffffffffffffffffffffffffffffff16815260200190815260200160002060009054906101000a900460ff16151514806121f8575060008054906101000a900473ffffffffffffffffffffffffffffffffffffffff1673ffffffffffffffffffffffffffffffffffffffff163373ffffffffffffffffffffffffffffffffffffffff16145b612237576040517f08c379a000000000000000000000000000000000000000000000000000000000815260040161222e9061315f565b60405180910390fd5b600460029054906101000a900460ff16158015612255575060035442105b612294576040517f08c379a000000000000000000000000000000000000000000000000000000000815260040161228b90613580565b60405180910390fd5b6000600254116122d9576040517f08c379a00000000000000000000000000000000000000000000000000000000081526004016122d090613e5d565b60405180910390fd5b6007546010541461231f576040517f08c379a000000000000000000000000000000000000000000000000000000000815260040161231690613eef565b60405180910390fd5b6000600460016101000a81548160ff0219169083151502179055506001600260075461234b9190613873565b612355919061338d565b600f5410612381576001600460036101000a81548160ff021916908315150217905550612380611914565b5b565b60008054906101000a900473ffffffffffffffffffffffffffffffffffffffff1673ffffffffffffffffffffffffffffffffffffffff163373ffffffffffffffffffffffffffffffffffffffff1614612411576040517f08c379a00000000000000000000000000000000000000000000000000000000081526004016124089061345c565b60405180910390fd5b80600660006101000a81548160ff0219169083600281111561243657612435612c47565b5b021790555050565b60008054906101000a900473ffffffffffffffffffffffffffffffffffffffff1673ffffffffffffffffffffffffffffffffffffffff163373ffffffffffffffffffffffffffffffffffffffff16146124cc576040517f08c379a00000000000000000000000000000000000000000000000000000000081526004016124c39061345c565b60405180910390fd5b80600590816124db91906140a6565b5050565b60008054906101000a900473ffffffffffffffffffffffffffffffffffffffff1673ffffffffffffffffffffffffffffffffffffffff163373ffffffffffffffffffffffffffffffffffffffff161461256d576040517f08c379a00000000000000000000000000000000000000000000000000000000081526004016125649061345c565b60405180910390fd5b6001600281111561258157612580612c47565b5b600660009054906101000a900460ff1660028111156125a3576125a2612c47565b5b146125e3576040517f08c379a00000000000000000000000000000000000000000000000000000000081526004016125da906141ea565b60405180910390fd5b600960008273ffffffffffffffffffffffffffffffffffffffff1673ffffffffffffffffffffffffffffffffffffffff16815260200190815260200160002060009054906101000a900460ff1615612670576040517f08c379a000000000000000000000000000000000000000000000000000000000815260040161266790614256565b60405180910390fd5b60008054906101000a900473ffffffffffffffffffffffffffffffffffffffff1673ffffffffffffffffffffffffffffffffffffffff168173ffffffffffffffffffffffffffffffffffffffff16036126fe576040517f08c379a00000000000000000000000000000000000000000000000000000000081526004016126f5906142c2565b60405180910390fd5b600160075461270d91906142e2565b60085410612750576040517f08c379a000000000000000000000000000000000000000000000000000000000815260040161274790614388565b60405180910390fd5b6001600960008373ffffffffffffffffffffffffffffffffffffffff1673ffffffffffffffffffffffffffffffffffffffff16815260200190815260200160002060006101000a81548160ff021916908315150217905550600860008154809291906127bb90613790565b919050555050565b60008054906101000a900473ffffffffffffffffffffffffffffffffffffffff1673ffffffffffffffffffffffffffffffffffffffff163373ffffffffffffffffffffffffffffffffffffffff1614612851576040517f08c379a00000000000000000000000000000000000000000000000000000000081526004016128489061345c565b60405180910390fd5b60008111612894576040517f08c379a000000000000000000000000000000000000000000000000000000000815260040161288b906143f4565b60405180910390fd5b62015180816128a39190614414565b426128ae919061338d565b60038190555050565b600460009054906101000a900460ff1615612907576040517f08c379a00000000000000000000000000000000000000000000000000000000081526004016128fe906144c8565b60405180910390fd5b601160003373ffffffffffffffffffffffffffffffffffffffff1673ffffffffffffffffffffffffffffffffffffffff16815260200190815260200160002060009054906101000a900460ff1615612994576040517f08c379a000000000000000000000000000000000000000000000000000000000815260040161298b90614534565b60405180910390fd5b8115612a0a57600073ffffffffffffffffffffffffffffffffffffffff168173ffffffffffffffffffffffffffffffffffffffff1603612a09576040517f08c379a0000000000000000000000000000000000000000000000000000000008152600401612a00906145c6565b60405180910390fd5b5b6000600a6001816001815401808255809150500390600052602060002090600502019050828160000160006101000a81548160ff021916908315150217905550818160000160016101000a81548173ffffffffffffffffffffffffffffffffffffffff021916908373ffffffffffffffffffffffffffffffffffffffff16021790555083816001019081612a9e91906140a6565b50338160020160006101000a81548173ffffffffffffffffffffffffffffffffffffffff021916908373ffffffffffffffffffffffffffffffffffffffff160217905550600081600301819055507f52a6aaae5969a889ee973b787515096876751cee375a912f51fc36496fd1574b6001600a80549050612b1f91906142e2565b8533604051612b30939291906145e6565b60405180910390a150505050565b6000819050919050565b612b5181612b3e565b82525050565b6000602082019050612b6c6000830184612b48565b92915050565b6000604051905090565b600080fd5b600080fd5b600073ffffffffffffffffffffffffffffffffffffffff82169050919050565b6000612bb182612b86565b9050919050565b612bc181612ba6565b8114612bcc57600080fd5b50565b600081359050612bde81612bb8565b92915050565b600060208284031215612bfa57612bf9612b7c565b5b6000612c0884828501612bcf565b91505092915050565b60008115159050919050565b612c2681612c11565b82525050565b6000602082019050612c416000830184612c1d565b92915050565b7f4e487b7100000000000000000000000000000000000000000000000000000000600052602160045260246000fd5b60038110612c8757612c86612c47565b5b50565b6000819050612c9882612c76565b919050565b6000612ca882612c8a565b9050919050565b612cb881612c9d565b82525050565b6000602082019050612cd36000830184612caf565b92915050565b612ce281612b3e565b8114612ced57600080fd5b50565b600081359050612cff81612cd9565b92915050565b600060208284031215612d1b57612d1a612b7c565b5b6000612d2984828501612cf0565b91505092915050565b612d3b81612ba6565b82525050565b600081519050919050565b600082825260208201905092915050565b60005b83811015612d7b578082015181840152602081019050612d60565b60008484015250505050565b6000601f19601f8301169050919050565b6000612da382612d41565b612dad8185612d4c565b9350612dbd818560208601612d5d565b612dc681612d87565b840191505092915050565b600060a082019050612de66000830188612c1d565b612df36020830187612d32565b8181036040830152612e058186612d98565b9050612e146060830185612d32565b612e216080830184612b48565b9695505050505050565b60006020820190508181036000830152612e458184612d98565b905092915050565b612e5681612c11565b8114612e6157600080fd5b50565b600081359050612e7381612e4d565b92915050565b600060208284031215612e8f57612e8e612b7c565b5b6000612e9d84828501612e64565b91505092915050565b600080fd5b600080fd5b7f4e487b7100000000000000000000000000000000000000000000000000000000600052604160045260246000fd5b612ee882612d87565b810181811067ffffffffffffffff82111715612f0757612f06612eb0565b5b80604052505050565b6000612f1a612b72565b9050612f268282612edf565b919050565b600067ffffffffffffffff821115612f4657612f45612eb0565b5b612f4f82612d87565b9050602081019050919050565b82818337600083830152505050565b6000612f7e612f7984612f2b565b612f10565b905082815260208101848484011115612f9a57612f99612eab565b5b612fa5848285612f5c565b509392505050565b600082601f830112612fc257612fc1612ea6565b5b8135612fd2848260208601612f6b565b91505092915050565b60008060408385031215612ff257612ff1612b7c565b5b600083013567ffffffffffffffff8111156130105761300f612b81565b5b61301c85828601612fad565b925050602061302d85828601612bcf565b9150509250929050565b60006020828403121561304d5761304c612b7c565b5b600082013567ffffffffffffffff81111561306b5761306a612b81565b5b61307784828501612fad565b91505092915050565b60006020820190506130956000830184612d32565b92915050565b600381106130a857600080fd5b50565b6000813590506130ba8161309b565b92915050565b6000602082840312156130d6576130d5612b7c565b5b60006130e4848285016130ab565b91505092915050565b7f4170656e6173206f2063757261646f7220706f6465206578656375746172206560008201527f7374612066756e63616f00000000000000000000000000000000000000000000602082015250565b6000613149602a83612d4c565b9150613154826130ed565b604082019050919050565b600060208201905081810360008301526131788161313c565b9050919050565b7f566f746163616f206e616f20696e696369616461000000000000000000000000600082015250565b60006131b5601483612d4c565b91506131c08261317f565b602082019050919050565b600060208201905081810360008301526131e4816131a8565b9050919050565b7f4e616f206861207375676573746f6573207061726120766f7461720000000000600082015250565b6000613221601b83612d4c565b915061322c826131eb565b602082019050919050565b6000602082019050818103600083015261325081613214565b9050919050565b7f4a6120766f746f75000000000000000000000000000000000000000000000000600082015250565b600061328d600883612d4c565b915061329882613257565b602082019050919050565b600060208201905081810360008301526132bc81613280565b9050919050565b7f4e487b7100000000000000000000000000000000000000000000000000000000600052603260045260246000fd5b7f566f6365206a6120766f746f75206e6573746120737567657374616f00000000600082015250565b6000613328601c83612d4c565b9150613333826132f2565b602082019050919050565b600060208201905081810360008301526133578161331b565b9050919050565b7f4e487b7100000000000000000000000000000000000000000000000000000000600052601160045260246000fd5b600061339882612b3e565b91506133a383612b3e565b92508282019050808211156133bb576133ba61335e565b5b92915050565b60006040820190506133d66000830185612d32565b6133e36020830184612b48565b9392505050565b7f4170656e6173206f20646f6e6f20706f6465206578656375746172206573746160008201527f2066756e63616f00000000000000000000000000000000000000000000000000602082015250565b6000613446602783612d4c565b9150613451826133ea565b604082019050919050565b6000602082019050818103600083015261347581613439565b9050919050565b7f4120766f746163616f2070617261207265746972617220616e7465732064612060008201527f6d657461206a6120666f6920696e696369616461000000000000000000000000602082015250565b60006134d8603483612d4c565b91506134e38261347c565b604082019050919050565b60006020820190508181036000830152613507816134cb565b9050919050565b7f4e616f20656820706f73736976656c207265746972617220616e74657320646160008201527f206d657461000000000000000000000000000000000000000000000000000000602082015250565b600061356a602583612d4c565b91506135758261350e565b604082019050919050565b600060208201905081810360008301526135998161355d565b9050919050565b7f4d657461206465766520736572206d61696f7220717565207a65726f00000000600082015250565b60006135d6601c83612d4c565b91506135e1826135a0565b602082019050919050565b60006020820190508181036000830152613605816135c9565b9050919050565b7f4e487b7100000000000000000000000000000000000000000000000000000000600052602260045260246000fd5b6000600282049050600182168061365357607f821691505b6020821081036136665761366561360c565b5b50919050565b7f4120766f746163616f2070617261207265746972617220616e7465732064612060008201527f6d657461206e616f20666f6920696e6963696164610000000000000000000000602082015250565b60006136c8603583612d4c565b91506136d38261366c565b604082019050919050565b600060208201905081810360008301526136f7816136bb565b9050919050565b7f4a6120766f746f752070617261207265746972617220616e746573206461206d60008201527f6574610000000000000000000000000000000000000000000000000000000000602082015250565b600061375a602383612d4c565b9150613765826136fe565b604082019050919050565b600060208201905081810360008301526137898161374d565b9050919050565b600061379b82612b3e565b91507fffffffffffffffffffffffffffffffffffffffffffffffffffffffffffffffff82036137cd576137cc61335e565b5b600182019050919050565b7f566f746163616f2061696e6461206e616f20696e696369616461000000000000600082015250565b600061380e601a83612d4c565b9150613819826137d8565b602082019050919050565b6000602082019050818103600083015261383d81613801565b9050919050565b7f4e487b7100000000000000000000000000000000000000000000000000000000600052601260045260246000fd5b600061387e82612b3e565b915061388983612b3e565b92508261389957613898613844565b5b828204905092915050565b7f4e616f20686120766f746f7320737566696369656e746573207061726120617560008201527f6469746172000000000000000000000000000000000000000000000000000000602082015250565b6000613900602583612d4c565b915061390b826138a4565b604082019050919050565b6000602082019050818103600083015261392f816138f3565b9050919050565b60008190508160005260206000209050919050565b600081546139588161363b565b6139628186612d4c565b9450600182166000811461397d5760018114613993576139c6565b60ff1983168652811515602002860193506139c6565b61399c85613936565b60005b838110156139be5781548189015260018201915060208101905061399f565b808801955050505b50505092915050565b60006040820190506139e46000830185612b48565b81810360208301526139f6818461394b565b90509392505050565b600081905092915050565b50565b6000613a1a6000836139ff565b9150613a2582613a0a565b600082019050919050565b6000613a3b82613a0d565b9150819050919050565b7f5472616e73666572206661696c65640000000000000000000000000000000000600082015250565b6000613a7b600f83612d4c565b9150613a8682613a45565b602082019050919050565b60006020820190508181036000830152613aaa81613a6e565b9050919050565b7f566f746163616f206a6120696e69636961646100000000000000000000000000600082015250565b6000613ae7601383612d4c565b9150613af282613ab1565b602082019050919050565b60006020820190508181036000830152613b1681613ada565b9050919050565b7f4e616f206861207375676573746f657320000000000000000000000000000000600082015250565b6000613b53601183612d4c565b9150613b5e82613b1d565b602082019050919050565b60006020820190508181036000830152613b8281613b46565b9050919050565b7f41206d6574612061696e6461206e616f20666f69206174696e67696461000000600082015250565b6000613bbf601d83612d4c565b9150613bca82613b89565b602082019050919050565b60006020820190508181036000830152613bee81613bb2565b9050919050565b7f4e616f2068612066756e646f7320706172612073616361720000000000000000600082015250565b6000613c2b601883612d4c565b9150613c3682613bf5565b602082019050919050565b60006020820190508181036000830152613c5a81613c1e565b9050919050565b7f4a6120666f6920726574697261646f20616e746573206461206d657461000000600082015250565b6000613c97601d83612d4c565b9150613ca282613c61565b602082019050919050565b60006020820190508181036000830152613cc681613c8a565b9050919050565b7f5472616e73666572656e6369612066616c686f75000000000000000000000000600082015250565b6000613d03601483612d4c565b9150613d0e82613ccd565b602082019050919050565b60006020820190508181036000830152613d3281613cf6565b9050919050565b7f4f2076616c6f7220656820696e76616c69646f00000000000000000000000000600082015250565b6000613d6f601383612d4c565b9150613d7a82613d39565b602082019050919050565b60006020820190508181036000830152613d9e81613d62565b9050919050565b7f506572696f646f20646520646f61636f657320656e6365727261646f00000000600082015250565b6000613ddb601c83612d4c565b9150613de682613da5565b602082019050919050565b60006020820190508181036000830152613e0a81613dce565b9050919050565b7f4e616f206861206f207175652072657469726172000000000000000000000000600082015250565b6000613e47601483612d4c565b9150613e5282613e11565b602082019050919050565b60006020820190508181036000830152613e7681613e3a565b9050919050565b7f4e656d20746f646f73206f732063757261646f72657320766f746172616d206160008201527f696e646100000000000000000000000000000000000000000000000000000000602082015250565b6000613ed9602483612d4c565b9150613ee482613e7d565b604082019050919050565b60006020820190508181036000830152613f0881613ecc565b9050919050565b60006020601f8301049050919050565b600082821b905092915050565b600060088302613f5c7fffffffffffffffffffffffffffffffffffffffffffffffffffffffffffffffff82613f1f565b613f668683613f1f565b95508019841693508086168417925050509392505050565b6000819050919050565b6000613fa3613f9e613f9984612b3e565b613f7e565b612b3e565b9050919050565b6000819050919050565b613fbd83613f88565b613fd1613fc982613faa565b848454613f2c565b825550505050565b600090565b613fe6613fd9565b613ff1818484613fb4565b505050565b5b818110156140155761400a600082613fde565b600181019050613ff7565b5050565b601f82111561405a5761402b81613936565b61403484613f0f565b81016020851015614043578190505b61405761404f85613f0f565b830182613ff6565b50505b505050565b600082821c905092915050565b600061407d6000198460080261405f565b1980831691505092915050565b6000614096838361406c565b9150826002028217905092915050565b6140af82612d41565b67ffffffffffffffff8111156140c8576140c7612eb0565b5b6140d2825461363b565b6140dd828285614019565b600060209050601f83116001811461411057600084156140fe578287015190505b614108858261408a565b865550614170565b601f19841661411e86613936565b60005b8281101561414657848901518255600182019150602085019450602081019050614121565b86831015614163578489015161415f601f89168261406c565b8355505b6001600288020188555050505b505050505050565b7f45737465206d6f646f206e616f207065726d697465206d756c7469706c6f732060008201527f63757261646f7265730000000000000000000000000000000000000000000000602082015250565b60006141d4602983612d4c565b91506141df82614178565b604082019050919050565b60006020820190508181036000830152614203816141c7565b9050919050565b7f4573746520656e64657265636f206a61206520756d2063757261646f72000000600082015250565b6000614240601d83612d4c565b915061424b8261420a565b602082019050919050565b6000602082019050818103600083015261426f81614233565b9050919050565b7f4f20646f6e6f206a61206520756d2063757261646f7200000000000000000000600082015250565b60006142ac601683612d4c565b91506142b782614276565b602082019050919050565b600060208201905081810360008301526142db8161429f565b9050919050565b60006142ed82612b3e565b91506142f883612b3e565b92508282039050818111156143105761430f61335e565b5b92915050565b7f4e756d65726f206d6178696d6f2064652063757261646f726573206174696e6760008201527f69646f0000000000000000000000000000000000000000000000000000000000602082015250565b6000614372602383612d4c565b915061437d82614316565b604082019050919050565b600060208201905081810360008301526143a181614365565b9050919050565b7f44696173206465766520736572206d61696f7220717565207a65726f00000000600082015250565b60006143de601c83612d4c565b91506143e9826143a8565b602082019050919050565b6000602082019050818103600083015261440d816143d1565b9050919050565b600061441f82612b3e565b915061442a83612b3e565b925082820261443881612b3e565b9150828204841483151761444f5761444e61335e565b5b5092915050565b7f566f746163616f20696e6963696164612c20706572696f646f2064652073756760008201527f6573746f657320656e6365727261646f00000000000000000000000000000000602082015250565b60006144b2603083612d4c565b91506144bd82614456565b604082019050919050565b600060208201905081810360008301526144e1816144a5565b9050919050565b7f4a61207375676572697500000000000000000000000000000000000000000000600082015250565b600061451e600a83612d4c565b9150614529826144e8565b602082019050919050565b6000602082019050818103600083015261454d81614511565b9050919050565b7f4f20656e64657265636f20646f20636f6e747261746f206e616f20656820766160008201527f6c69646f00000000000000000000000000000000000000000000000000000000602082015250565b60006145b0602483612d4c565b91506145bb82614554565b604082019050919050565b600060208201905081810360008301526145df816145a3565b9050919050565b60006060820190506145fb6000830186612b48565b818103602083015261460d8185612d98565b905061461c6040830184612d32565b94935050505056fea2646970667358221220dec5cd78fdc8160004a40fd11eec92ce291b3517aea9257a7a39c1d77ab9ebb064736f6c63430008130033",
  "linkReferences": {},
  "deployedLinkReferences": {}
}