{
  "_format": "hh-sol-artifact-1",
  "contractName": "Cofrinho",
  "sourceName": "contracts/Cofrinho.sol",
  "abi": [
    {
      "inputs": [
        {
          "internalType": "uint256",
          "name": "_meta",
          "type": "uint256"
        },
        {
          "internalType": "uint256",
          "name": "numeroDeDias",
          "type": "uint256"
        },
        {
          "internalType": "enum Cofrinho.ModoDeHierarquia",
          "name": "_modo",
          "type": "uint8"
        },
        {
          "internalType": "uint256",
          "name": "_numeroDeCuradores",
          "type": "uint256"
        }
      ],
      "stateMutability": "nonpayable",
      "type": "constructor"
    },
    {
      "inputs": [
        {
          "internalType": "address",
          "name": "_curador",
          "type": "address"
        }
      ],
      "name": "adcionarCurador",
      "outputs": [],
      "stateMutability": "nonpayable",
      "type": "function"
    },
    {
      "inputs": [
        {
          "internalType": "address",
          "name": "",
          "type": "address"
        }
      ],
      "name": "curadores",
      "outputs": [
        {
          "internalType": "bool",
          "name": "",
          "type": "bool"
        }
      ],
      "stateMutability": "view",
      "type": "function"
    },
    {
      "inputs": [],
      "name": "dataFim",
      "outputs": [
        {
          "internalType": "uint256",
          "name": "",
          "type": "uint256"
        }
      ],
      "stateMutability": "view",
      "type": "function"
    },
    {
      "inputs": [
        {
          "internalType": "address",
          "name": "",
          "type": "address"
        }
      ],
      "name": "doacoes",
      "outputs": [
        {
          "internalType": "uint256",
          "name": "",
          "type": "uint256"
        }
      ],
      "stateMutability": "view",
      "type": "function"
    },
    {
      "inputs": [
        {
          "internalType": "address",
          "name": "",
          "type": "address"
        }
      ],
      "name": "jaVotou",
      "outputs": [
        {
          "internalType": "bool",
          "name": "",
          "type": "bool"
        }
      ],
      "stateMutability": "view",
      "type": "function"
    },
    {
      "inputs": [],
      "name": "meta",
      "outputs": [
        {
          "internalType": "uint256",
          "name": "",
          "type": "uint256"
        }
      ],
      "stateMutability": "view",
      "type": "function"
    },
    {
      "inputs": [],
      "name": "metaAtingida",
      "outputs": [
        {
          "internalType": "bool",
          "name": "",
          "type": "bool"
        }
      ],
      "stateMutability": "view",
      "type": "function"
    },
    {
      "inputs": [],
      "name": "modoDeHierarquia",
      "outputs": [
        {
          "internalType": "enum Cofrinho.ModoDeHierarquia",
          "name": "",
          "type": "uint8"
        }
      ],
      "stateMutability": "view",
      "type": "function"
    },
    {
      "inputs": [],
      "name": "numCuradoresAdd",
      "outputs": [
        {
          "internalType": "uint256",
          "name": "",
          "type": "uint256"
        }
      ],
      "stateMutability": "view",
      "type": "function"
    },
    {
      "inputs": [],
      "name": "numeroDeCuradores",
      "outputs": [
        {
          "internalType": "uint256",
          "name": "",
          "type": "uint256"
        }
      ],
      "stateMutability": "view",
      "type": "function"
    },
    {
      "inputs": [],
      "name": "owner",
      "outputs": [
        {
          "internalType": "address",
          "name": "",
          "type": "address"
        }
      ],
      "stateMutability": "view",
      "type": "function"
    },
    {
      "inputs": [
        {
          "internalType": "uint256",
          "name": "",
          "type": "uint256"
        }
      ],
      "name": "sugestoes",
      "outputs": [
        {
          "internalType": "string",
          "name": "descricao",
          "type": "string"
        },
        {
          "internalType": "address",
          "name": "curador",
          "type": "address"
        },
        {
          "internalType": "uint256",
          "name": "votos",
          "type": "uint256"
        }
      ],
      "stateMutability": "view",
      "type": "function"
    },
    {
      "inputs": [],
      "name": "totalArrecadado",
      "outputs": [
        {
          "internalType": "uint256",
          "name": "",
          "type": "uint256"
        }
      ],
      "stateMutability": "view",
      "type": "function"
    },
    {
      "inputs": [],
      "name": "votacaoIniciada",
      "outputs": [
        {
          "internalType": "bool",
          "name": "",
          "type": "bool"
        }
      ],
      "stateMutability": "view",
      "type": "function"
    }
  ],
  "bytecode": "0x608060405260016006553480156200001657600080fd5b506040516200130d3803806200130d83398181016040528101906200003c91906200031f565b336000806101000a81548173ffffffffffffffffffffffffffffffffffffffff021916908373ffffffffffffffffffffffffffffffffffffffff160217905550836001819055506201518083620000949190620003c0565b42620000a191906200040b565b60038190555081600460026101000a81548160ff02191690836002811115620000cf57620000ce62000446565b5b021790555060006002811115620000eb57620000ea62000446565b5b600460029054906101000a900460ff16600281111562000110576200010f62000446565b5b036200019557600160058190555060011515600760008060009054906101000a900473ffffffffffffffffffffffffffffffffffffffff1673ffffffffffffffffffffffffffffffffffffffff1673ffffffffffffffffffffffffffffffffffffffff16815260200190815260200160002060009054906101000a90505050620002ad565b60016002811115620001ac57620001ab62000446565b5b600460029054906101000a900460ff166002811115620001d157620001d062000446565b5b03620002ac57600081116200021d576040517f08c379a00000000000000000000000000000000000000000000000000000000081526004016200021490620004fc565b60405180910390fd5b6001816200022c91906200040b565b6005819055506001600760008060009054906101000a900473ffffffffffffffffffffffffffffffffffffffff1673ffffffffffffffffffffffffffffffffffffffff1673ffffffffffffffffffffffffffffffffffffffff16815260200190815260200160002060006101000a81548160ff0219169083151502179055505b5b505050506200051e565b600080fd5b6000819050919050565b620002d181620002bc565b8114620002dd57600080fd5b50565b600081519050620002f181620002c6565b92915050565b600381106200030557600080fd5b50565b6000815190506200031981620002f7565b92915050565b600080600080608085870312156200033c576200033b620002b7565b5b60006200034c87828801620002e0565b94505060206200035f87828801620002e0565b9350506040620003728782880162000308565b92505060606200038587828801620002e0565b91505092959194509250565b7f4e487b7100000000000000000000000000000000000000000000000000000000600052601160045260246000fd5b6000620003cd82620002bc565b9150620003da83620002bc565b9250828202620003ea81620002bc565b9150828204841483151762000404576200040362000391565b5b5092915050565b60006200041882620002bc565b91506200042583620002bc565b925082820190508082111562000440576200043f62000391565b5b92915050565b7f4e487b7100000000000000000000000000000000000000000000000000000000600052602160045260246000fd5b600082825260208201905092915050565b7f4e756d65726f2064652063757261646f726573206465766520736572206d616960008201527f6f7220717565207a65726f000000000000000000000000000000000000000000602082015250565b6000620004e4602b8362000475565b9150620004f18262000486565b604082019050919050565b600060208201905081810360008301526200051781620004d5565b9050919050565b610ddf806200052e6000396000f3fe608060405234801561001057600080fd5b50600436106100e95760003560e01c806385e656f51161008c578063b983bdf511610066578063b983bdf514610264578063c885044e14610282578063cfe70f51146102a0578063ef7a6519146102be576100e9565b806385e656f51461020a5780638da5cb5b14610228578063b23d882914610246576100e9565b80630c5db638116100c85780630c5db6381461015a57806316bb69fd1461018a5780632b66fedb146101a85780633260e7a2146101da576100e9565b8062dd2325146100ee5780630444f11f1461010c578063092f8cfb1461012a575b600080fd5b6100f66102da565b6040516101039190610780565b60405180910390f35b6101146102e0565b6040516101219190610780565b60405180910390f35b610144600480360381019061013f91906107fe565b6102e6565b6040516101519190610780565b60405180910390f35b610174600480360381019061016f91906107fe565b6102fe565b6040516101819190610846565b60405180910390f35b61019261031e565b60405161019f91906108d8565b60405180910390f35b6101c260048036038101906101bd919061091f565b610331565b6040516101d1939291906109eb565b60405180910390f35b6101f460048036038101906101ef91906107fe565b610413565b6040516102019190610846565b60405180910390f35b610212610433565b60405161021f9190610846565b60405180910390f35b610230610446565b60405161023d9190610a29565b60405180910390f35b61024e61046a565b60405161025b9190610780565b60405180910390f35b61026c610470565b6040516102799190610846565b60405180910390f35b61028a610483565b6040516102979190610780565b60405180910390f35b6102a8610489565b6040516102b59190610780565b60405180910390f35b6102d860048036038101906102d391906107fe565b61048f565b005b60025481565b60055481565b60096020528060005260406000206000915090505481565b60076020528060005260406000206000915054906101000a900460ff1681565b600460029054906101000a900460ff1681565b6008818154811061034157600080fd5b906000526020600020906004020160009150905080600001805461036490610a73565b80601f016020809104026020016040519081016040528092919081815260200182805461039090610a73565b80156103dd5780601f106103b2576101008083540402835291602001916103dd565b820191906000526020600020905b8154815290600101906020018083116103c057829003601f168201915b5050505050908060010160009054906101000a900473ffffffffffffffffffffffffffffffffffffffff16908060020154905083565b600a6020528060005260406000206000915054906101000a900460ff1681565b600460019054906101000a900460ff1681565b60008054906101000a900473ffffffffffffffffffffffffffffffffffffffff1681565b60065481565b600460009054906101000a900460ff1681565b60015481565b60035481565b60008054906101000a900473ffffffffffffffffffffffffffffffffffffffff1673ffffffffffffffffffffffffffffffffffffffff163373ffffffffffffffffffffffffffffffffffffffff161461051d576040517f08c379a000000000000000000000000000000000000000000000000000000000815260040161051490610b16565b60405180910390fd5b6001600281111561053157610530610861565b5b600460029054906101000a900460ff16600281111561055357610552610861565b5b14610593576040517f08c379a000000000000000000000000000000000000000000000000000000000815260040161058a90610ba8565b60405180910390fd5b600760008273ffffffffffffffffffffffffffffffffffffffff1673ffffffffffffffffffffffffffffffffffffffff16815260200190815260200160002060009054906101000a900460ff1615610620576040517f08c379a000000000000000000000000000000000000000000000000000000000815260040161061790610c14565b60405180910390fd5b60008054906101000a900473ffffffffffffffffffffffffffffffffffffffff1673ffffffffffffffffffffffffffffffffffffffff168173ffffffffffffffffffffffffffffffffffffffff16036106ae576040517f08c379a00000000000000000000000000000000000000000000000000000000081526004016106a590610c80565b60405180910390fd5b600554600654106106f4576040517f08c379a00000000000000000000000000000000000000000000000000000000081526004016106eb90610d12565b60405180910390fd5b6001600760008373ffffffffffffffffffffffffffffffffffffffff1673ffffffffffffffffffffffffffffffffffffffff16815260200190815260200160002060006101000a81548160ff0219169083151502179055506006600081548092919061075f90610d61565b919050555050565b6000819050919050565b61077a81610767565b82525050565b60006020820190506107956000830184610771565b92915050565b600080fd5b600073ffffffffffffffffffffffffffffffffffffffff82169050919050565b60006107cb826107a0565b9050919050565b6107db816107c0565b81146107e657600080fd5b50565b6000813590506107f8816107d2565b92915050565b6000602082840312156108145761081361079b565b5b6000610822848285016107e9565b91505092915050565b60008115159050919050565b6108408161082b565b82525050565b600060208201905061085b6000830184610837565b92915050565b7f4e487b7100000000000000000000000000000000000000000000000000000000600052602160045260246000fd5b600381106108a1576108a0610861565b5b50565b60008190506108b282610890565b919050565b60006108c2826108a4565b9050919050565b6108d2816108b7565b82525050565b60006020820190506108ed60008301846108c9565b92915050565b6108fc81610767565b811461090757600080fd5b50565b600081359050610919816108f3565b92915050565b6000602082840312156109355761093461079b565b5b60006109438482850161090a565b91505092915050565b600081519050919050565b600082825260208201905092915050565b60005b8381101561098657808201518184015260208101905061096b565b60008484015250505050565b6000601f19601f8301169050919050565b60006109ae8261094c565b6109b88185610957565b93506109c8818560208601610968565b6109d181610992565b840191505092915050565b6109e5816107c0565b82525050565b60006060820190508181036000830152610a0581866109a3565b9050610a1460208301856109dc565b610a216040830184610771565b949350505050565b6000602082019050610a3e60008301846109dc565b92915050565b7f4e487b7100000000000000000000000000000000000000000000000000000000600052602260045260246000fd5b60006002820490506001821680610a8b57607f821691505b602082108103610a9e57610a9d610a44565b5b50919050565b7f4170656e6173206f20646f6e6f20706f6465206578656375746172206573746160008201527f2066756e63616f00000000000000000000000000000000000000000000000000602082015250565b6000610b00602783610957565b9150610b0b82610aa4565b604082019050919050565b60006020820190508181036000830152610b2f81610af3565b9050919050565b7f45737465206d6f646f206e616f207065726d697465206d756c7469706c6f732060008201527f63757261646f7265730000000000000000000000000000000000000000000000602082015250565b6000610b92602983610957565b9150610b9d82610b36565b604082019050919050565b60006020820190508181036000830152610bc181610b85565b9050919050565b7f4573746520656e64657265636f206a61206520756d2063757261646f72000000600082015250565b6000610bfe601d83610957565b9150610c0982610bc8565b602082019050919050565b60006020820190508181036000830152610c2d81610bf1565b9050919050565b7f4f20646f6e6f206a61206520756d2063757261646f7200000000000000000000600082015250565b6000610c6a601683610957565b9150610c7582610c34565b602082019050919050565b60006020820190508181036000830152610c9981610c5d565b9050919050565b7f4e756d65726f206d6178696d6f2064652063757261646f726573206174696e6760008201527f69646f0000000000000000000000000000000000000000000000000000000000602082015250565b6000610cfc602383610957565b9150610d0782610ca0565b604082019050919050565b60006020820190508181036000830152610d2b81610cef565b9050919050565b7f4e487b7100000000000000000000000000000000000000000000000000000000600052601160045260246000fd5b6000610d6c82610767565b91507fffffffffffffffffffffffffffffffffffffffffffffffffffffffffffffffff8203610d9e57610d9d610d32565b5b60018201905091905056fea2646970667358221220270c2b75c740857c64c8f1f5cecc6925d22262840d398f615bba808393c8dfa764736f6c63430008130033",
  "linkReferences": {},
  "deployedLinkReferences": {}
}