{
  "_format": "hh-sol-artifact-1",
  "contractName": "Cofrinho",
  "sourceName": "contracts/Cofrinho.sol",
  "abi": [
    {
      "inputs": [
        {
          "internalType": "string",
          "name": "_nome",
          "type": "string"
        },
        {
          "internalType": "uint256",
          "name": "_meta",
          "type": "uint256"
        },
        {
          "internalType": "enum Cofrinho.Unidade",
          "name": "_unidade",
          "type": "uint8"
        },
        {
          "internalType": "uint256",
          "name": "numeroDeDias",
          "type": "uint256"
        },
        {
          "internalType": "enum Cofrinho.ModoDeHierarquia",
          "name": "_modo",
          "type": "uint8"
        },
        {
          "internalType": "uint256",
          "name": "_numeroDeCuradores",
          "type": "uint256"
        }
      ],
      "stateMutability": "nonpayable",
      "type": "constructor"
    },
    {
      "anonymous": false,
      "inputs": [
        {
          "indexed": false,
          "internalType": "uint256",
          "name": "id",
          "type": "uint256"
        },
        {
          "indexed": false,
          "internalType": "string",
          "name": "descricao",
          "type": "string"
        }
      ],
      "name": "audicaoConcluida",
      "type": "event"
    },
    {
      "anonymous": false,
      "inputs": [
        {
          "indexed": false,
          "internalType": "address",
          "name": "doador",
          "type": "address"
        },
        {
          "indexed": false,
          "internalType": "uint256",
          "name": "valor",
          "type": "uint256"
        }
      ],
      "name": "doacaoRecebida",
      "type": "event"
    },
    {
      "anonymous": false,
      "inputs": [
        {
          "indexed": false,
          "internalType": "uint256",
          "name": "id",
          "type": "uint256"
        },
        {
          "indexed": false,
          "internalType": "string",
          "name": "descricao",
          "type": "string"
        },
        {
          "indexed": false,
          "internalType": "address",
          "name": "autor",
          "type": "address"
        }
      ],
      "name": "sugestaoAdicionada",
      "type": "event"
    },
    {
      "anonymous": false,
      "inputs": [
        {
          "indexed": false,
          "internalType": "address",
          "name": "votante",
          "type": "address"
        },
        {
          "indexed": false,
          "internalType": "uint256",
          "name": "idSugestao",
          "type": "uint256"
        }
      ],
      "name": "votoRecebido",
      "type": "event"
    },
    {
      "inputs": [
        {
          "internalType": "address",
          "name": "_curador",
          "type": "address"
        }
      ],
      "name": "adcionarCurador",
      "outputs": [],
      "stateMutability": "nonpayable",
      "type": "function"
    },
    {
      "inputs": [
        {
          "internalType": "string",
          "name": "_descricao",
          "type": "string"
        },
        {
          "internalType": "address",
          "name": "_endereco",
          "type": "address"
        }
      ],
      "name": "adicionarSugestaoComContrato",
      "outputs": [],
      "stateMutability": "nonpayable",
      "type": "function"
    },
    {
      "inputs": [
        {
          "internalType": "string",
          "name": "_descricao",
          "type": "string"
        }
      ],
      "name": "adicionarSugestaoSemContrato",
      "outputs": [],
      "stateMutability": "nonpayable",
      "type": "function"
    },
    {
      "inputs": [
        {
          "internalType": "uint256",
          "name": "_novosDias",
          "type": "uint256"
        }
      ],
      "name": "alterarDataFim",
      "outputs": [],
      "stateMutability": "nonpayable",
      "type": "function"
    },
    {
      "inputs": [
        {
          "internalType": "uint256",
          "name": "_novaMeta",
          "type": "uint256"
        }
      ],
      "name": "alterarMeta",
      "outputs": [],
      "stateMutability": "nonpayable",
      "type": "function"
    },
    {
      "inputs": [
        {
          "internalType": "enum Cofrinho.ModoDeHierarquia",
          "name": "_novoModo",
          "type": "uint8"
        }
      ],
      "name": "alterarModoHierarquia",
      "outputs": [],
      "stateMutability": "nonpayable",
      "type": "function"
    },
    {
      "inputs": [
        {
          "internalType": "string",
          "name": "_novoNome",
          "type": "string"
        }
      ],
      "name": "alterarNome",
      "outputs": [],
      "stateMutability": "nonpayable",
      "type": "function"
    },
    {
      "inputs": [],
      "name": "auditarVotos",
      "outputs": [],
      "stateMutability": "nonpayable",
      "type": "function"
    },
    {
      "inputs": [
        {
          "internalType": "address",
          "name": "",
          "type": "address"
        }
      ],
      "name": "curadores",
      "outputs": [
        {
          "internalType": "bool",
          "name": "",
          "type": "bool"
        }
      ],
      "stateMutability": "view",
      "type": "function"
    },
    {
      "inputs": [],
      "name": "dataFim",
      "outputs": [
        {
          "internalType": "uint256",
          "name": "",
          "type": "uint256"
        }
      ],
      "stateMutability": "view",
      "type": "function"
    },
    {
      "inputs": [
        {
          "internalType": "address",
          "name": "",
          "type": "address"
        }
      ],
      "name": "doacoes",
      "outputs": [
        {
          "internalType": "uint256",
          "name": "",
          "type": "uint256"
        }
      ],
      "stateMutability": "view",
      "type": "function"
    },
    {
      "inputs": [],
      "name": "doar",
      "outputs": [],
      "stateMutability": "payable",
      "type": "function"
    },
    {
      "inputs": [],
      "name": "iniciarVotacao",
      "outputs": [],
      "stateMutability": "nonpayable",
      "type": "function"
    },
    {
      "inputs": [],
      "name": "iniciarVotacaoRADM",
      "outputs": [],
      "stateMutability": "nonpayable",
      "type": "function"
    },
    {
      "inputs": [
        {
          "internalType": "address",
          "name": "",
          "type": "address"
        }
      ],
      "name": "jaSugeriu",
      "outputs": [
        {
          "internalType": "bool",
          "name": "",
          "type": "bool"
        }
      ],
      "stateMutability": "view",
      "type": "function"
    },
    {
      "inputs": [
        {
          "internalType": "address",
          "name": "",
          "type": "address"
        }
      ],
      "name": "jaVotou",
      "outputs": [
        {
          "internalType": "bool",
          "name": "",
          "type": "bool"
        }
      ],
      "stateMutability": "view",
      "type": "function"
    },
    {
      "inputs": [
        {
          "internalType": "address",
          "name": "",
          "type": "address"
        }
      ],
      "name": "jaVotouRADM",
      "outputs": [
        {
          "internalType": "bool",
          "name": "",
          "type": "bool"
        }
      ],
      "stateMutability": "view",
      "type": "function"
    },
    {
      "inputs": [],
      "name": "meta",
      "outputs": [
        {
          "internalType": "uint256",
          "name": "",
          "type": "uint256"
        }
      ],
      "stateMutability": "view",
      "type": "function"
    },
    {
      "inputs": [],
      "name": "metaAtingida",
      "outputs": [
        {
          "internalType": "bool",
          "name": "",
          "type": "bool"
        }
      ],
      "stateMutability": "view",
      "type": "function"
    },
    {
      "inputs": [],
      "name": "modoDeHierarquia",
      "outputs": [
        {
          "internalType": "enum Cofrinho.ModoDeHierarquia",
          "name": "",
          "type": "uint8"
        }
      ],
      "stateMutability": "view",
      "type": "function"
    },
    {
      "inputs": [],
      "name": "nome",
      "outputs": [
        {
          "internalType": "string",
          "name": "",
          "type": "string"
        }
      ],
      "stateMutability": "view",
      "type": "function"
    },
    {
      "inputs": [],
      "name": "numCuradoresAdd",
      "outputs": [
        {
          "internalType": "uint256",
          "name": "",
          "type": "uint256"
        }
      ],
      "stateMutability": "view",
      "type": "function"
    },
    {
      "inputs": [],
      "name": "numVotosRADM",
      "outputs": [
        {
          "internalType": "uint256",
          "name": "",
          "type": "uint256"
        }
      ],
      "stateMutability": "view",
      "type": "function"
    },
    {
      "inputs": [],
      "name": "numeroDeCuradores",
      "outputs": [
        {
          "internalType": "uint256",
          "name": "",
          "type": "uint256"
        }
      ],
      "stateMutability": "view",
      "type": "function"
    },
    {
      "inputs": [],
      "name": "owner",
      "outputs": [
        {
          "internalType": "address",
          "name": "",
          "type": "address"
        }
      ],
      "stateMutability": "view",
      "type": "function"
    },
    {
      "inputs": [],
      "name": "retiradoAntesDaMeta",
      "outputs": [
        {
          "internalType": "bool",
          "name": "",
          "type": "bool"
        }
      ],
      "stateMutability": "view",
      "type": "function"
    },
    {
      "inputs": [],
      "name": "retirarAntesDaMeta",
      "outputs": [],
      "stateMutability": "nonpayable",
      "type": "function"
    },
    {
      "inputs": [
        {
          "internalType": "uint256",
          "name": "",
          "type": "uint256"
        }
      ],
      "name": "sugestoes",
      "outputs": [
        {
          "internalType": "bool",
          "name": "ehContrato",
          "type": "bool"
        },
        {
          "internalType": "address",
          "name": "endereco",
          "type": "address"
        },
        {
          "internalType": "string",
          "name": "descricao",
          "type": "string"
        },
        {
          "internalType": "address",
          "name": "curador",
          "type": "address"
        },
        {
          "internalType": "uint256",
          "name": "votos",
          "type": "uint256"
        }
      ],
      "stateMutability": "view",
      "type": "function"
    },
    {
      "inputs": [],
      "name": "totalArrecadado",
      "outputs": [
        {
          "internalType": "uint256",
          "name": "",
          "type": "uint256"
        }
      ],
      "stateMutability": "view",
      "type": "function"
    },
    {
      "inputs": [],
      "name": "unidade",
      "outputs": [
        {
          "internalType": "enum Cofrinho.Unidade",
          "name": "",
          "type": "uint8"
        }
      ],
      "stateMutability": "view",
      "type": "function"
    },
    {
      "inputs": [],
      "name": "votacaoIniciada",
      "outputs": [
        {
          "internalType": "bool",
          "name": "",
          "type": "bool"
        }
      ],
      "stateMutability": "view",
      "type": "function"
    },
    {
      "inputs": [],
      "name": "votacaoRADMiniciada",
      "outputs": [
        {
          "internalType": "bool",
          "name": "",
          "type": "bool"
        }
      ],
      "stateMutability": "view",
      "type": "function"
    },
    {
      "inputs": [
        {
          "internalType": "uint256",
          "name": "_idSugestao",
          "type": "uint256"
        }
      ],
      "name": "votar",
      "outputs": [],
      "stateMutability": "nonpayable",
      "type": "function"
    },
    {
      "inputs": [
        {
          "internalType": "bool",
          "name": "_voto",
          "type": "bool"
        }
      ],
      "name": "votarRADM",
      "outputs": [],
      "stateMutability": "nonpayable",
      "type": "function"
    },
    {
      "inputs": [],
      "name": "votosFavoraveisRADM",
      "outputs": [
        {
          "internalType": "uint256",
          "name": "",
          "type": "uint256"
        }
      ],
      "stateMutability": "view",
      "type": "function"
    },
    {
      "inputs": [
        {
          "internalType": "address",
          "name": "",
          "type": "address"
        }
      ],
      "name": "votosRADM",
      "outputs": [
        {
          "internalType": "bool",
          "name": "",
          "type": "bool"
        }
      ],
      "stateMutability": "view",
      "type": "function"
    }
  ],
  "bytecode": "0x608060405260006009553480156200001657600080fd5b5060405162004ef338038062004ef383398181016040528101906200003c9190620006a0565b336000806101000a81548173ffffffffffffffffffffffffffffffffffffffff021916908373ffffffffffffffffffffffffffffffffffffffff1602179055508460018190555085600690816200009491906200099c565b5083600260006101000a81548160ff02191690836002811115620000bd57620000bc62000a83565b5b021790555060006002811115620000d957620000d862000a83565b5b600260009054906101000a900460ff166002811115620000fe57620000fd62000a83565b5b03620001115784600181905550620001d1565b6001600281111562000128576200012762000a83565b5b600260009054906101000a900460ff1660028111156200014d576200014c62000a83565b5b036200017157633b9aca008562000165919062000ae1565b600181905550620001d0565b60028081111562000187576200018662000a83565b5b600260009054906101000a900460ff166002811115620001ac57620001ab62000a83565b5b03620001cf57670de0b6b3a764000085620001c8919062000ae1565b6001819055505b5b5b6201518083620001e2919062000ae1565b42620001ef919062000b2c565b60048190555081600760006101000a81548160ff021916908360028111156200021d576200021c62000a83565b5b021790555060016008819055506001600a60008060009054906101000a900473ffffffffffffffffffffffffffffffffffffffff1673ffffffffffffffffffffffffffffffffffffffff1673ffffffffffffffffffffffffffffffffffffffff16815260200190815260200160002060006101000a81548160ff02191690831515021790555060006002811115620002ba57620002b962000a83565b5b600760009054906101000a900460ff166002811115620002df57620002de62000a83565b5b036200036c5760016008819055506001600a60008060009054906101000a900473ffffffffffffffffffffffffffffffffffffffff1673ffffffffffffffffffffffffffffffffffffffff1673ffffffffffffffffffffffffffffffffffffffff16815260200190815260200160002060006101000a81548160ff02191690831515021790555062000476565b6001600281111562000383576200038262000a83565b5b600760009054906101000a900460ff166002811115620003a857620003a762000a83565b5b03620004755760018111620003f4576040517f08c379a0000000000000000000000000000000000000000000000000000000008152600401620003eb9062000bee565b60405180910390fd5b806008819055506001600a60008060009054906101000a900473ffffffffffffffffffffffffffffffffffffffff1673ffffffffffffffffffffffffffffffffffffffff1673ffffffffffffffffffffffffffffffffffffffff16815260200190815260200160002060006101000a81548160ff0219169083151502179055505b5b50505050505062000c10565b6000604051905090565b600080fd5b600080fd5b600080fd5b600080fd5b6000601f19601f8301169050919050565b7f4e487b7100000000000000000000000000000000000000000000000000000000600052604160045260246000fd5b620004eb82620004a0565b810181811067ffffffffffffffff821117156200050d576200050c620004b1565b5b80604052505050565b60006200052262000482565b9050620005308282620004e0565b919050565b600067ffffffffffffffff821115620005535762000552620004b1565b5b6200055e82620004a0565b9050602081019050919050565b60005b838110156200058b5780820151818401526020810190506200056e565b60008484015250505050565b6000620005ae620005a88462000535565b62000516565b905082815260208101848484011115620005cd57620005cc6200049b565b5b620005da8482856200056b565b509392505050565b600082601f830112620005fa57620005f962000496565b5b81516200060c84826020860162000597565b91505092915050565b6000819050919050565b6200062a8162000615565b81146200063657600080fd5b50565b6000815190506200064a816200061f565b92915050565b600381106200065e57600080fd5b50565b600081519050620006728162000650565b92915050565b600381106200068657600080fd5b50565b6000815190506200069a8162000678565b92915050565b60008060008060008060c08789031215620006c057620006bf6200048c565b5b600087015167ffffffffffffffff811115620006e157620006e062000491565b5b620006ef89828a01620005e2565b96505060206200070289828a0162000639565b95505060406200071589828a0162000661565b94505060606200072889828a0162000639565b93505060806200073b89828a0162000689565b92505060a06200074e89828a0162000639565b9150509295509295509295565b600081519050919050565b7f4e487b7100000000000000000000000000000000000000000000000000000000600052602260045260246000fd5b60006002820490506001821680620007ae57607f821691505b602082108103620007c457620007c362000766565b5b50919050565b60008190508160005260206000209050919050565b60006020601f8301049050919050565b600082821b905092915050565b6000600883026200082e7fffffffffffffffffffffffffffffffffffffffffffffffffffffffffffffffff82620007ef565b6200083a8683620007ef565b95508019841693508086168417925050509392505050565b6000819050919050565b60006200087d62000877620008718462000615565b62000852565b62000615565b9050919050565b6000819050919050565b62000899836200085c565b620008b1620008a88262000884565b848454620007fc565b825550505050565b600090565b620008c8620008b9565b620008d58184846200088e565b505050565b5b81811015620008fd57620008f1600082620008be565b600181019050620008db565b5050565b601f8211156200094c576200091681620007ca565b6200092184620007df565b8101602085101562000931578190505b620009496200094085620007df565b830182620008da565b50505b505050565b600082821c905092915050565b6000620009716000198460080262000951565b1980831691505092915050565b60006200098c83836200095e565b9150826002028217905092915050565b620009a7826200075b565b67ffffffffffffffff811115620009c357620009c2620004b1565b5b620009cf825462000795565b620009dc82828562000901565b600060209050601f83116001811462000a145760008415620009ff578287015190505b62000a0b85826200097e565b86555062000a7b565b601f19841662000a2486620007ca565b60005b8281101562000a4e5784890151825560018201915060208501945060208101905062000a27565b8683101562000a6e578489015162000a6a601f8916826200095e565b8355505b6001600288020188555050505b505050505050565b7f4e487b7100000000000000000000000000000000000000000000000000000000600052602160045260246000fd5b7f4e487b7100000000000000000000000000000000000000000000000000000000600052601160045260246000fd5b600062000aee8262000615565b915062000afb8362000615565b925082820262000b0b8162000615565b9150828204841483151762000b255762000b2462000ab2565b5b5092915050565b600062000b398262000615565b915062000b468362000615565b925082820190508082111562000b615762000b6062000ab2565b5b92915050565b600082825260208201905092915050565b7f4e756d65726f2064652063757261646f726573206465766520736572206d616960008201527f6f7220717565207a65726f000000000000000000000000000000000000000000602082015250565b600062000bd6602b8362000b67565b915062000be38262000b78565b604082019050919050565b6000602082019050818103600083015262000c098162000bc7565b9050919050565b6142d38062000c206000396000f3fe60806040526004361061020e5760003560e01c80636cca4e9a11610118578063b983bdf5116100a0578063e7770ccf1161006f578063e7770ccf1461074f578063ee22ba8114610778578063ef7a6519146107a1578063f0eb6e82146107ca578063f90c6d1d146107f55761020e565b8063b983bdf5146106b7578063c885044e146106e2578063cfe70f511461070d578063e001c4ef146107385761020e565b80637ee11c9d116100e75780637ee11c9d146105ef57806385e656f51461062c5780638da5cb5b14610657578063ab24edd014610682578063b23d88291461068c5761020e565b80636cca4e9a146105475780636e36c8da146105845780636fb29f6e146105af5780637eb5d7e0146105c65761020e565b806328f3b1fe1161019b57806332428f811161016a57806332428f81146104625780633260e7a21461047957806354e520be146104b6578063602cb6be146104e1578063687186621461050a5761020e565b806328f3b1fe146103a45780632b66fedb146103cd5780632deb124b1461040e57806331c10a0b146104395761020e565b806316bb69fd116101e257806316bb69fd146102e35780631d35823d1461030e5780631de1002e14610339578063216068311461036457806322b356791461038d5761020e565b8062dd2325146102135780630444f11f1461023e578063092f8cfb146102695780630c5db638146102a6575b600080fd5b34801561021f57600080fd5b5061022861081e565b604051610235919061291d565b60405180910390f35b34801561024a57600080fd5b50610253610824565b604051610260919061291d565b60405180910390f35b34801561027557600080fd5b50610290600480360381019061028b91906129aa565b61082a565b60405161029d919061291d565b60405180910390f35b3480156102b257600080fd5b506102cd60048036038101906102c891906129aa565b610842565b6040516102da91906129f2565b60405180910390f35b3480156102ef57600080fd5b506102f8610862565b6040516103059190612a84565b60405180910390f35b34801561031a57600080fd5b50610323610875565b604051610330919061291d565b60405180910390f35b34801561034557600080fd5b5061034e61087b565b60405161035b919061291d565b60405180910390f35b34801561037057600080fd5b5061038b60048036038101906103869190612acb565b610881565b005b34801561039957600080fd5b506103a2610c4e565b005b3480156103b057600080fd5b506103cb60048036038101906103c69190612acb565b610da6565b005b3480156103d957600080fd5b506103f460048036038101906103ef9190612acb565b610e81565b604051610405959493929190612b97565b60405180910390f35b34801561041a57600080fd5b50610423610f9c565b6040516104309190612bf1565b60405180910390f35b34801561044557600080fd5b50610460600480360381019061045b9190612c3f565b61102a565b005b34801561046e57600080fd5b506104776112d8565b005b34801561048557600080fd5b506104a0600480360381019061049b91906129aa565b6117a9565b6040516104ad91906129f2565b60405180910390f35b3480156104c257600080fd5b506104cb6117c9565b6040516104d891906129f2565b60405180910390f35b3480156104ed57600080fd5b5061050860048036038101906105039190612da1565b6117dc565b005b34801561051657600080fd5b50610531600480360381019061052c91906129aa565b6118d5565b60405161053e91906129f2565b60405180910390f35b34801561055357600080fd5b5061056e600480360381019061056991906129aa565b6118f5565b60405161057b91906129f2565b60405180910390f35b34801561059057600080fd5b50610599611915565b6040516105a691906129f2565b60405180910390f35b3480156105bb57600080fd5b506105c4611928565b005b3480156105d257600080fd5b506105ed60048036038101906105e89190612dfd565b611aff565b005b3480156105fb57600080fd5b50610616600480360381019061061191906129aa565b611bf7565b60405161062391906129f2565b60405180910390f35b34801561063857600080fd5b50610641611c17565b60405161064e91906129f2565b60405180910390f35b34801561066357600080fd5b5061066c611c2a565b6040516106799190612e46565b60405180910390f35b61068a611c4e565b005b34801561069857600080fd5b506106a1611edc565b6040516106ae919061291d565b60405180910390f35b3480156106c357600080fd5b506106cc611ee2565b6040516106d991906129f2565b60405180910390f35b3480156106ee57600080fd5b506106f7611ef5565b604051610704919061291d565b60405180910390f35b34801561071957600080fd5b50610722611efb565b60405161072f919061291d565b60405180910390f35b34801561074457600080fd5b5061074d611f01565b005b34801561075b57600080fd5b5061077660048036038101906107719190612e86565b612136565b005b34801561078457600080fd5b5061079f600480360381019061079a9190612dfd565b6121f1565b005b3480156107ad57600080fd5b506107c860048036038101906107c391906129aa565b612292565b005b3480156107d657600080fd5b506107df612576565b6040516107ec9190612efb565b60405180910390f35b34801561080157600080fd5b5061081c60048036038101906108179190612acb565b612589565b005b60035481565b60085481565b600c6020528060005260406000206000915090505481565b600a6020528060005260406000206000915054906101000a900460ff1681565b600760009054906101000a900460ff1681565b60105481565b60115481565b60011515600a60003373ffffffffffffffffffffffffffffffffffffffff1673ffffffffffffffffffffffffffffffffffffffff16815260200190815260200160002060009054906101000a900460ff161515148061092b575060008054906101000a900473ffffffffffffffffffffffffffffffffffffffff1673ffffffffffffffffffffffffffffffffffffffff163373ffffffffffffffffffffffffffffffffffffffff16145b61096a576040517f08c379a000000000000000000000000000000000000000000000000000000000815260040161096190612f88565b60405180910390fd5b600560009054906101000a900460ff166109b9576040517f08c379a00000000000000000000000000000000000000000000000000000000081526004016109b090612ff4565b60405180910390fd5b6000600b8054905011610a01576040517f08c379a00000000000000000000000000000000000000000000000000000000081526004016109f890613060565b60405180910390fd5b600d60003373ffffffffffffffffffffffffffffffffffffffff1673ffffffffffffffffffffffffffffffffffffffff16815260200190815260200160002060009054906101000a900460ff1615610a8e576040517f08c379a0000000000000000000000000000000000000000000000000000000008152600401610a85906130cc565b60405180910390fd5b6000600b8281548110610aa457610aa36130ec565b5b906000526020600020906005020190508060040160003373ffffffffffffffffffffffffffffffffffffffff1673ffffffffffffffffffffffffffffffffffffffff16815260200190815260200160002060009054906101000a900460ff1615610b43576040517f08c379a0000000000000000000000000000000000000000000000000000000008152600401610b3a90613167565b60405180910390fd5b6001816003016000828254610b5891906131b6565b9250508190555060018160040160003373ffffffffffffffffffffffffffffffffffffffff1673ffffffffffffffffffffffffffffffffffffffff16815260200190815260200160002060006101000a81548160ff0219169083151502179055506001600d60003373ffffffffffffffffffffffffffffffffffffffff1673ffffffffffffffffffffffffffffffffffffffff16815260200190815260200160002060006101000a81548160ff0219169083151502179055507f3f92be13299954b41820d38ee58049e4753f8eeec966d21ab95d10585ccd4a9d3383604051610c429291906131ea565b60405180910390a15050565b60008054906101000a900473ffffffffffffffffffffffffffffffffffffffff1673ffffffffffffffffffffffffffffffffffffffff163373ffffffffffffffffffffffffffffffffffffffff1614610cdc576040517f08c379a0000000000000000000000000000000000000000000000000000000008152600401610cd390613285565b60405180910390fd5b600560019054906101000a900460ff1615610d2c576040517f08c379a0000000000000000000000000000000000000000000000000000000008152600401610d2390613317565b60405180910390fd5b600560029054906101000a900460ff16158015610d4a575060045442105b610d89576040517f08c379a0000000000000000000000000000000000000000000000000000000008152600401610d80906133a9565b60405180910390fd5b6001600560016101000a81548160ff021916908315150217905550565b60008054906101000a900473ffffffffffffffffffffffffffffffffffffffff1673ffffffffffffffffffffffffffffffffffffffff163373ffffffffffffffffffffffffffffffffffffffff1614610e34576040517f08c379a0000000000000000000000000000000000000000000000000000000008152600401610e2b90613285565b60405180910390fd5b60008111610e77576040517f08c379a0000000000000000000000000000000000000000000000000000000008152600401610e6e90613415565b60405180910390fd5b8060018190555050565b600b8181548110610e9157600080fd5b90600052602060002090600502016000915090508060000160009054906101000a900460ff16908060000160019054906101000a900473ffffffffffffffffffffffffffffffffffffffff1690806001018054610eed90613464565b80601f0160208091040260200160405190810160405280929190818152602001828054610f1990613464565b8015610f665780601f10610f3b57610100808354040283529160200191610f66565b820191906000526020600020905b815481529060010190602001808311610f4957829003601f168201915b5050505050908060020160009054906101000a900473ffffffffffffffffffffffffffffffffffffffff16908060030154905085565b60068054610fa990613464565b80601f0160208091040260200160405190810160405280929190818152602001828054610fd590613464565b80156110225780601f10610ff757610100808354040283529160200191611022565b820191906000526020600020905b81548152906001019060200180831161100557829003601f168201915b505050505081565b60011515600a60003373ffffffffffffffffffffffffffffffffffffffff1673ffffffffffffffffffffffffffffffffffffffff16815260200190815260200160002060009054906101000a900460ff16151514806110d4575060008054906101000a900473ffffffffffffffffffffffffffffffffffffffff1673ffffffffffffffffffffffffffffffffffffffff163373ffffffffffffffffffffffffffffffffffffffff16145b611113576040517f08c379a000000000000000000000000000000000000000000000000000000000815260040161110a90612f88565b60405180910390fd5b600560019054906101000a900460ff16611162576040517f08c379a000000000000000000000000000000000000000000000000000000000815260040161115990613507565b60405180910390fd5b600f60003373ffffffffffffffffffffffffffffffffffffffff1673ffffffffffffffffffffffffffffffffffffffff16815260200190815260200160002060009054906101000a900460ff16156111ef576040517f08c379a00000000000000000000000000000000000000000000000000000000081526004016111e690613599565b60405180910390fd5b80600e60003373ffffffffffffffffffffffffffffffffffffffff1673ffffffffffffffffffffffffffffffffffffffff16815260200190815260200160002060006101000a81548160ff0219169083151502179055506001600f60003373ffffffffffffffffffffffffffffffffffffffff1673ffffffffffffffffffffffffffffffffffffffff16815260200190815260200160002060006101000a81548160ff021916908315150217905550601160008154809291906112b1906135b9565b919050555080156112d557601060008154809291906112cf906135b9565b91905055505b50565b60011515600a60003373ffffffffffffffffffffffffffffffffffffffff1673ffffffffffffffffffffffffffffffffffffffff16815260200190815260200160002060009054906101000a900460ff1615151480611382575060008054906101000a900473ffffffffffffffffffffffffffffffffffffffff1673ffffffffffffffffffffffffffffffffffffffff163373ffffffffffffffffffffffffffffffffffffffff16145b6113c1576040517f08c379a00000000000000000000000000000000000000000000000000000000081526004016113b890612f88565b60405180910390fd5b600560009054906101000a900460ff16611410576040517f08c379a00000000000000000000000000000000000000000000000000000000081526004016114079061364d565b60405180910390fd5b6000805b600b8054905081101561146757600b8181548110611435576114346130ec565b5b9060005260206000209060050201600301548261145291906131b6565b9150808061145f906135b9565b915050611414565b5060016002600854611479919061369c565b61148391906131b6565b8110156114c5576040517f08c379a00000000000000000000000000000000000000000000000000000000081526004016114bc9061373f565b60405180910390fd5b60008060005b600b805490508110156115445781600b82815481106114ed576114ec6130ec565b5b906000526020600020906005020160030154111561153157600b8181548110611519576115186130ec565b5b90600052602060002090600502016003015491508092505b808061153c906135b9565b9150506114cb565b507f42e5a462441b9114139eea16bb727926bb6a77dd0c4c7d3844273d2a83e6ec8782600b848154811061157b5761157a6130ec565b5b906000526020600020906005020160010160405161159a9291906137f8565b60405180910390a1600b82815481106115b6576115b56130ec565b5b906000526020600020906005020160000160009054906101000a900460ff16156116d3576000600b83815481106115f0576115ef6130ec565b5b906000526020600020906005020160000160019054906101000a900473ffffffffffffffffffffffffffffffffffffffff1673ffffffffffffffffffffffffffffffffffffffff1660035460405161164790613859565b60006040518083038185875af1925050503d8060008114611684576040519150601f19603f3d011682016040523d82523d6000602084013e611689565b606091505b50509050806116cd576040517f08c379a00000000000000000000000000000000000000000000000000000000081526004016116c4906138ba565b60405180910390fd5b506117a4565b60008060009054906101000a900473ffffffffffffffffffffffffffffffffffffffff1673ffffffffffffffffffffffffffffffffffffffff1660035460405161171c90613859565b60006040518083038185875af1925050503d8060008114611759576040519150601f19603f3d011682016040523d82523d6000602084013e61175e565b606091505b50509050806117a2576040517f08c379a0000000000000000000000000000000000000000000000000000000008152600401611799906138ba565b60405180910390fd5b505b505050565b600d6020528060005260406000206000915054906101000a900460ff1681565b600560019054906101000a900460ff1681565b60011515600a60003373ffffffffffffffffffffffffffffffffffffffff1673ffffffffffffffffffffffffffffffffffffffff16815260200190815260200160002060009054906101000a900460ff1615151480611886575060008054906101000a900473ffffffffffffffffffffffffffffffffffffffff1673ffffffffffffffffffffffffffffffffffffffff163373ffffffffffffffffffffffffffffffffffffffff16145b6118c5576040517f08c379a00000000000000000000000000000000000000000000000000000000081526004016118bc90612f88565b60405180910390fd5b6118d18260018361267d565b5050565b600f6020528060005260406000206000915054906101000a900460ff1681565b60126020528060005260406000206000915054906101000a900460ff1681565b600560039054906101000a900460ff1681565b60011515600a60003373ffffffffffffffffffffffffffffffffffffffff1673ffffffffffffffffffffffffffffffffffffffff16815260200190815260200160002060009054906101000a900460ff16151514806119d2575060008054906101000a900473ffffffffffffffffffffffffffffffffffffffff1673ffffffffffffffffffffffffffffffffffffffff163373ffffffffffffffffffffffffffffffffffffffff16145b611a11576040517f08c379a0000000000000000000000000000000000000000000000000000000008152600401611a0890612f88565b60405180910390fd5b600560009054906101000a900460ff1615611a61576040517f08c379a0000000000000000000000000000000000000000000000000000000008152600401611a5890613926565b60405180910390fd5b6000600b8054905011611aa9576040517f08c379a0000000000000000000000000000000000000000000000000000000008152600401611aa090613992565b60405180910390fd5b600560029054906101000a900460ff1680611ac5575060045442115b80611adc5750600560039054906101000a900460ff165b15611afd576001600560006101000a81548160ff0219169083151502179055505b565b60011515600a60003373ffffffffffffffffffffffffffffffffffffffff1673ffffffffffffffffffffffffffffffffffffffff16815260200190815260200160002060009054906101000a900460ff1615151480611ba9575060008054906101000a900473ffffffffffffffffffffffffffffffffffffffff1673ffffffffffffffffffffffffffffffffffffffff163373ffffffffffffffffffffffffffffffffffffffff16145b611be8576040517f08c379a0000000000000000000000000000000000000000000000000000000008152600401611bdf90612f88565b60405180910390fd5b611bf48160008061267d565b50565b600e6020528060005260406000206000915054906101000a900460ff1681565b600560029054906101000a900460ff1681565b60008054906101000a900473ffffffffffffffffffffffffffffffffffffffff1681565b60003411611c91576040517f08c379a0000000000000000000000000000000000000000000000000000000008152600401611c88906139fe565b60405180910390fd5b60045442108015611caf5750600560009054906101000a900460ff16155b611cee576040517f08c379a0000000000000000000000000000000000000000000000000000000008152600401611ce590613a6a565b60405180910390fd5b34600c60003373ffffffffffffffffffffffffffffffffffffffff1673ffffffffffffffffffffffffffffffffffffffff1681526020019081526020016000206000828254611d3d91906131b6565b925050819055503460036000828254611d5691906131b6565b92505081905550600280811115611d7057611d6f612a0d565b5b600760009054906101000a900460ff166002811115611d9257611d91612a0d565b5b148015611de95750600a60003373ffffffffffffffffffffffffffffffffffffffff1673ffffffffffffffffffffffffffffffffffffffff16815260200190815260200160002060009054906101000a900460ff16155b15611e5f576001600a60003373ffffffffffffffffffffffffffffffffffffffff1673ffffffffffffffffffffffffffffffffffffffff16815260200190815260200160002060006101000a81548160ff02191690831515021790555060086000815480929190611e59906135b9565b91905055505b7f458808d3c9f01b7679951b11acb044063e54829c96d0d803dfb38372bda45f433334604051611e909291906131ea565b60405180910390a160015460035410158015611eb95750600560029054906101000a900460ff16155b15611eda576001600560026101000a81548160ff0219169083151502179055505b565b60095481565b600560009054906101000a900460ff1681565b60015481565b60045481565b60011515600a60003373ffffffffffffffffffffffffffffffffffffffff1673ffffffffffffffffffffffffffffffffffffffff16815260200190815260200160002060009054906101000a900460ff1615151480611fab575060008054906101000a900473ffffffffffffffffffffffffffffffffffffffff1673ffffffffffffffffffffffffffffffffffffffff163373ffffffffffffffffffffffffffffffffffffffff16145b611fea576040517f08c379a0000000000000000000000000000000000000000000000000000000008152600401611fe190612f88565b60405180910390fd5b600560029054906101000a900460ff16158015612008575060045442105b612047576040517f08c379a000000000000000000000000000000000000000000000000000000000815260040161203e906133a9565b60405180910390fd5b60006003541161208c576040517f08c379a000000000000000000000000000000000000000000000000000000000815260040161208390613ad6565b60405180910390fd5b600854601154146120d2576040517f08c379a00000000000000000000000000000000000000000000000000000000081526004016120c990613b68565b60405180910390fd5b6000600560016101000a81548160ff021916908315150217905550600160026008546120fe919061369c565b61210891906131b6565b60105410612134576001600560036101000a81548160ff021916908315150217905550612133611928565b5b565b60008054906101000a900473ffffffffffffffffffffffffffffffffffffffff1673ffffffffffffffffffffffffffffffffffffffff163373ffffffffffffffffffffffffffffffffffffffff16146121c4576040517f08c379a00000000000000000000000000000000000000000000000000000000081526004016121bb90613285565b60405180910390fd5b80600760006101000a81548160ff021916908360028111156121e9576121e8612a0d565b5b021790555050565b60008054906101000a900473ffffffffffffffffffffffffffffffffffffffff1673ffffffffffffffffffffffffffffffffffffffff163373ffffffffffffffffffffffffffffffffffffffff161461227f576040517f08c379a000000000000000000000000000000000000000000000000000000000815260040161227690613285565b60405180910390fd5b806006908161228e9190613d1f565b5050565b60008054906101000a900473ffffffffffffffffffffffffffffffffffffffff1673ffffffffffffffffffffffffffffffffffffffff163373ffffffffffffffffffffffffffffffffffffffff1614612320576040517f08c379a000000000000000000000000000000000000000000000000000000000815260040161231790613285565b60405180910390fd5b6001600281111561233457612333612a0d565b5b600760009054906101000a900460ff16600281111561235657612355612a0d565b5b14612396576040517f08c379a000000000000000000000000000000000000000000000000000000000815260040161238d90613e63565b60405180910390fd5b600a60008273ffffffffffffffffffffffffffffffffffffffff1673ffffffffffffffffffffffffffffffffffffffff16815260200190815260200160002060009054906101000a900460ff1615612423576040517f08c379a000000000000000000000000000000000000000000000000000000000815260040161241a90613ecf565b60405180910390fd5b60008054906101000a900473ffffffffffffffffffffffffffffffffffffffff1673ffffffffffffffffffffffffffffffffffffffff168173ffffffffffffffffffffffffffffffffffffffff16036124b1576040517f08c379a00000000000000000000000000000000000000000000000000000000081526004016124a890613f3b565b60405180910390fd5b60016008546124c09190613f5b565b60095410612503576040517f08c379a00000000000000000000000000000000000000000000000000000000081526004016124fa90614001565b60405180910390fd5b6001600a60008373ffffffffffffffffffffffffffffffffffffffff1673ffffffffffffffffffffffffffffffffffffffff16815260200190815260200160002060006101000a81548160ff0219169083151502179055506009600081548092919061256e906135b9565b919050555050565b600260009054906101000a900460ff1681565b60008054906101000a900473ffffffffffffffffffffffffffffffffffffffff1673ffffffffffffffffffffffffffffffffffffffff163373ffffffffffffffffffffffffffffffffffffffff1614612617576040517f08c379a000000000000000000000000000000000000000000000000000000000815260040161260e90613285565b60405180910390fd5b6000811161265a576040517f08c379a00000000000000000000000000000000000000000000000000000000081526004016126519061406d565b60405180910390fd5b6201518081612669919061408d565b4261267491906131b6565b60048190555050565b600560009054906101000a900460ff16156126cd576040517f08c379a00000000000000000000000000000000000000000000000000000000081526004016126c490614141565b60405180910390fd5b601260003373ffffffffffffffffffffffffffffffffffffffff1673ffffffffffffffffffffffffffffffffffffffff16815260200190815260200160002060009054906101000a900460ff161561275a576040517f08c379a0000000000000000000000000000000000000000000000000000000008152600401612751906141ad565b60405180910390fd5b81156127d057600073ffffffffffffffffffffffffffffffffffffffff168173ffffffffffffffffffffffffffffffffffffffff16036127cf576040517f08c379a00000000000000000000000000000000000000000000000000000000081526004016127c69061423f565b60405180910390fd5b5b6000600b6001816001815401808255809150500390600052602060002090600502019050828160000160006101000a81548160ff021916908315150217905550818160000160016101000a81548173ffffffffffffffffffffffffffffffffffffffff021916908373ffffffffffffffffffffffffffffffffffffffff160217905550838160010190816128649190613d1f565b50338160020160006101000a81548173ffffffffffffffffffffffffffffffffffffffff021916908373ffffffffffffffffffffffffffffffffffffffff160217905550600081600301819055507f52a6aaae5969a889ee973b787515096876751cee375a912f51fc36496fd1574b6001600b805490506128e59190613f5b565b85336040516128f69392919061425f565b60405180910390a150505050565b6000819050919050565b61291781612904565b82525050565b6000602082019050612932600083018461290e565b92915050565b6000604051905090565b600080fd5b600080fd5b600073ffffffffffffffffffffffffffffffffffffffff82169050919050565b60006129778261294c565b9050919050565b6129878161296c565b811461299257600080fd5b50565b6000813590506129a48161297e565b92915050565b6000602082840312156129c0576129bf612942565b5b60006129ce84828501612995565b91505092915050565b60008115159050919050565b6129ec816129d7565b82525050565b6000602082019050612a0760008301846129e3565b92915050565b7f4e487b7100000000000000000000000000000000000000000000000000000000600052602160045260246000fd5b60038110612a4d57612a4c612a0d565b5b50565b6000819050612a5e82612a3c565b919050565b6000612a6e82612a50565b9050919050565b612a7e81612a63565b82525050565b6000602082019050612a996000830184612a75565b92915050565b612aa881612904565b8114612ab357600080fd5b50565b600081359050612ac581612a9f565b92915050565b600060208284031215612ae157612ae0612942565b5b6000612aef84828501612ab6565b91505092915050565b612b018161296c565b82525050565b600081519050919050565b600082825260208201905092915050565b60005b83811015612b41578082015181840152602081019050612b26565b60008484015250505050565b6000601f19601f8301169050919050565b6000612b6982612b07565b612b738185612b12565b9350612b83818560208601612b23565b612b8c81612b4d565b840191505092915050565b600060a082019050612bac60008301886129e3565b612bb96020830187612af8565b8181036040830152612bcb8186612b5e565b9050612bda6060830185612af8565b612be7608083018461290e565b9695505050505050565b60006020820190508181036000830152612c0b8184612b5e565b905092915050565b612c1c816129d7565b8114612c2757600080fd5b50565b600081359050612c3981612c13565b92915050565b600060208284031215612c5557612c54612942565b5b6000612c6384828501612c2a565b91505092915050565b600080fd5b600080fd5b7f4e487b7100000000000000000000000000000000000000000000000000000000600052604160045260246000fd5b612cae82612b4d565b810181811067ffffffffffffffff82111715612ccd57612ccc612c76565b5b80604052505050565b6000612ce0612938565b9050612cec8282612ca5565b919050565b600067ffffffffffffffff821115612d0c57612d0b612c76565b5b612d1582612b4d565b9050602081019050919050565b82818337600083830152505050565b6000612d44612d3f84612cf1565b612cd6565b905082815260208101848484011115612d6057612d5f612c71565b5b612d6b848285612d22565b509392505050565b600082601f830112612d8857612d87612c6c565b5b8135612d98848260208601612d31565b91505092915050565b60008060408385031215612db857612db7612942565b5b600083013567ffffffffffffffff811115612dd657612dd5612947565b5b612de285828601612d73565b9250506020612df385828601612995565b9150509250929050565b600060208284031215612e1357612e12612942565b5b600082013567ffffffffffffffff811115612e3157612e30612947565b5b612e3d84828501612d73565b91505092915050565b6000602082019050612e5b6000830184612af8565b92915050565b60038110612e6e57600080fd5b50565b600081359050612e8081612e61565b92915050565b600060208284031215612e9c57612e9b612942565b5b6000612eaa84828501612e71565b91505092915050565b60038110612ec457612ec3612a0d565b5b50565b6000819050612ed582612eb3565b919050565b6000612ee582612ec7565b9050919050565b612ef581612eda565b82525050565b6000602082019050612f106000830184612eec565b92915050565b7f4170656e6173206f2063757261646f7220706f6465206578656375746172206560008201527f7374612066756e63616f00000000000000000000000000000000000000000000602082015250565b6000612f72602a83612b12565b9150612f7d82612f16565b604082019050919050565b60006020820190508181036000830152612fa181612f65565b9050919050565b7f566f746163616f206e616f20696e696369616461000000000000000000000000600082015250565b6000612fde601483612b12565b9150612fe982612fa8565b602082019050919050565b6000602082019050818103600083015261300d81612fd1565b9050919050565b7f4e616f206861207375676573746f6573207061726120766f7461720000000000600082015250565b600061304a601b83612b12565b915061305582613014565b602082019050919050565b600060208201905081810360008301526130798161303d565b9050919050565b7f4a6120766f746f75000000000000000000000000000000000000000000000000600082015250565b60006130b6600883612b12565b91506130c182613080565b602082019050919050565b600060208201905081810360008301526130e5816130a9565b9050919050565b7f4e487b7100000000000000000000000000000000000000000000000000000000600052603260045260246000fd5b7f566f6365206a6120766f746f75206e6573746120737567657374616f00000000600082015250565b6000613151601c83612b12565b915061315c8261311b565b602082019050919050565b6000602082019050818103600083015261318081613144565b9050919050565b7f4e487b7100000000000000000000000000000000000000000000000000000000600052601160045260246000fd5b60006131c182612904565b91506131cc83612904565b92508282019050808211156131e4576131e3613187565b5b92915050565b60006040820190506131ff6000830185612af8565b61320c602083018461290e565b9392505050565b7f4170656e6173206f20646f6e6f20706f6465206578656375746172206573746160008201527f2066756e63616f00000000000000000000000000000000000000000000000000602082015250565b600061326f602783612b12565b915061327a82613213565b604082019050919050565b6000602082019050818103600083015261329e81613262565b9050919050565b7f4120766f746163616f2070617261207265746972617220616e7465732064612060008201527f6d657461206a6120666f6920696e696369616461000000000000000000000000602082015250565b6000613301603483612b12565b915061330c826132a5565b604082019050919050565b60006020820190508181036000830152613330816132f4565b9050919050565b7f4e616f20656820706f73736976656c207265746972617220616e74657320646160008201527f206d657461000000000000000000000000000000000000000000000000000000602082015250565b6000613393602583612b12565b915061339e82613337565b604082019050919050565b600060208201905081810360008301526133c281613386565b9050919050565b7f4d657461206465766520736572206d61696f7220717565207a65726f00000000600082015250565b60006133ff601c83612b12565b915061340a826133c9565b602082019050919050565b6000602082019050818103600083015261342e816133f2565b9050919050565b7f4e487b7100000000000000000000000000000000000000000000000000000000600052602260045260246000fd5b6000600282049050600182168061347c57607f821691505b60208210810361348f5761348e613435565b5b50919050565b7f4120766f746163616f2070617261207265746972617220616e7465732064612060008201527f6d657461206e616f20666f6920696e6963696164610000000000000000000000602082015250565b60006134f1603583612b12565b91506134fc82613495565b604082019050919050565b60006020820190508181036000830152613520816134e4565b9050919050565b7f4a6120766f746f752070617261207265746972617220616e746573206461206d60008201527f6574610000000000000000000000000000000000000000000000000000000000602082015250565b6000613583602383612b12565b915061358e82613527565b604082019050919050565b600060208201905081810360008301526135b281613576565b9050919050565b60006135c482612904565b91507fffffffffffffffffffffffffffffffffffffffffffffffffffffffffffffffff82036135f6576135f5613187565b5b600182019050919050565b7f566f746163616f2061696e6461206e616f20696e696369616461000000000000600082015250565b6000613637601a83612b12565b915061364282613601565b602082019050919050565b600060208201905081810360008301526136668161362a565b9050919050565b7f4e487b7100000000000000000000000000000000000000000000000000000000600052601260045260246000fd5b60006136a782612904565b91506136b283612904565b9250826136c2576136c161366d565b5b828204905092915050565b7f4e616f20686120766f746f7320737566696369656e746573207061726120617560008201527f6469746172000000000000000000000000000000000000000000000000000000602082015250565b6000613729602583612b12565b9150613734826136cd565b604082019050919050565b600060208201905081810360008301526137588161371c565b9050919050565b60008190508160005260206000209050919050565b6000815461378181613464565b61378b8186612b12565b945060018216600081146137a657600181146137bc576137ef565b60ff1983168652811515602002860193506137ef565b6137c58561375f565b60005b838110156137e7578154818901526001820191506020810190506137c8565b808801955050505b50505092915050565b600060408201905061380d600083018561290e565b818103602083015261381f8184613774565b90509392505050565b600081905092915050565b50565b6000613843600083613828565b915061384e82613833565b600082019050919050565b600061386482613836565b9150819050919050565b7f5472616e73666572206661696c65640000000000000000000000000000000000600082015250565b60006138a4600f83612b12565b91506138af8261386e565b602082019050919050565b600060208201905081810360008301526138d381613897565b9050919050565b7f566f746163616f206a6120696e69636961646100000000000000000000000000600082015250565b6000613910601383612b12565b915061391b826138da565b602082019050919050565b6000602082019050818103600083015261393f81613903565b9050919050565b7f4e616f206861207375676573746f657320000000000000000000000000000000600082015250565b600061397c601183612b12565b915061398782613946565b602082019050919050565b600060208201905081810360008301526139ab8161396f565b9050919050565b7f4f2076616c6f7220656820696e76616c69646f00000000000000000000000000600082015250565b60006139e8601383612b12565b91506139f3826139b2565b602082019050919050565b60006020820190508181036000830152613a17816139db565b9050919050565b7f506572696f646f20646520646f61636f657320656e6365727261646f00000000600082015250565b6000613a54601c83612b12565b9150613a5f82613a1e565b602082019050919050565b60006020820190508181036000830152613a8381613a47565b9050919050565b7f4e616f206861206f207175652072657469726172000000000000000000000000600082015250565b6000613ac0601483612b12565b9150613acb82613a8a565b602082019050919050565b60006020820190508181036000830152613aef81613ab3565b9050919050565b7f4e656d20746f646f73206f732063757261646f72657320766f746172616d206160008201527f696e646100000000000000000000000000000000000000000000000000000000602082015250565b6000613b52602483612b12565b9150613b5d82613af6565b604082019050919050565b60006020820190508181036000830152613b8181613b45565b9050919050565b60006020601f8301049050919050565b600082821b905092915050565b600060088302613bd57fffffffffffffffffffffffffffffffffffffffffffffffffffffffffffffffff82613b98565b613bdf8683613b98565b95508019841693508086168417925050509392505050565b6000819050919050565b6000613c1c613c17613c1284612904565b613bf7565b612904565b9050919050565b6000819050919050565b613c3683613c01565b613c4a613c4282613c23565b848454613ba5565b825550505050565b600090565b613c5f613c52565b613c6a818484613c2d565b505050565b5b81811015613c8e57613c83600082613c57565b600181019050613c70565b5050565b601f821115613cd357613ca48161375f565b613cad84613b88565b81016020851015613cbc578190505b613cd0613cc885613b88565b830182613c6f565b50505b505050565b600082821c905092915050565b6000613cf660001984600802613cd8565b1980831691505092915050565b6000613d0f8383613ce5565b9150826002028217905092915050565b613d2882612b07565b67ffffffffffffffff811115613d4157613d40612c76565b5b613d4b8254613464565b613d56828285613c92565b600060209050601f831160018114613d895760008415613d77578287015190505b613d818582613d03565b865550613de9565b601f198416613d978661375f565b60005b82811015613dbf57848901518255600182019150602085019450602081019050613d9a565b86831015613ddc5784890151613dd8601f891682613ce5565b8355505b6001600288020188555050505b505050505050565b7f45737465206d6f646f206e616f207065726d697465206d756c7469706c6f732060008201527f63757261646f7265730000000000000000000000000000000000000000000000602082015250565b6000613e4d602983612b12565b9150613e5882613df1565b604082019050919050565b60006020820190508181036000830152613e7c81613e40565b9050919050565b7f4573746520656e64657265636f206a61206520756d2063757261646f72000000600082015250565b6000613eb9601d83612b12565b9150613ec482613e83565b602082019050919050565b60006020820190508181036000830152613ee881613eac565b9050919050565b7f4f20646f6e6f206a61206520756d2063757261646f7200000000000000000000600082015250565b6000613f25601683612b12565b9150613f3082613eef565b602082019050919050565b60006020820190508181036000830152613f5481613f18565b9050919050565b6000613f6682612904565b9150613f7183612904565b9250828203905081811115613f8957613f88613187565b5b92915050565b7f4e756d65726f206d6178696d6f2064652063757261646f726573206174696e6760008201527f69646f0000000000000000000000000000000000000000000000000000000000602082015250565b6000613feb602383612b12565b9150613ff682613f8f565b604082019050919050565b6000602082019050818103600083015261401a81613fde565b9050919050565b7f44696173206465766520736572206d61696f7220717565207a65726f00000000600082015250565b6000614057601c83612b12565b915061406282614021565b602082019050919050565b600060208201905081810360008301526140868161404a565b9050919050565b600061409882612904565b91506140a383612904565b92508282026140b181612904565b915082820484148315176140c8576140c7613187565b5b5092915050565b7f566f746163616f20696e6963696164612c20706572696f646f2064652073756760008201527f6573746f657320656e6365727261646f00000000000000000000000000000000602082015250565b600061412b603083612b12565b9150614136826140cf565b604082019050919050565b6000602082019050818103600083015261415a8161411e565b9050919050565b7f4a61207375676572697500000000000000000000000000000000000000000000600082015250565b6000614197600a83612b12565b91506141a282614161565b602082019050919050565b600060208201905081810360008301526141c68161418a565b9050919050565b7f4f20656e64657265636f20646f20636f6e747261746f206e616f20656820766160008201527f6c69646f00000000000000000000000000000000000000000000000000000000602082015250565b6000614229602483612b12565b9150614234826141cd565b604082019050919050565b600060208201905081810360008301526142588161421c565b9050919050565b6000606082019050614274600083018661290e565b81810360208301526142868185612b5e565b90506142956040830184612af8565b94935050505056fea264697066735822122065a99d44db7d935f52eda577faeb889d8b8bfea2074abc192e8ca7452d81401364736f6c63430008130033",
  "linkReferences": {},
  "deployedLinkReferences": {}
}