{"contracts/Cofrinho.sol":{"Cofrinho":{"abi":[{"inputs":[{"internalType":"uint256","name":"_meta","type":"uint256"},{"internalType":"uint256","name":"numeroDeDias","type":"uint256"},{"internalType":"enum Cofrinho.ModoDeHierarquia","name":"_modo","type":"uint8"},{"internalType":"uint256","name":"_numeroDeCuradores","type":"uint256"}],"stateMutability":"nonpayable","type":"constructor"},{"inputs":[{"internalType":"address","name":"_curador","type":"address"}],"name":"adcionarCurador","outputs":[],"stateMutability":"nonpayable","type":"function"},{"inputs":[{"internalType":"address","name":"","type":"address"}],"name":"curadores","outputs":[{"internalType":"bool","name":"","type":"bool"}],"stateMutability":"view","type":"function"},{"inputs":[],"name":"dataFim","outputs":[{"internalType":"uint256","name":"","type":"uint256"}],"stateMutability":"view","type":"function"},{"inputs":[{"internalType":"address","name":"","type":"address"}],"name":"doacoes","outputs":[{"internalType":"uint256","name":"","type":"uint256"}],"stateMutability":"view","type":"function"},{"inputs":[{"internalType":"address","name":"","type":"address"}],"name":"jaVotou","outputs":[{"internalType":"bool","name":"","type":"bool"}],"stateMutability":"view","type":"function"},{"inputs":[],"name":"meta","outputs":[{"internalType":"uint256","name":"","type":"uint256"}],"stateMutability":"view","type":"function"},{"inputs":[],"name":"metaAtingida","outputs":[{"internalType":"bool","name":"","type":"bool"}],"stateMutability":"view","type":"function"},{"inputs":[],"name":"modoDeHierarquia","outputs":[{"internalType":"enum Cofrinho.ModoDeHierarquia","name":"","type":"uint8"}],"stateMutability":"view","type":"function"},{"inputs":[],"name":"numCuradoresAdd","outputs":[{"internalType":"uint256","name":"","type":"uint256"}],"stateMutability":"view","type":"function"},{"inputs":[],"name":"numeroDeCuradores","outputs":[{"internalType":"uint256","name":"","type":"uint256"}],"stateMutability":"view","type":"function"},{"inputs":[],"name":"owner","outputs":[{"internalType":"address","name":"","type":"address"}],"stateMutability":"view","type":"function"},{"inputs":[{"internalType":"uint256","name":"","type":"uint256"}],"name":"sugestoes","outputs":[{"internalType":"string","name":"descricao","type":"string"},{"internalType":"address","name":"curador","type":"address"},{"internalType":"uint256","name":"votos","type":"uint256"}],"stateMutability":"view","type":"function"},{"inputs":[],"name":"totalArrecadado","outputs":[{"internalType":"uint256","name":"","type":"uint256"}],"stateMutability":"view","type":"function"},{"inputs":[],"name":"votacaoIniciada","outputs":[{"internalType":"bool","name":"","type":"bool"}],"stateMutability":"view","type":"function"}],"evm":{"bytecode":{"linkReferences":{},"object":"608060405260016006553480156200001657600080fd5b506040516200130d3803806200130d83398181016040528101906200003c91906200031f565b336000806101000a81548173ffffffffffffffffffffffffffffffffffffffff021916908373ffffffffffffffffffffffffffffffffffffffff160217905550836001819055506201518083620000949190620003c0565b42620000a191906200040b565b60038190555081600460026101000a81548160ff02191690836002811115620000cf57620000ce62000446565b5b021790555060006002811115620000eb57620000ea62000446565b5b600460029054906101000a900460ff16600281111562000110576200010f62000446565b5b036200019557600160058190555060011515600760008060009054906101000a900473ffffffffffffffffffffffffffffffffffffffff1673ffffffffffffffffffffffffffffffffffffffff1673ffffffffffffffffffffffffffffffffffffffff16815260200190815260200160002060009054906101000a90505050620002ad565b60016002811115620001ac57620001ab62000446565b5b600460029054906101000a900460ff166002811115620001d157620001d062000446565b5b03620002ac57600081116200021d576040517f08c379a00000000000000000000000000000000000000000000000000000000081526004016200021490620004fc565b60405180910390fd5b6001816200022c91906200040b565b6005819055506001600760008060009054906101000a900473ffffffffffffffffffffffffffffffffffffffff1673ffffffffffffffffffffffffffffffffffffffff1673ffffffffffffffffffffffffffffffffffffffff16815260200190815260200160002060006101000a81548160ff0219169083151502179055505b5b505050506200051e565b600080fd5b6000819050919050565b620002d181620002bc565b8114620002dd57600080fd5b50565b600081519050620002f181620002c6565b92915050565b600381106200030557600080fd5b50565b6000815190506200031981620002f7565b92915050565b600080600080608085870312156200033c576200033b620002b7565b5b60006200034c87828801620002e0565b94505060206200035f87828801620002e0565b9350506040620003728782880162000308565b92505060606200038587828801620002e0565b91505092959194509250565b7f4e487b7100000000000000000000000000000000000000000000000000000000600052601160045260246000fd5b6000620003cd82620002bc565b9150620003da83620002bc565b9250828202620003ea81620002bc565b9150828204841483151762000404576200040362000391565b5b5092915050565b60006200041882620002bc565b91506200042583620002bc565b925082820190508082111562000440576200043f62000391565b5b92915050565b7f4e487b7100000000000000000000000000000000000000000000000000000000600052602160045260246000fd5b600082825260208201905092915050565b7f4e756d65726f2064652063757261646f726573206465766520736572206d616960008201527f6f7220717565207a65726f000000000000000000000000000000000000000000602082015250565b6000620004e4602b8362000475565b9150620004f18262000486565b604082019050919050565b600060208201905081810360008301526200051781620004d5565b9050919050565b610ddf806200052e6000396000f3fe608060405234801561001057600080fd5b50600436106100e95760003560e01c806385e656f51161008c578063b983bdf511610066578063b983bdf514610264578063c885044e14610282578063cfe70f51146102a0578063ef7a6519146102be576100e9565b806385e656f51461020a5780638da5cb5b14610228578063b23d882914610246576100e9565b80630c5db638116100c85780630c5db6381461015a57806316bb69fd1461018a5780632b66fedb146101a85780633260e7a2146101da576100e9565b8062dd2325146100ee5780630444f11f1461010c578063092f8cfb1461012a575b600080fd5b6100f66102da565b6040516101039190610780565b60405180910390f35b6101146102e0565b6040516101219190610780565b60405180910390f35b610144600480360381019061013f91906107fe565b6102e6565b6040516101519190610780565b60405180910390f35b610174600480360381019061016f91906107fe565b6102fe565b6040516101819190610846565b60405180910390f35b61019261031e565b60405161019f91906108d8565b60405180910390f35b6101c260048036038101906101bd919061091f565b610331565b6040516101d1939291906109eb565b60405180910390f35b6101f460048036038101906101ef91906107fe565b610413565b6040516102019190610846565b60405180910390f35b610212610433565b60405161021f9190610846565b60405180910390f35b610230610446565b60405161023d9190610a29565b60405180910390f35b61024e61046a565b60405161025b9190610780565b60405180910390f35b61026c610470565b6040516102799190610846565b60405180910390f35b61028a610483565b6040516102979190610780565b60405180910390f35b6102a8610489565b6040516102b59190610780565b60405180910390f35b6102d860048036038101906102d391906107fe565b61048f565b005b60025481565b60055481565b60096020528060005260406000206000915090505481565b60076020528060005260406000206000915054906101000a900460ff1681565b600460029054906101000a900460ff1681565b6008818154811061034157600080fd5b906000526020600020906004020160009150905080600001805461036490610a73565b80601f016020809104026020016040519081016040528092919081815260200182805461039090610a73565b80156103dd5780601f106103b2576101008083540402835291602001916103dd565b820191906000526020600020905b8154815290600101906020018083116103c057829003601f168201915b5050505050908060010160009054906101000a900473ffffffffffffffffffffffffffffffffffffffff16908060020154905083565b600a6020528060005260406000206000915054906101000a900460ff1681565b600460019054906101000a900460ff1681565b60008054906101000a900473ffffffffffffffffffffffffffffffffffffffff1681565b60065481565b600460009054906101000a900460ff1681565b60015481565b60035481565b60008054906101000a900473ffffffffffffffffffffffffffffffffffffffff1673ffffffffffffffffffffffffffffffffffffffff163373ffffffffffffffffffffffffffffffffffffffff161461051d576040517f08c379a000000000000000000000000000000000000000000000000000000000815260040161051490610b16565b60405180910390fd5b6001600281111561053157610530610861565b5b600460029054906101000a900460ff16600281111561055357610552610861565b5b14610593576040517f08c379a000000000000000000000000000000000000000000000000000000000815260040161058a90610ba8565b60405180910390fd5b600760008273ffffffffffffffffffffffffffffffffffffffff1673ffffffffffffffffffffffffffffffffffffffff16815260200190815260200160002060009054906101000a900460ff1615610620576040517f08c379a000000000000000000000000000000000000000000000000000000000815260040161061790610c14565b60405180910390fd5b60008054906101000a900473ffffffffffffffffffffffffffffffffffffffff1673ffffffffffffffffffffffffffffffffffffffff168173ffffffffffffffffffffffffffffffffffffffff16036106ae576040517f08c379a00000000000000000000000000000000000000000000000000000000081526004016106a590610c80565b60405180910390fd5b600554600654106106f4576040517f08c379a00000000000000000000000000000000000000000000000000000000081526004016106eb90610d12565b60405180910390fd5b6001600760008373ffffffffffffffffffffffffffffffffffffffff1673ffffffffffffffffffffffffffffffffffffffff16815260200190815260200160002060006101000a81548160ff0219169083151502179055506006600081548092919061075f90610d61565b919050555050565b6000819050919050565b61077a81610767565b82525050565b60006020820190506107956000830184610771565b92915050565b600080fd5b600073ffffffffffffffffffffffffffffffffffffffff82169050919050565b60006107cb826107a0565b9050919050565b6107db816107c0565b81146107e657600080fd5b50565b6000813590506107f8816107d2565b92915050565b6000602082840312156108145761081361079b565b5b6000610822848285016107e9565b91505092915050565b60008115159050919050565b6108408161082b565b82525050565b600060208201905061085b6000830184610837565b92915050565b7f4e487b7100000000000000000000000000000000000000000000000000000000600052602160045260246000fd5b600381106108a1576108a0610861565b5b50565b60008190506108b282610890565b919050565b60006108c2826108a4565b9050919050565b6108d2816108b7565b82525050565b60006020820190506108ed60008301846108c9565b92915050565b6108fc81610767565b811461090757600080fd5b50565b600081359050610919816108f3565b92915050565b6000602082840312156109355761093461079b565b5b60006109438482850161090a565b91505092915050565b600081519050919050565b600082825260208201905092915050565b60005b8381101561098657808201518184015260208101905061096b565b60008484015250505050565b6000601f19601f8301169050919050565b60006109ae8261094c565b6109b88185610957565b93506109c8818560208601610968565b6109d181610992565b840191505092915050565b6109e5816107c0565b82525050565b60006060820190508181036000830152610a0581866109a3565b9050610a1460208301856109dc565b610a216040830184610771565b949350505050565b6000602082019050610a3e60008301846109dc565b92915050565b7f4e487b7100000000000000000000000000000000000000000000000000000000600052602260045260246000fd5b60006002820490506001821680610a8b57607f821691505b602082108103610a9e57610a9d610a44565b5b50919050565b7f4170656e6173206f20646f6e6f20706f6465206578656375746172206573746160008201527f2066756e63616f00000000000000000000000000000000000000000000000000602082015250565b6000610b00602783610957565b9150610b0b82610aa4565b604082019050919050565b60006020820190508181036000830152610b2f81610af3565b9050919050565b7f45737465206d6f646f206e616f207065726d697465206d756c7469706c6f732060008201527f63757261646f7265730000000000000000000000000000000000000000000000602082015250565b6000610b92602983610957565b9150610b9d82610b36565b604082019050919050565b60006020820190508181036000830152610bc181610b85565b9050919050565b7f4573746520656e64657265636f206a61206520756d2063757261646f72000000600082015250565b6000610bfe601d83610957565b9150610c0982610bc8565b602082019050919050565b60006020820190508181036000830152610c2d81610bf1565b9050919050565b7f4f20646f6e6f206a61206520756d2063757261646f7200000000000000000000600082015250565b6000610c6a601683610957565b9150610c7582610c34565b602082019050919050565b60006020820190508181036000830152610c9981610c5d565b9050919050565b7f4e756d65726f206d6178696d6f2064652063757261646f726573206174696e6760008201527f69646f0000000000000000000000000000000000000000000000000000000000602082015250565b6000610cfc602383610957565b9150610d0782610ca0565b604082019050919050565b60006020820190508181036000830152610d2b81610cef565b9050919050565b7f4e487b7100000000000000000000000000000000000000000000000000000000600052601160045260246000fd5b6000610d6c82610767565b91507fffffffffffffffffffffffffffffffffffffffffffffffffffffffffffffffff8203610d9e57610d9d610d32565b5b60018201905091905056fea2646970667358221220270c2b75c740857c64c8f1f5cecc6925d22262840d398f615bba808393c8dfa764736f6c63430008130033","opcodes":"PUSH1 0x80 PUSH1 0x40 MSTORE PUSH1 0x1 PUSH1 0x6 SSTORE CALLVALUE DUP1 ISZERO PUSH3 0x16 JUMPI PUSH1 0x0 DUP1 REVERT JUMPDEST POP PUSH1 0x40 MLOAD PUSH3 0x130D CODESIZE SUB DUP1 PUSH3 0x130D DUP4 CODECOPY DUP2 DUP2 ADD PUSH1 0x40 MSTORE DUP2 ADD SWAP1 PUSH3 0x3C SWAP2 SWAP1 PUSH3 0x31F JUMP JUMPDEST CALLER PUSH1 0x0 DUP1 PUSH2 0x100 EXP DUP2 SLOAD DUP2 PUSH20 0xFFFFFFFFFFFFFFFFFFFFFFFFFFFFFFFFFFFFFFFF MUL NOT AND SWAP1 DUP4 PUSH20 0xFFFFFFFFFFFFFFFFFFFFFFFFFFFFFFFFFFFFFFFF AND MUL OR SWAP1 SSTORE POP DUP4 PUSH1 0x1 DUP2 SWAP1 SSTORE POP PUSH3 0x15180 DUP4 PUSH3 0x94 SWAP2 SWAP1 PUSH3 0x3C0 JUMP JUMPDEST TIMESTAMP PUSH3 0xA1 SWAP2 SWAP1 PUSH3 0x40B JUMP JUMPDEST PUSH1 0x3 DUP2 SWAP1 SSTORE POP DUP2 PUSH1 0x4 PUSH1 0x2 PUSH2 0x100 EXP DUP2 SLOAD DUP2 PUSH1 0xFF MUL NOT AND SWAP1 DUP4 PUSH1 0x2 DUP2 GT ISZERO PUSH3 0xCF JUMPI PUSH3 0xCE PUSH3 0x446 JUMP JUMPDEST JUMPDEST MUL OR SWAP1 SSTORE POP PUSH1 0x0 PUSH1 0x2 DUP2 GT ISZERO PUSH3 0xEB JUMPI PUSH3 0xEA PUSH3 0x446 JUMP JUMPDEST JUMPDEST PUSH1 0x4 PUSH1 0x2 SWAP1 SLOAD SWAP1 PUSH2 0x100 EXP SWAP1 DIV PUSH1 0xFF AND PUSH1 0x2 DUP2 GT ISZERO PUSH3 0x110 JUMPI PUSH3 0x10F PUSH3 0x446 JUMP JUMPDEST JUMPDEST SUB PUSH3 0x195 JUMPI PUSH1 0x1 PUSH1 0x5 DUP2 SWAP1 SSTORE POP PUSH1 0x1 ISZERO ISZERO PUSH1 0x7 PUSH1 0x0 DUP1 PUSH1 0x0 SWAP1 SLOAD SWAP1 PUSH2 0x100 EXP SWAP1 DIV PUSH20 0xFFFFFFFFFFFFFFFFFFFFFFFFFFFFFFFFFFFFFFFF AND PUSH20 0xFFFFFFFFFFFFFFFFFFFFFFFFFFFFFFFFFFFFFFFF AND PUSH20 0xFFFFFFFFFFFFFFFFFFFFFFFFFFFFFFFFFFFFFFFF AND DUP2 MSTORE PUSH1 0x20 ADD SWAP1 DUP2 MSTORE PUSH1 0x20 ADD PUSH1 0x0 KECCAK256 PUSH1 0x0 SWAP1 SLOAD SWAP1 PUSH2 0x100 EXP SWAP1 POP POP POP PUSH3 0x2AD JUMP JUMPDEST PUSH1 0x1 PUSH1 0x2 DUP2 GT ISZERO PUSH3 0x1AC JUMPI PUSH3 0x1AB PUSH3 0x446 JUMP JUMPDEST JUMPDEST PUSH1 0x4 PUSH1 0x2 SWAP1 SLOAD SWAP1 PUSH2 0x100 EXP SWAP1 DIV PUSH1 0xFF AND PUSH1 0x2 DUP2 GT ISZERO PUSH3 0x1D1 JUMPI PUSH3 0x1D0 PUSH3 0x446 JUMP JUMPDEST JUMPDEST SUB PUSH3 0x2AC JUMPI PUSH1 0x0 DUP2 GT PUSH3 0x21D JUMPI PUSH1 0x40 MLOAD PUSH32 0x8C379A000000000000000000000000000000000000000000000000000000000 DUP2 MSTORE PUSH1 0x4 ADD PUSH3 0x214 SWAP1 PUSH3 0x4FC JUMP JUMPDEST PUSH1 0x40 MLOAD DUP1 SWAP2 SUB SWAP1 REVERT JUMPDEST PUSH1 0x1 DUP2 PUSH3 0x22C SWAP2 SWAP1 PUSH3 0x40B JUMP JUMPDEST PUSH1 0x5 DUP2 SWAP1 SSTORE POP PUSH1 0x1 PUSH1 0x7 PUSH1 0x0 DUP1 PUSH1 0x0 SWAP1 SLOAD SWAP1 PUSH2 0x100 EXP SWAP1 DIV PUSH20 0xFFFFFFFFFFFFFFFFFFFFFFFFFFFFFFFFFFFFFFFF AND PUSH20 0xFFFFFFFFFFFFFFFFFFFFFFFFFFFFFFFFFFFFFFFF AND PUSH20 0xFFFFFFFFFFFFFFFFFFFFFFFFFFFFFFFFFFFFFFFF AND DUP2 MSTORE PUSH1 0x20 ADD SWAP1 DUP2 MSTORE PUSH1 0x20 ADD PUSH1 0x0 KECCAK256 PUSH1 0x0 PUSH2 0x100 EXP DUP2 SLOAD DUP2 PUSH1 0xFF MUL NOT AND SWAP1 DUP4 ISZERO ISZERO MUL OR SWAP1 SSTORE POP JUMPDEST JUMPDEST POP POP POP POP PUSH3 0x51E JUMP JUMPDEST PUSH1 0x0 DUP1 REVERT JUMPDEST PUSH1 0x0 DUP2 SWAP1 POP SWAP2 SWAP1 POP JUMP JUMPDEST PUSH3 0x2D1 DUP2 PUSH3 0x2BC JUMP JUMPDEST DUP2 EQ PUSH3 0x2DD JUMPI PUSH1 0x0 DUP1 REVERT JUMPDEST POP JUMP JUMPDEST PUSH1 0x0 DUP2 MLOAD SWAP1 POP PUSH3 0x2F1 DUP2 PUSH3 0x2C6 JUMP JUMPDEST SWAP3 SWAP2 POP POP JUMP JUMPDEST PUSH1 0x3 DUP2 LT PUSH3 0x305 JUMPI PUSH1 0x0 DUP1 REVERT JUMPDEST POP JUMP JUMPDEST PUSH1 0x0 DUP2 MLOAD SWAP1 POP PUSH3 0x319 DUP2 PUSH3 0x2F7 JUMP JUMPDEST SWAP3 SWAP2 POP POP JUMP JUMPDEST PUSH1 0x0 DUP1 PUSH1 0x0 DUP1 PUSH1 0x80 DUP6 DUP8 SUB SLT ISZERO PUSH3 0x33C JUMPI PUSH3 0x33B PUSH3 0x2B7 JUMP JUMPDEST JUMPDEST PUSH1 0x0 PUSH3 0x34C DUP8 DUP3 DUP9 ADD PUSH3 0x2E0 JUMP JUMPDEST SWAP5 POP POP PUSH1 0x20 PUSH3 0x35F DUP8 DUP3 DUP9 ADD PUSH3 0x2E0 JUMP JUMPDEST SWAP4 POP POP PUSH1 0x40 PUSH3 0x372 DUP8 DUP3 DUP9 ADD PUSH3 0x308 JUMP JUMPDEST SWAP3 POP POP PUSH1 0x60 PUSH3 0x385 DUP8 DUP3 DUP9 ADD PUSH3 0x2E0 JUMP JUMPDEST SWAP2 POP POP SWAP3 SWAP6 SWAP2 SWAP5 POP SWAP3 POP JUMP JUMPDEST PUSH32 0x4E487B7100000000000000000000000000000000000000000000000000000000 PUSH1 0x0 MSTORE PUSH1 0x11 PUSH1 0x4 MSTORE PUSH1 0x24 PUSH1 0x0 REVERT JUMPDEST PUSH1 0x0 PUSH3 0x3CD DUP3 PUSH3 0x2BC JUMP JUMPDEST SWAP2 POP PUSH3 0x3DA DUP4 PUSH3 0x2BC JUMP JUMPDEST SWAP3 POP DUP3 DUP3 MUL PUSH3 0x3EA DUP2 PUSH3 0x2BC JUMP JUMPDEST SWAP2 POP DUP3 DUP3 DIV DUP5 EQ DUP4 ISZERO OR PUSH3 0x404 JUMPI PUSH3 0x403 PUSH3 0x391 JUMP JUMPDEST JUMPDEST POP SWAP3 SWAP2 POP POP JUMP JUMPDEST PUSH1 0x0 PUSH3 0x418 DUP3 PUSH3 0x2BC JUMP JUMPDEST SWAP2 POP PUSH3 0x425 DUP4 PUSH3 0x2BC JUMP JUMPDEST SWAP3 POP DUP3 DUP3 ADD SWAP1 POP DUP1 DUP3 GT ISZERO PUSH3 0x440 JUMPI PUSH3 0x43F PUSH3 0x391 JUMP JUMPDEST JUMPDEST SWAP3 SWAP2 POP POP JUMP JUMPDEST PUSH32 0x4E487B7100000000000000000000000000000000000000000000000000000000 PUSH1 0x0 MSTORE PUSH1 0x21 PUSH1 0x4 MSTORE PUSH1 0x24 PUSH1 0x0 REVERT JUMPDEST PUSH1 0x0 DUP3 DUP3 MSTORE PUSH1 0x20 DUP3 ADD SWAP1 POP SWAP3 SWAP2 POP POP JUMP JUMPDEST PUSH32 0x4E756D65726F2064652063757261646F726573206465766520736572206D6169 PUSH1 0x0 DUP3 ADD MSTORE PUSH32 0x6F7220717565207A65726F000000000000000000000000000000000000000000 PUSH1 0x20 DUP3 ADD MSTORE POP JUMP JUMPDEST PUSH1 0x0 PUSH3 0x4E4 PUSH1 0x2B DUP4 PUSH3 0x475 JUMP JUMPDEST SWAP2 POP PUSH3 0x4F1 DUP3 PUSH3 0x486 JUMP JUMPDEST PUSH1 0x40 DUP3 ADD SWAP1 POP SWAP2 SWAP1 POP JUMP JUMPDEST PUSH1 0x0 PUSH1 0x20 DUP3 ADD SWAP1 POP DUP2 DUP2 SUB PUSH1 0x0 DUP4 ADD MSTORE PUSH3 0x517 DUP2 PUSH3 0x4D5 JUMP JUMPDEST SWAP1 POP SWAP2 SWAP1 POP JUMP JUMPDEST PUSH2 0xDDF DUP1 PUSH3 0x52E PUSH1 0x0 CODECOPY PUSH1 0x0 RETURN INVALID PUSH1 0x80 PUSH1 0x40 MSTORE CALLVALUE DUP1 ISZERO PUSH2 0x10 JUMPI PUSH1 0x0 DUP1 REVERT JUMPDEST POP PUSH1 0x4 CALLDATASIZE LT PUSH2 0xE9 JUMPI PUSH1 0x0 CALLDATALOAD PUSH1 0xE0 SHR DUP1 PUSH4 0x85E656F5 GT PUSH2 0x8C JUMPI DUP1 PUSH4 0xB983BDF5 GT PUSH2 0x66 JUMPI DUP1 PUSH4 0xB983BDF5 EQ PUSH2 0x264 JUMPI DUP1 PUSH4 0xC885044E EQ PUSH2 0x282 JUMPI DUP1 PUSH4 0xCFE70F51 EQ PUSH2 0x2A0 JUMPI DUP1 PUSH4 0xEF7A6519 EQ PUSH2 0x2BE JUMPI PUSH2 0xE9 JUMP JUMPDEST DUP1 PUSH4 0x85E656F5 EQ PUSH2 0x20A JUMPI DUP1 PUSH4 0x8DA5CB5B EQ PUSH2 0x228 JUMPI DUP1 PUSH4 0xB23D8829 EQ PUSH2 0x246 JUMPI PUSH2 0xE9 JUMP JUMPDEST DUP1 PUSH4 0xC5DB638 GT PUSH2 0xC8 JUMPI DUP1 PUSH4 0xC5DB638 EQ PUSH2 0x15A JUMPI DUP1 PUSH4 0x16BB69FD EQ PUSH2 0x18A JUMPI DUP1 PUSH4 0x2B66FEDB EQ PUSH2 0x1A8 JUMPI DUP1 PUSH4 0x3260E7A2 EQ PUSH2 0x1DA JUMPI PUSH2 0xE9 JUMP JUMPDEST DUP1 PUSH3 0xDD2325 EQ PUSH2 0xEE JUMPI DUP1 PUSH4 0x444F11F EQ PUSH2 0x10C JUMPI DUP1 PUSH4 0x92F8CFB EQ PUSH2 0x12A JUMPI JUMPDEST PUSH1 0x0 DUP1 REVERT JUMPDEST PUSH2 0xF6 PUSH2 0x2DA JUMP JUMPDEST PUSH1 0x40 MLOAD PUSH2 0x103 SWAP2 SWAP1 PUSH2 0x780 JUMP JUMPDEST PUSH1 0x40 MLOAD DUP1 SWAP2 SUB SWAP1 RETURN JUMPDEST PUSH2 0x114 PUSH2 0x2E0 JUMP JUMPDEST PUSH1 0x40 MLOAD PUSH2 0x121 SWAP2 SWAP1 PUSH2 0x780 JUMP JUMPDEST PUSH1 0x40 MLOAD DUP1 SWAP2 SUB SWAP1 RETURN JUMPDEST PUSH2 0x144 PUSH1 0x4 DUP1 CALLDATASIZE SUB DUP2 ADD SWAP1 PUSH2 0x13F SWAP2 SWAP1 PUSH2 0x7FE JUMP JUMPDEST PUSH2 0x2E6 JUMP JUMPDEST PUSH1 0x40 MLOAD PUSH2 0x151 SWAP2 SWAP1 PUSH2 0x780 JUMP JUMPDEST PUSH1 0x40 MLOAD DUP1 SWAP2 SUB SWAP1 RETURN JUMPDEST PUSH2 0x174 PUSH1 0x4 DUP1 CALLDATASIZE SUB DUP2 ADD SWAP1 PUSH2 0x16F SWAP2 SWAP1 PUSH2 0x7FE JUMP JUMPDEST PUSH2 0x2FE JUMP JUMPDEST PUSH1 0x40 MLOAD PUSH2 0x181 SWAP2 SWAP1 PUSH2 0x846 JUMP JUMPDEST PUSH1 0x40 MLOAD DUP1 SWAP2 SUB SWAP1 RETURN JUMPDEST PUSH2 0x192 PUSH2 0x31E JUMP JUMPDEST PUSH1 0x40 MLOAD PUSH2 0x19F SWAP2 SWAP1 PUSH2 0x8D8 JUMP JUMPDEST PUSH1 0x40 MLOAD DUP1 SWAP2 SUB SWAP1 RETURN JUMPDEST PUSH2 0x1C2 PUSH1 0x4 DUP1 CALLDATASIZE SUB DUP2 ADD SWAP1 PUSH2 0x1BD SWAP2 SWAP1 PUSH2 0x91F JUMP JUMPDEST PUSH2 0x331 JUMP JUMPDEST PUSH1 0x40 MLOAD PUSH2 0x1D1 SWAP4 SWAP3 SWAP2 SWAP1 PUSH2 0x9EB JUMP JUMPDEST PUSH1 0x40 MLOAD DUP1 SWAP2 SUB SWAP1 RETURN JUMPDEST PUSH2 0x1F4 PUSH1 0x4 DUP1 CALLDATASIZE SUB DUP2 ADD SWAP1 PUSH2 0x1EF SWAP2 SWAP1 PUSH2 0x7FE JUMP JUMPDEST PUSH2 0x413 JUMP JUMPDEST PUSH1 0x40 MLOAD PUSH2 0x201 SWAP2 SWAP1 PUSH2 0x846 JUMP JUMPDEST PUSH1 0x40 MLOAD DUP1 SWAP2 SUB SWAP1 RETURN JUMPDEST PUSH2 0x212 PUSH2 0x433 JUMP JUMPDEST PUSH1 0x40 MLOAD PUSH2 0x21F SWAP2 SWAP1 PUSH2 0x846 JUMP JUMPDEST PUSH1 0x40 MLOAD DUP1 SWAP2 SUB SWAP1 RETURN JUMPDEST PUSH2 0x230 PUSH2 0x446 JUMP JUMPDEST PUSH1 0x40 MLOAD PUSH2 0x23D SWAP2 SWAP1 PUSH2 0xA29 JUMP JUMPDEST PUSH1 0x40 MLOAD DUP1 SWAP2 SUB SWAP1 RETURN JUMPDEST PUSH2 0x24E PUSH2 0x46A JUMP JUMPDEST PUSH1 0x40 MLOAD PUSH2 0x25B SWAP2 SWAP1 PUSH2 0x780 JUMP JUMPDEST PUSH1 0x40 MLOAD DUP1 SWAP2 SUB SWAP1 RETURN JUMPDEST PUSH2 0x26C PUSH2 0x470 JUMP JUMPDEST PUSH1 0x40 MLOAD PUSH2 0x279 SWAP2 SWAP1 PUSH2 0x846 JUMP JUMPDEST PUSH1 0x40 MLOAD DUP1 SWAP2 SUB SWAP1 RETURN JUMPDEST PUSH2 0x28A PUSH2 0x483 JUMP JUMPDEST PUSH1 0x40 MLOAD PUSH2 0x297 SWAP2 SWAP1 PUSH2 0x780 JUMP JUMPDEST PUSH1 0x40 MLOAD DUP1 SWAP2 SUB SWAP1 RETURN JUMPDEST PUSH2 0x2A8 PUSH2 0x489 JUMP JUMPDEST PUSH1 0x40 MLOAD PUSH2 0x2B5 SWAP2 SWAP1 PUSH2 0x780 JUMP JUMPDEST PUSH1 0x40 MLOAD DUP1 SWAP2 SUB SWAP1 RETURN JUMPDEST PUSH2 0x2D8 PUSH1 0x4 DUP1 CALLDATASIZE SUB DUP2 ADD SWAP1 PUSH2 0x2D3 SWAP2 SWAP1 PUSH2 0x7FE JUMP JUMPDEST PUSH2 0x48F JUMP JUMPDEST STOP JUMPDEST PUSH1 0x2 SLOAD DUP2 JUMP JUMPDEST PUSH1 0x5 SLOAD DUP2 JUMP JUMPDEST PUSH1 0x9 PUSH1 0x20 MSTORE DUP1 PUSH1 0x0 MSTORE PUSH1 0x40 PUSH1 0x0 KECCAK256 PUSH1 0x0 SWAP2 POP SWAP1 POP SLOAD DUP2 JUMP JUMPDEST PUSH1 0x7 PUSH1 0x20 MSTORE DUP1 PUSH1 0x0 MSTORE PUSH1 0x40 PUSH1 0x0 KECCAK256 PUSH1 0x0 SWAP2 POP SLOAD SWAP1 PUSH2 0x100 EXP SWAP1 DIV PUSH1 0xFF AND DUP2 JUMP JUMPDEST PUSH1 0x4 PUSH1 0x2 SWAP1 SLOAD SWAP1 PUSH2 0x100 EXP SWAP1 DIV PUSH1 0xFF AND DUP2 JUMP JUMPDEST PUSH1 0x8 DUP2 DUP2 SLOAD DUP2 LT PUSH2 0x341 JUMPI PUSH1 0x0 DUP1 REVERT JUMPDEST SWAP1 PUSH1 0x0 MSTORE PUSH1 0x20 PUSH1 0x0 KECCAK256 SWAP1 PUSH1 0x4 MUL ADD PUSH1 0x0 SWAP2 POP SWAP1 POP DUP1 PUSH1 0x0 ADD DUP1 SLOAD PUSH2 0x364 SWAP1 PUSH2 0xA73 JUMP JUMPDEST DUP1 PUSH1 0x1F ADD PUSH1 0x20 DUP1 SWAP2 DIV MUL PUSH1 0x20 ADD PUSH1 0x40 MLOAD SWAP1 DUP2 ADD PUSH1 0x40 MSTORE DUP1 SWAP3 SWAP2 SWAP1 DUP2 DUP2 MSTORE PUSH1 0x20 ADD DUP3 DUP1 SLOAD PUSH2 0x390 SWAP1 PUSH2 0xA73 JUMP JUMPDEST DUP1 ISZERO PUSH2 0x3DD JUMPI DUP1 PUSH1 0x1F LT PUSH2 0x3B2 JUMPI PUSH2 0x100 DUP1 DUP4 SLOAD DIV MUL DUP4 MSTORE SWAP2 PUSH1 0x20 ADD SWAP2 PUSH2 0x3DD JUMP JUMPDEST DUP3 ADD SWAP2 SWAP1 PUSH1 0x0 MSTORE PUSH1 0x20 PUSH1 0x0 KECCAK256 SWAP1 JUMPDEST DUP2 SLOAD DUP2 MSTORE SWAP1 PUSH1 0x1 ADD SWAP1 PUSH1 0x20 ADD DUP1 DUP4 GT PUSH2 0x3C0 JUMPI DUP3 SWAP1 SUB PUSH1 0x1F AND DUP3 ADD SWAP2 JUMPDEST POP POP POP POP POP SWAP1 DUP1 PUSH1 0x1 ADD PUSH1 0x0 SWAP1 SLOAD SWAP1 PUSH2 0x100 EXP SWAP1 DIV PUSH20 0xFFFFFFFFFFFFFFFFFFFFFFFFFFFFFFFFFFFFFFFF AND SWAP1 DUP1 PUSH1 0x2 ADD SLOAD SWAP1 POP DUP4 JUMP JUMPDEST PUSH1 0xA PUSH1 0x20 MSTORE DUP1 PUSH1 0x0 MSTORE PUSH1 0x40 PUSH1 0x0 KECCAK256 PUSH1 0x0 SWAP2 POP SLOAD SWAP1 PUSH2 0x100 EXP SWAP1 DIV PUSH1 0xFF AND DUP2 JUMP JUMPDEST PUSH1 0x4 PUSH1 0x1 SWAP1 SLOAD SWAP1 PUSH2 0x100 EXP SWAP1 DIV PUSH1 0xFF AND DUP2 JUMP JUMPDEST PUSH1 0x0 DUP1 SLOAD SWAP1 PUSH2 0x100 EXP SWAP1 DIV PUSH20 0xFFFFFFFFFFFFFFFFFFFFFFFFFFFFFFFFFFFFFFFF AND DUP2 JUMP JUMPDEST PUSH1 0x6 SLOAD DUP2 JUMP JUMPDEST PUSH1 0x4 PUSH1 0x0 SWAP1 SLOAD SWAP1 PUSH2 0x100 EXP SWAP1 DIV PUSH1 0xFF AND DUP2 JUMP JUMPDEST PUSH1 0x1 SLOAD DUP2 JUMP JUMPDEST PUSH1 0x3 SLOAD DUP2 JUMP JUMPDEST PUSH1 0x0 DUP1 SLOAD SWAP1 PUSH2 0x100 EXP SWAP1 DIV PUSH20 0xFFFFFFFFFFFFFFFFFFFFFFFFFFFFFFFFFFFFFFFF AND PUSH20 0xFFFFFFFFFFFFFFFFFFFFFFFFFFFFFFFFFFFFFFFF AND CALLER PUSH20 0xFFFFFFFFFFFFFFFFFFFFFFFFFFFFFFFFFFFFFFFF AND EQ PUSH2 0x51D JUMPI PUSH1 0x40 MLOAD PUSH32 0x8C379A000000000000000000000000000000000000000000000000000000000 DUP2 MSTORE PUSH1 0x4 ADD PUSH2 0x514 SWAP1 PUSH2 0xB16 JUMP JUMPDEST PUSH1 0x40 MLOAD DUP1 SWAP2 SUB SWAP1 REVERT JUMPDEST PUSH1 0x1 PUSH1 0x2 DUP2 GT ISZERO PUSH2 0x531 JUMPI PUSH2 0x530 PUSH2 0x861 JUMP JUMPDEST JUMPDEST PUSH1 0x4 PUSH1 0x2 SWAP1 SLOAD SWAP1 PUSH2 0x100 EXP SWAP1 DIV PUSH1 0xFF AND PUSH1 0x2 DUP2 GT ISZERO PUSH2 0x553 JUMPI PUSH2 0x552 PUSH2 0x861 JUMP JUMPDEST JUMPDEST EQ PUSH2 0x593 JUMPI PUSH1 0x40 MLOAD PUSH32 0x8C379A000000000000000000000000000000000000000000000000000000000 DUP2 MSTORE PUSH1 0x4 ADD PUSH2 0x58A SWAP1 PUSH2 0xBA8 JUMP JUMPDEST PUSH1 0x40 MLOAD DUP1 SWAP2 SUB SWAP1 REVERT JUMPDEST PUSH1 0x7 PUSH1 0x0 DUP3 PUSH20 0xFFFFFFFFFFFFFFFFFFFFFFFFFFFFFFFFFFFFFFFF AND PUSH20 0xFFFFFFFFFFFFFFFFFFFFFFFFFFFFFFFFFFFFFFFF AND DUP2 MSTORE PUSH1 0x20 ADD SWAP1 DUP2 MSTORE PUSH1 0x20 ADD PUSH1 0x0 KECCAK256 PUSH1 0x0 SWAP1 SLOAD SWAP1 PUSH2 0x100 EXP SWAP1 DIV PUSH1 0xFF AND ISZERO PUSH2 0x620 JUMPI PUSH1 0x40 MLOAD PUSH32 0x8C379A000000000000000000000000000000000000000000000000000000000 DUP2 MSTORE PUSH1 0x4 ADD PUSH2 0x617 SWAP1 PUSH2 0xC14 JUMP JUMPDEST PUSH1 0x40 MLOAD DUP1 SWAP2 SUB SWAP1 REVERT JUMPDEST PUSH1 0x0 DUP1 SLOAD SWAP1 PUSH2 0x100 EXP SWAP1 DIV PUSH20 0xFFFFFFFFFFFFFFFFFFFFFFFFFFFFFFFFFFFFFFFF AND PUSH20 0xFFFFFFFFFFFFFFFFFFFFFFFFFFFFFFFFFFFFFFFF AND DUP2 PUSH20 0xFFFFFFFFFFFFFFFFFFFFFFFFFFFFFFFFFFFFFFFF AND SUB PUSH2 0x6AE JUMPI PUSH1 0x40 MLOAD PUSH32 0x8C379A000000000000000000000000000000000000000000000000000000000 DUP2 MSTORE PUSH1 0x4 ADD PUSH2 0x6A5 SWAP1 PUSH2 0xC80 JUMP JUMPDEST PUSH1 0x40 MLOAD DUP1 SWAP2 SUB SWAP1 REVERT JUMPDEST PUSH1 0x5 SLOAD PUSH1 0x6 SLOAD LT PUSH2 0x6F4 JUMPI PUSH1 0x40 MLOAD PUSH32 0x8C379A000000000000000000000000000000000000000000000000000000000 DUP2 MSTORE PUSH1 0x4 ADD PUSH2 0x6EB SWAP1 PUSH2 0xD12 JUMP JUMPDEST PUSH1 0x40 MLOAD DUP1 SWAP2 SUB SWAP1 REVERT JUMPDEST PUSH1 0x1 PUSH1 0x7 PUSH1 0x0 DUP4 PUSH20 0xFFFFFFFFFFFFFFFFFFFFFFFFFFFFFFFFFFFFFFFF AND PUSH20 0xFFFFFFFFFFFFFFFFFFFFFFFFFFFFFFFFFFFFFFFF AND DUP2 MSTORE PUSH1 0x20 ADD SWAP1 DUP2 MSTORE PUSH1 0x20 ADD PUSH1 0x0 KECCAK256 PUSH1 0x0 PUSH2 0x100 EXP DUP2 SLOAD DUP2 PUSH1 0xFF MUL NOT AND SWAP1 DUP4 ISZERO ISZERO MUL OR SWAP1 SSTORE POP PUSH1 0x6 PUSH1 0x0 DUP2 SLOAD DUP1 SWAP3 SWAP2 SWAP1 PUSH2 0x75F SWAP1 PUSH2 0xD61 JUMP JUMPDEST SWAP2 SWAP1 POP SSTORE POP POP JUMP JUMPDEST PUSH1 0x0 DUP2 SWAP1 POP SWAP2 SWAP1 POP JUMP JUMPDEST PUSH2 0x77A DUP2 PUSH2 0x767 JUMP JUMPDEST DUP3 MSTORE POP POP JUMP JUMPDEST PUSH1 0x0 PUSH1 0x20 DUP3 ADD SWAP1 POP PUSH2 0x795 PUSH1 0x0 DUP4 ADD DUP5 PUSH2 0x771 JUMP JUMPDEST SWAP3 SWAP2 POP POP JUMP JUMPDEST PUSH1 0x0 DUP1 REVERT JUMPDEST PUSH1 0x0 PUSH20 0xFFFFFFFFFFFFFFFFFFFFFFFFFFFFFFFFFFFFFFFF DUP3 AND SWAP1 POP SWAP2 SWAP1 POP JUMP JUMPDEST PUSH1 0x0 PUSH2 0x7CB DUP3 PUSH2 0x7A0 JUMP JUMPDEST SWAP1 POP SWAP2 SWAP1 POP JUMP JUMPDEST PUSH2 0x7DB DUP2 PUSH2 0x7C0 JUMP JUMPDEST DUP2 EQ PUSH2 0x7E6 JUMPI PUSH1 0x0 DUP1 REVERT JUMPDEST POP JUMP JUMPDEST PUSH1 0x0 DUP2 CALLDATALOAD SWAP1 POP PUSH2 0x7F8 DUP2 PUSH2 0x7D2 JUMP JUMPDEST SWAP3 SWAP2 POP POP JUMP JUMPDEST PUSH1 0x0 PUSH1 0x20 DUP3 DUP5 SUB SLT ISZERO PUSH2 0x814 JUMPI PUSH2 0x813 PUSH2 0x79B JUMP JUMPDEST JUMPDEST PUSH1 0x0 PUSH2 0x822 DUP5 DUP3 DUP6 ADD PUSH2 0x7E9 JUMP JUMPDEST SWAP2 POP POP SWAP3 SWAP2 POP POP JUMP JUMPDEST PUSH1 0x0 DUP2 ISZERO ISZERO SWAP1 POP SWAP2 SWAP1 POP JUMP JUMPDEST PUSH2 0x840 DUP2 PUSH2 0x82B JUMP JUMPDEST DUP3 MSTORE POP POP JUMP JUMPDEST PUSH1 0x0 PUSH1 0x20 DUP3 ADD SWAP1 POP PUSH2 0x85B PUSH1 0x0 DUP4 ADD DUP5 PUSH2 0x837 JUMP JUMPDEST SWAP3 SWAP2 POP POP JUMP JUMPDEST PUSH32 0x4E487B7100000000000000000000000000000000000000000000000000000000 PUSH1 0x0 MSTORE PUSH1 0x21 PUSH1 0x4 MSTORE PUSH1 0x24 PUSH1 0x0 REVERT JUMPDEST PUSH1 0x3 DUP2 LT PUSH2 0x8A1 JUMPI PUSH2 0x8A0 PUSH2 0x861 JUMP JUMPDEST JUMPDEST POP JUMP JUMPDEST PUSH1 0x0 DUP2 SWAP1 POP PUSH2 0x8B2 DUP3 PUSH2 0x890 JUMP JUMPDEST SWAP2 SWAP1 POP JUMP JUMPDEST PUSH1 0x0 PUSH2 0x8C2 DUP3 PUSH2 0x8A4 JUMP JUMPDEST SWAP1 POP SWAP2 SWAP1 POP JUMP JUMPDEST PUSH2 0x8D2 DUP2 PUSH2 0x8B7 JUMP JUMPDEST DUP3 MSTORE POP POP JUMP JUMPDEST PUSH1 0x0 PUSH1 0x20 DUP3 ADD SWAP1 POP PUSH2 0x8ED PUSH1 0x0 DUP4 ADD DUP5 PUSH2 0x8C9 JUMP JUMPDEST SWAP3 SWAP2 POP POP JUMP JUMPDEST PUSH2 0x8FC DUP2 PUSH2 0x767 JUMP JUMPDEST DUP2 EQ PUSH2 0x907 JUMPI PUSH1 0x0 DUP1 REVERT JUMPDEST POP JUMP JUMPDEST PUSH1 0x0 DUP2 CALLDATALOAD SWAP1 POP PUSH2 0x919 DUP2 PUSH2 0x8F3 JUMP JUMPDEST SWAP3 SWAP2 POP POP JUMP JUMPDEST PUSH1 0x0 PUSH1 0x20 DUP3 DUP5 SUB SLT ISZERO PUSH2 0x935 JUMPI PUSH2 0x934 PUSH2 0x79B JUMP JUMPDEST JUMPDEST PUSH1 0x0 PUSH2 0x943 DUP5 DUP3 DUP6 ADD PUSH2 0x90A JUMP JUMPDEST SWAP2 POP POP SWAP3 SWAP2 POP POP JUMP JUMPDEST PUSH1 0x0 DUP2 MLOAD SWAP1 POP SWAP2 SWAP1 POP JUMP JUMPDEST PUSH1 0x0 DUP3 DUP3 MSTORE PUSH1 0x20 DUP3 ADD SWAP1 POP SWAP3 SWAP2 POP POP JUMP JUMPDEST PUSH1 0x0 JUMPDEST DUP4 DUP2 LT ISZERO PUSH2 0x986 JUMPI DUP1 DUP3 ADD MLOAD DUP2 DUP5 ADD MSTORE PUSH1 0x20 DUP2 ADD SWAP1 POP PUSH2 0x96B JUMP JUMPDEST PUSH1 0x0 DUP5 DUP5 ADD MSTORE POP POP POP POP JUMP JUMPDEST PUSH1 0x0 PUSH1 0x1F NOT PUSH1 0x1F DUP4 ADD AND SWAP1 POP SWAP2 SWAP1 POP JUMP JUMPDEST PUSH1 0x0 PUSH2 0x9AE DUP3 PUSH2 0x94C JUMP JUMPDEST PUSH2 0x9B8 DUP2 DUP6 PUSH2 0x957 JUMP JUMPDEST SWAP4 POP PUSH2 0x9C8 DUP2 DUP6 PUSH1 0x20 DUP7 ADD PUSH2 0x968 JUMP JUMPDEST PUSH2 0x9D1 DUP2 PUSH2 0x992 JUMP JUMPDEST DUP5 ADD SWAP2 POP POP SWAP3 SWAP2 POP POP JUMP JUMPDEST PUSH2 0x9E5 DUP2 PUSH2 0x7C0 JUMP JUMPDEST DUP3 MSTORE POP POP JUMP JUMPDEST PUSH1 0x0 PUSH1 0x60 DUP3 ADD SWAP1 POP DUP2 DUP2 SUB PUSH1 0x0 DUP4 ADD MSTORE PUSH2 0xA05 DUP2 DUP7 PUSH2 0x9A3 JUMP JUMPDEST SWAP1 POP PUSH2 0xA14 PUSH1 0x20 DUP4 ADD DUP6 PUSH2 0x9DC JUMP JUMPDEST PUSH2 0xA21 PUSH1 0x40 DUP4 ADD DUP5 PUSH2 0x771 JUMP JUMPDEST SWAP5 SWAP4 POP POP POP POP JUMP JUMPDEST PUSH1 0x0 PUSH1 0x20 DUP3 ADD SWAP1 POP PUSH2 0xA3E PUSH1 0x0 DUP4 ADD DUP5 PUSH2 0x9DC JUMP JUMPDEST SWAP3 SWAP2 POP POP JUMP JUMPDEST PUSH32 0x4E487B7100000000000000000000000000000000000000000000000000000000 PUSH1 0x0 MSTORE PUSH1 0x22 PUSH1 0x4 MSTORE PUSH1 0x24 PUSH1 0x0 REVERT JUMPDEST PUSH1 0x0 PUSH1 0x2 DUP3 DIV SWAP1 POP PUSH1 0x1 DUP3 AND DUP1 PUSH2 0xA8B JUMPI PUSH1 0x7F DUP3 AND SWAP2 POP JUMPDEST PUSH1 0x20 DUP3 LT DUP2 SUB PUSH2 0xA9E JUMPI PUSH2 0xA9D PUSH2 0xA44 JUMP JUMPDEST JUMPDEST POP SWAP2 SWAP1 POP JUMP JUMPDEST PUSH32 0x4170656E6173206F20646F6E6F20706F64652065786563757461722065737461 PUSH1 0x0 DUP3 ADD MSTORE PUSH32 0x2066756E63616F00000000000000000000000000000000000000000000000000 PUSH1 0x20 DUP3 ADD MSTORE POP JUMP JUMPDEST PUSH1 0x0 PUSH2 0xB00 PUSH1 0x27 DUP4 PUSH2 0x957 JUMP JUMPDEST SWAP2 POP PUSH2 0xB0B DUP3 PUSH2 0xAA4 JUMP JUMPDEST PUSH1 0x40 DUP3 ADD SWAP1 POP SWAP2 SWAP1 POP JUMP JUMPDEST PUSH1 0x0 PUSH1 0x20 DUP3 ADD SWAP1 POP DUP2 DUP2 SUB PUSH1 0x0 DUP4 ADD MSTORE PUSH2 0xB2F DUP2 PUSH2 0xAF3 JUMP JUMPDEST SWAP1 POP SWAP2 SWAP1 POP JUMP JUMPDEST PUSH32 0x45737465206D6F646F206E616F207065726D697465206D756C7469706C6F7320 PUSH1 0x0 DUP3 ADD MSTORE PUSH32 0x63757261646F7265730000000000000000000000000000000000000000000000 PUSH1 0x20 DUP3 ADD MSTORE POP JUMP JUMPDEST PUSH1 0x0 PUSH2 0xB92 PUSH1 0x29 DUP4 PUSH2 0x957 JUMP JUMPDEST SWAP2 POP PUSH2 0xB9D DUP3 PUSH2 0xB36 JUMP JUMPDEST PUSH1 0x40 DUP3 ADD SWAP1 POP SWAP2 SWAP1 POP JUMP JUMPDEST PUSH1 0x0 PUSH1 0x20 DUP3 ADD SWAP1 POP DUP2 DUP2 SUB PUSH1 0x0 DUP4 ADD MSTORE PUSH2 0xBC1 DUP2 PUSH2 0xB85 JUMP JUMPDEST SWAP1 POP SWAP2 SWAP1 POP JUMP JUMPDEST PUSH32 0x4573746520656E64657265636F206A61206520756D2063757261646F72000000 PUSH1 0x0 DUP3 ADD MSTORE POP JUMP JUMPDEST PUSH1 0x0 PUSH2 0xBFE PUSH1 0x1D DUP4 PUSH2 0x957 JUMP JUMPDEST SWAP2 POP PUSH2 0xC09 DUP3 PUSH2 0xBC8 JUMP JUMPDEST PUSH1 0x20 DUP3 ADD SWAP1 POP SWAP2 SWAP1 POP JUMP JUMPDEST PUSH1 0x0 PUSH1 0x20 DUP3 ADD SWAP1 POP DUP2 DUP2 SUB PUSH1 0x0 DUP4 ADD MSTORE PUSH2 0xC2D DUP2 PUSH2 0xBF1 JUMP JUMPDEST SWAP1 POP SWAP2 SWAP1 POP JUMP JUMPDEST PUSH32 0x4F20646F6E6F206A61206520756D2063757261646F7200000000000000000000 PUSH1 0x0 DUP3 ADD MSTORE POP JUMP JUMPDEST PUSH1 0x0 PUSH2 0xC6A PUSH1 0x16 DUP4 PUSH2 0x957 JUMP JUMPDEST SWAP2 POP PUSH2 0xC75 DUP3 PUSH2 0xC34 JUMP JUMPDEST PUSH1 0x20 DUP3 ADD SWAP1 POP SWAP2 SWAP1 POP JUMP JUMPDEST PUSH1 0x0 PUSH1 0x20 DUP3 ADD SWAP1 POP DUP2 DUP2 SUB PUSH1 0x0 DUP4 ADD MSTORE PUSH2 0xC99 DUP2 PUSH2 0xC5D JUMP JUMPDEST SWAP1 POP SWAP2 SWAP1 POP JUMP JUMPDEST PUSH32 0x4E756D65726F206D6178696D6F2064652063757261646F726573206174696E67 PUSH1 0x0 DUP3 ADD MSTORE PUSH32 0x69646F0000000000000000000000000000000000000000000000000000000000 PUSH1 0x20 DUP3 ADD MSTORE POP JUMP JUMPDEST PUSH1 0x0 PUSH2 0xCFC PUSH1 0x23 DUP4 PUSH2 0x957 JUMP JUMPDEST SWAP2 POP PUSH2 0xD07 DUP3 PUSH2 0xCA0 JUMP JUMPDEST PUSH1 0x40 DUP3 ADD SWAP1 POP SWAP2 SWAP1 POP JUMP JUMPDEST PUSH1 0x0 PUSH1 0x20 DUP3 ADD SWAP1 POP DUP2 DUP2 SUB PUSH1 0x0 DUP4 ADD MSTORE PUSH2 0xD2B DUP2 PUSH2 0xCEF JUMP JUMPDEST SWAP1 POP SWAP2 SWAP1 POP JUMP JUMPDEST PUSH32 0x4E487B7100000000000000000000000000000000000000000000000000000000 PUSH1 0x0 MSTORE PUSH1 0x11 PUSH1 0x4 MSTORE PUSH1 0x24 PUSH1 0x0 REVERT JUMPDEST PUSH1 0x0 PUSH2 0xD6C DUP3 PUSH2 0x767 JUMP JUMPDEST SWAP2 POP PUSH32 0xFFFFFFFFFFFFFFFFFFFFFFFFFFFFFFFFFFFFFFFFFFFFFFFFFFFFFFFFFFFFFFFF DUP3 SUB PUSH2 0xD9E JUMPI PUSH2 0xD9D PUSH2 0xD32 JUMP JUMPDEST JUMPDEST PUSH1 0x1 DUP3 ADD SWAP1 POP SWAP2 SWAP1 POP JUMP INVALID LOG2 PUSH5 0x6970667358 0x22 SLT KECCAK256 0x27 0xC 0x2B PUSH22 0xC740857C64C8F1F5CECC6925D22262840D398F615BBA DUP1 DUP4 SWAP4 0xC8 0xDF 0xA7 PUSH5 0x736F6C6343 STOP ADDMOD SGT STOP CALLER "},"methodIdentifiers":{"adcionarCurador(address)":"ef7a6519","curadores(address)":"0c5db638","dataFim()":"cfe70f51","doacoes(address)":"092f8cfb","jaVotou(address)":"3260e7a2","meta()":"c885044e","metaAtingida()":"85e656f5","modoDeHierarquia()":"16bb69fd","numCuradoresAdd()":"b23d8829","numeroDeCuradores()":"0444f11f","owner()":"8da5cb5b","sugestoes(uint256)":"2b66fedb","totalArrecadado()":"00dd2325","votacaoIniciada()":"b983bdf5"}}}}}