{"contracts/Cofrinho.sol":{"Cofrinho":{"abi":[{"inputs":[{"internalType":"string","name":"_nome","type":"string"},{"internalType":"uint256","name":"_meta","type":"uint256"},{"internalType":"uint256","name":"numeroDeDias","type":"uint256"},{"internalType":"enum Cofrinho.ModoDeHierarquia","name":"_modo","type":"uint8"},{"internalType":"uint256","name":"_numeroDeCuradores","type":"uint256"}],"stateMutability":"nonpayable","type":"constructor"},{"inputs":[{"internalType":"address","name":"_curador","type":"address"}],"name":"adicionarCurador","outputs":[],"stateMutability":"nonpayable","type":"function"},{"inputs":[{"internalType":"uint256","name":"_novosDias","type":"uint256"}],"name":"alterarDataFim","outputs":[],"stateMutability":"nonpayable","type":"function"},{"inputs":[{"internalType":"uint256","name":"_novaMeta","type":"uint256"}],"name":"alterarMeta","outputs":[],"stateMutability":"nonpayable","type":"function"},{"inputs":[{"internalType":"enum Cofrinho.ModoDeHierarquia","name":"_novoModo","type":"uint8"}],"name":"alterarModoHierarquia","outputs":[],"stateMutability":"nonpayable","type":"function"},{"inputs":[{"internalType":"string","name":"_novoNome","type":"string"}],"name":"alterarNome","outputs":[],"stateMutability":"nonpayable","type":"function"},{"inputs":[{"internalType":"address","name":"","type":"address"}],"name":"curadores","outputs":[{"internalType":"bool","name":"","type":"bool"}],"stateMutability":"view","type":"function"},{"inputs":[],"name":"dataFim","outputs":[{"internalType":"uint256","name":"","type":"uint256"}],"stateMutability":"view","type":"function"},{"inputs":[{"internalType":"address","name":"","type":"address"}],"name":"doacoes","outputs":[{"internalType":"uint256","name":"","type":"uint256"}],"stateMutability":"view","type":"function"},{"inputs":[{"internalType":"address","name":"","type":"address"}],"name":"jaVotou","outputs":[{"internalType":"bool","name":"","type":"bool"}],"stateMutability":"view","type":"function"},{"inputs":[],"name":"meta","outputs":[{"internalType":"uint256","name":"","type":"uint256"}],"stateMutability":"view","type":"function"},{"inputs":[],"name":"metaAtingida","outputs":[{"internalType":"bool","name":"","type":"bool"}],"stateMutability":"view","type":"function"},{"inputs":[],"name":"modoDeHierarquia","outputs":[{"internalType":"enum Cofrinho.ModoDeHierarquia","name":"","type":"uint8"}],"stateMutability":"view","type":"function"},{"inputs":[],"name":"nome","outputs":[{"internalType":"string","name":"","type":"string"}],"stateMutability":"view","type":"function"},{"inputs":[],"name":"numCuradoresAdd","outputs":[{"internalType":"uint256","name":"","type":"uint256"}],"stateMutability":"view","type":"function"},{"inputs":[],"name":"numeroDeCuradores","outputs":[{"internalType":"uint256","name":"","type":"uint256"}],"stateMutability":"view","type":"function"},{"inputs":[],"name":"owner","outputs":[{"internalType":"address","name":"","type":"address"}],"stateMutability":"view","type":"function"},{"inputs":[{"internalType":"uint256","name":"","type":"uint256"}],"name":"sugestoes","outputs":[{"internalType":"string","name":"descricao","type":"string"},{"internalType":"address","name":"curador","type":"address"},{"internalType":"uint256","name":"votos","type":"uint256"}],"stateMutability":"view","type":"function"},{"inputs":[],"name":"totalArrecadado","outputs":[{"internalType":"uint256","name":"","type":"uint256"}],"stateMutability":"view","type":"function"},{"inputs":[],"name":"votacaoIniciada","outputs":[{"internalType":"bool","name":"","type":"bool"}],"stateMutability":"view","type":"function"}],"evm":{"bytecode":{"linkReferences":{},"object":"608060405260016008553480156200001657600080fd5b50604051620023c6380380620023c683398181016040528101906200003c91906200054c565b6000841162000082576040517f08c379a0000000000000000000000000000000000000000000000000000000008152600401620000799062000654565b60405180910390fd5b60008311620000c8576040517f08c379a0000000000000000000000000000000000000000000000000000000008152600401620000bf90620006c6565b60405180910390fd5b8460059081620000d9919062000929565b50336000806101000a81548173ffffffffffffffffffffffffffffffffffffffff021916908373ffffffffffffffffffffffffffffffffffffffff16021790555083600181905550620151808362000132919062000a3f565b426200013f919062000a8a565b60038190555081600660006101000a81548160ff021916908360028111156200016d576200016c62000ac5565b5b02179055506000600281111562000189576200018862000ac5565b5b600660009054906101000a900460ff166002811115620001ae57620001ad62000ac5565b5b036200023357600160078190555060011515600960008060009054906101000a900473ffffffffffffffffffffffffffffffffffffffff1673ffffffffffffffffffffffffffffffffffffffff1673ffffffffffffffffffffffffffffffffffffffff16815260200190815260200160002060009054906101000a905050506200034b565b600160028111156200024a576200024962000ac5565b5b600660009054906101000a900460ff1660028111156200026f576200026e62000ac5565b5b036200034a5760008111620002bb576040517f08c379a0000000000000000000000000000000000000000000000000000000008152600401620002b29062000b6a565b60405180910390fd5b600181620002ca919062000a8a565b6007819055506001600960008060009054906101000a900473ffffffffffffffffffffffffffffffffffffffff1673ffffffffffffffffffffffffffffffffffffffff1673ffffffffffffffffffffffffffffffffffffffff16815260200190815260200160002060006101000a81548160ff0219169083151502179055505b5b505050505062000b8c565b6000604051905090565b600080fd5b600080fd5b600080fd5b600080fd5b6000601f19601f8301169050919050565b7f4e487b7100000000000000000000000000000000000000000000000000000000600052604160045260246000fd5b620003bf8262000374565b810181811067ffffffffffffffff82111715620003e157620003e062000385565b5b80604052505050565b6000620003f662000356565b9050620004048282620003b4565b919050565b600067ffffffffffffffff82111562000427576200042662000385565b5b620004328262000374565b9050602081019050919050565b60005b838110156200045f57808201518184015260208101905062000442565b60008484015250505050565b6000620004826200047c8462000409565b620003ea565b905082815260208101848484011115620004a157620004a06200036f565b5b620004ae8482856200043f565b509392505050565b600082601f830112620004ce57620004cd6200036a565b5b8151620004e08482602086016200046b565b91505092915050565b6000819050919050565b620004fe81620004e9565b81146200050a57600080fd5b50565b6000815190506200051e81620004f3565b92915050565b600381106200053257600080fd5b50565b600081519050620005468162000524565b92915050565b600080600080600060a086880312156200056b576200056a62000360565b5b600086015167ffffffffffffffff8111156200058c576200058b62000365565b5b6200059a88828901620004b6565b9550506020620005ad888289016200050d565b9450506040620005c0888289016200050d565b9350506060620005d38882890162000535565b9250506080620005e6888289016200050d565b9150509295509295909350565b600082825260208201905092915050565b7f4d657461206465766520736572206d61696f7220717565207a65726f00000000600082015250565b60006200063c601c83620005f3565b9150620006498262000604565b602082019050919050565b600060208201905081810360008301526200066f816200062d565b9050919050565b7f5072617a6f206465766520736572206d61696f7220717565207a65726f000000600082015250565b6000620006ae601d83620005f3565b9150620006bb8262000676565b602082019050919050565b60006020820190508181036000830152620006e1816200069f565b9050919050565b600081519050919050565b7f4e487b7100000000000000000000000000000000000000000000000000000000600052602260045260246000fd5b600060028204905060018216806200073b57607f821691505b602082108103620007515762000750620006f3565b5b50919050565b60008190508160005260206000209050919050565b60006020601f8301049050919050565b600082821b905092915050565b600060088302620007bb7fffffffffffffffffffffffffffffffffffffffffffffffffffffffffffffffff826200077c565b620007c786836200077c565b95508019841693508086168417925050509392505050565b6000819050919050565b60006200080a62000804620007fe84620004e9565b620007df565b620004e9565b9050919050565b6000819050919050565b6200082683620007e9565b6200083e620008358262000811565b84845462000789565b825550505050565b600090565b6200085562000846565b620008628184846200081b565b505050565b5b818110156200088a576200087e6000826200084b565b60018101905062000868565b5050565b601f821115620008d957620008a38162000757565b620008ae846200076c565b81016020851015620008be578190505b620008d6620008cd856200076c565b83018262000867565b50505b505050565b600082821c905092915050565b6000620008fe60001984600802620008de565b1980831691505092915050565b6000620009198383620008eb565b9150826002028217905092915050565b6200093482620006e8565b67ffffffffffffffff81111562000950576200094f62000385565b5b6200095c825462000722565b620009698282856200088e565b600060209050601f831160018114620009a157600084156200098c578287015190505b6200099885826200090b565b86555062000a08565b601f198416620009b18662000757565b60005b82811015620009db57848901518255600182019150602085019450602081019050620009b4565b86831015620009fb5784890151620009f7601f891682620008eb565b8355505b6001600288020188555050505b505050505050565b7f4e487b7100000000000000000000000000000000000000000000000000000000600052601160045260246000fd5b600062000a4c82620004e9565b915062000a5983620004e9565b925082820262000a6981620004e9565b9150828204841483151762000a835762000a8262000a10565b5b5092915050565b600062000a9782620004e9565b915062000aa483620004e9565b925082820190508082111562000abf5762000abe62000a10565b5b92915050565b7f4e487b7100000000000000000000000000000000000000000000000000000000600052602160045260246000fd5b7f4e756d65726f2064652063757261646f726573206465766520736572206d616960008201527f6f7220717565207a65726f000000000000000000000000000000000000000000602082015250565b600062000b52602b83620005f3565b915062000b5f8262000af4565b604082019050919050565b6000602082019050818103600083015262000b858162000b43565b9050919050565b61182a8062000b9c6000396000f3fe608060405234801561001057600080fd5b50600436106101205760003560e01c80633260e7a2116100ad578063c885044e11610071578063c885044e1461030f578063cfe70f511461032d578063e7770ccf1461034b578063ee22ba8114610367578063f90c6d1d1461038357610120565b80633260e7a21461026757806385e656f5146102975780638da5cb5b146102b5578063b23d8829146102d3578063b983bdf5146102f157610120565b806316bb69fd116100f457806316bb69fd146101c15780632503c6d8146101df57806328f3b1fe146101fb5780632b66fedb146102175780632deb124b1461024957610120565b8062dd2325146101255780630444f11f14610143578063092f8cfb146101615780630c5db63814610191575b600080fd5b61012d61039f565b60405161013a9190610bfe565b60405180910390f35b61014b6103a5565b6040516101589190610bfe565b60405180910390f35b61017b60048036038101906101769190610c8b565b6103ab565b6040516101889190610bfe565b60405180910390f35b6101ab60048036038101906101a69190610c8b565b6103c3565b6040516101b89190610cd3565b60405180910390f35b6101c96103e3565b6040516101d69190610d65565b60405180910390f35b6101f960048036038101906101f49190610c8b565b6103f6565b005b61021560048036038101906102109190610dac565b6106ce565b005b610231600480360381019061022c9190610dac565b6107a9565b60405161024093929190610e78565b60405180910390f35b61025161088b565b60405161025e9190610eb6565b60405180910390f35b610281600480360381019061027c9190610c8b565b610919565b60405161028e9190610cd3565b60405180910390f35b61029f610939565b6040516102ac9190610cd3565b60405180910390f35b6102bd61094c565b6040516102ca9190610ed8565b60405180910390f35b6102db610970565b6040516102e89190610bfe565b60405180910390f35b6102f9610976565b6040516103069190610cd3565b60405180910390f35b610317610989565b6040516103249190610bfe565b60405180910390f35b61033561098f565b6040516103429190610bfe565b60405180910390f35b61036560048036038101906103609190610f18565b610995565b005b610381600480360381019061037c919061107a565b610a50565b005b61039d60048036038101906103989190610dac565b610af1565b005b60025481565b60075481565b600b6020528060005260406000206000915090505481565b60096020528060005260406000206000915054906101000a900460ff1681565b600660009054906101000a900460ff1681565b60008054906101000a900473ffffffffffffffffffffffffffffffffffffffff1673ffffffffffffffffffffffffffffffffffffffff163373ffffffffffffffffffffffffffffffffffffffff1614610484576040517f08c379a000000000000000000000000000000000000000000000000000000000815260040161047b90611135565b60405180910390fd5b6001600281111561049857610497610cee565b5b600660009054906101000a900460ff1660028111156104ba576104b9610cee565b5b146104fa576040517f08c379a00000000000000000000000000000000000000000000000000000000081526004016104f1906111c7565b60405180910390fd5b600960008273ffffffffffffffffffffffffffffffffffffffff1673ffffffffffffffffffffffffffffffffffffffff16815260200190815260200160002060009054906101000a900460ff1615610587576040517f08c379a000000000000000000000000000000000000000000000000000000000815260040161057e90611233565b60405180910390fd5b60008054906101000a900473ffffffffffffffffffffffffffffffffffffffff1673ffffffffffffffffffffffffffffffffffffffff168173ffffffffffffffffffffffffffffffffffffffff1603610615576040517f08c379a000000000000000000000000000000000000000000000000000000000815260040161060c9061129f565b60405180910390fd5b6007546008541061065b576040517f08c379a000000000000000000000000000000000000000000000000000000000815260040161065290611331565b60405180910390fd5b6001600960008373ffffffffffffffffffffffffffffffffffffffff1673ffffffffffffffffffffffffffffffffffffffff16815260200190815260200160002060006101000a81548160ff021916908315150217905550600860008154809291906106c690611380565b919050555050565b60008054906101000a900473ffffffffffffffffffffffffffffffffffffffff1673ffffffffffffffffffffffffffffffffffffffff163373ffffffffffffffffffffffffffffffffffffffff161461075c576040517f08c379a000000000000000000000000000000000000000000000000000000000815260040161075390611135565b60405180910390fd5b6000811161079f576040517f08c379a000000000000000000000000000000000000000000000000000000000815260040161079690611414565b60405180910390fd5b8060018190555050565b600a81815481106107b957600080fd5b90600052602060002090600402016000915090508060000180546107dc90611463565b80601f016020809104026020016040519081016040528092919081815260200182805461080890611463565b80156108555780601f1061082a57610100808354040283529160200191610855565b820191906000526020600020905b81548152906001019060200180831161083857829003601f168201915b5050505050908060010160009054906101000a900473ffffffffffffffffffffffffffffffffffffffff16908060020154905083565b6005805461089890611463565b80601f01602080910402602001604051908101604052809291908181526020018280546108c490611463565b80156109115780601f106108e657610100808354040283529160200191610911565b820191906000526020600020905b8154815290600101906020018083116108f457829003601f168201915b505050505081565b600c6020528060005260406000206000915054906101000a900460ff1681565b600460019054906101000a900460ff1681565b60008054906101000a900473ffffffffffffffffffffffffffffffffffffffff1681565b60085481565b600460009054906101000a900460ff1681565b60015481565b60035481565b60008054906101000a900473ffffffffffffffffffffffffffffffffffffffff1673ffffffffffffffffffffffffffffffffffffffff163373ffffffffffffffffffffffffffffffffffffffff1614610a23576040517f08c379a0000000000000000000000000000000000000000000000000000000008152600401610a1a90611135565b60405180910390fd5b80600660006101000a81548160ff02191690836002811115610a4857610a47610cee565b5b021790555050565b60008054906101000a900473ffffffffffffffffffffffffffffffffffffffff1673ffffffffffffffffffffffffffffffffffffffff163373ffffffffffffffffffffffffffffffffffffffff1614610ade576040517f08c379a0000000000000000000000000000000000000000000000000000000008152600401610ad590611135565b60405180910390fd5b8060059081610aed9190611640565b5050565b60008054906101000a900473ffffffffffffffffffffffffffffffffffffffff1673ffffffffffffffffffffffffffffffffffffffff163373ffffffffffffffffffffffffffffffffffffffff1614610b7f576040517f08c379a0000000000000000000000000000000000000000000000000000000008152600401610b7690611135565b60405180910390fd5b60008111610bc2576040517f08c379a0000000000000000000000000000000000000000000000000000000008152600401610bb99061175e565b60405180910390fd5b6201518081610bd1919061177e565b42610bdc91906117c0565b60038190555050565b6000819050919050565b610bf881610be5565b82525050565b6000602082019050610c136000830184610bef565b92915050565b6000604051905090565b600080fd5b600080fd5b600073ffffffffffffffffffffffffffffffffffffffff82169050919050565b6000610c5882610c2d565b9050919050565b610c6881610c4d565b8114610c7357600080fd5b50565b600081359050610c8581610c5f565b92915050565b600060208284031215610ca157610ca0610c23565b5b6000610caf84828501610c76565b91505092915050565b60008115159050919050565b610ccd81610cb8565b82525050565b6000602082019050610ce86000830184610cc4565b92915050565b7f4e487b7100000000000000000000000000000000000000000000000000000000600052602160045260246000fd5b60038110610d2e57610d2d610cee565b5b50565b6000819050610d3f82610d1d565b919050565b6000610d4f82610d31565b9050919050565b610d5f81610d44565b82525050565b6000602082019050610d7a6000830184610d56565b92915050565b610d8981610be5565b8114610d9457600080fd5b50565b600081359050610da681610d80565b92915050565b600060208284031215610dc257610dc1610c23565b5b6000610dd084828501610d97565b91505092915050565b600081519050919050565b600082825260208201905092915050565b60005b83811015610e13578082015181840152602081019050610df8565b60008484015250505050565b6000601f19601f8301169050919050565b6000610e3b82610dd9565b610e458185610de4565b9350610e55818560208601610df5565b610e5e81610e1f565b840191505092915050565b610e7281610c4d565b82525050565b60006060820190508181036000830152610e928186610e30565b9050610ea16020830185610e69565b610eae6040830184610bef565b949350505050565b60006020820190508181036000830152610ed08184610e30565b905092915050565b6000602082019050610eed6000830184610e69565b92915050565b60038110610f0057600080fd5b50565b600081359050610f1281610ef3565b92915050565b600060208284031215610f2e57610f2d610c23565b5b6000610f3c84828501610f03565b91505092915050565b600080fd5b600080fd5b7f4e487b7100000000000000000000000000000000000000000000000000000000600052604160045260246000fd5b610f8782610e1f565b810181811067ffffffffffffffff82111715610fa657610fa5610f4f565b5b80604052505050565b6000610fb9610c19565b9050610fc58282610f7e565b919050565b600067ffffffffffffffff821115610fe557610fe4610f4f565b5b610fee82610e1f565b9050602081019050919050565b82818337600083830152505050565b600061101d61101884610fca565b610faf565b90508281526020810184848401111561103957611038610f4a565b5b611044848285610ffb565b509392505050565b600082601f83011261106157611060610f45565b5b813561107184826020860161100a565b91505092915050565b6000602082840312156110905761108f610c23565b5b600082013567ffffffffffffffff8111156110ae576110ad610c28565b5b6110ba8482850161104c565b91505092915050565b7f4170656e6173206f20646f6e6f20706f6465206578656375746172206573746160008201527f2066756e63616f00000000000000000000000000000000000000000000000000602082015250565b600061111f602783610de4565b915061112a826110c3565b604082019050919050565b6000602082019050818103600083015261114e81611112565b9050919050565b7f45737465206d6f646f206e616f207065726d697465206d756c7469706c6f732060008201527f63757261646f7265730000000000000000000000000000000000000000000000602082015250565b60006111b1602983610de4565b91506111bc82611155565b604082019050919050565b600060208201905081810360008301526111e0816111a4565b9050919050565b7f4573746520656e64657265636f206a61206520756d2063757261646f72000000600082015250565b600061121d601d83610de4565b9150611228826111e7565b602082019050919050565b6000602082019050818103600083015261124c81611210565b9050919050565b7f4f20646f6e6f206a61206520756d2063757261646f7200000000000000000000600082015250565b6000611289601683610de4565b915061129482611253565b602082019050919050565b600060208201905081810360008301526112b88161127c565b9050919050565b7f4e756d65726f206d6178696d6f2064652063757261646f726573206174696e6760008201527f69646f0000000000000000000000000000000000000000000000000000000000602082015250565b600061131b602383610de4565b9150611326826112bf565b604082019050919050565b6000602082019050818103600083015261134a8161130e565b9050919050565b7f4e487b7100000000000000000000000000000000000000000000000000000000600052601160045260246000fd5b600061138b82610be5565b91507fffffffffffffffffffffffffffffffffffffffffffffffffffffffffffffffff82036113bd576113bc611351565b5b600182019050919050565b7f4d657461206465766520736572206d61696f7220717565207a65726f00000000600082015250565b60006113fe601c83610de4565b9150611409826113c8565b602082019050919050565b6000602082019050818103600083015261142d816113f1565b9050919050565b7f4e487b7100000000000000000000000000000000000000000000000000000000600052602260045260246000fd5b6000600282049050600182168061147b57607f821691505b60208210810361148e5761148d611434565b5b50919050565b60008190508160005260206000209050919050565b60006020601f8301049050919050565b600082821b905092915050565b6000600883026114f67fffffffffffffffffffffffffffffffffffffffffffffffffffffffffffffffff826114b9565b61150086836114b9565b95508019841693508086168417925050509392505050565b6000819050919050565b600061153d61153861153384610be5565b611518565b610be5565b9050919050565b6000819050919050565b61155783611522565b61156b61156382611544565b8484546114c6565b825550505050565b600090565b611580611573565b61158b81848461154e565b505050565b5b818110156115af576115a4600082611578565b600181019050611591565b5050565b601f8211156115f4576115c581611494565b6115ce846114a9565b810160208510156115dd578190505b6115f16115e9856114a9565b830182611590565b50505b505050565b600082821c905092915050565b6000611617600019846008026115f9565b1980831691505092915050565b60006116308383611606565b9150826002028217905092915050565b61164982610dd9565b67ffffffffffffffff81111561166257611661610f4f565b5b61166c8254611463565b6116778282856115b3565b600060209050601f8311600181146116aa5760008415611698578287015190505b6116a28582611624565b86555061170a565b601f1984166116b886611494565b60005b828110156116e0578489015182556001820191506020850194506020810190506116bb565b868310156116fd57848901516116f9601f891682611606565b8355505b6001600288020188555050505b505050505050565b7f44696173206465766520736572206d61696f7220717565207a65726f00000000600082015250565b6000611748601c83610de4565b915061175382611712565b602082019050919050565b600060208201905081810360008301526117778161173b565b9050919050565b600061178982610be5565b915061179483610be5565b92508282026117a281610be5565b915082820484148315176117b9576117b8611351565b5b5092915050565b60006117cb82610be5565b91506117d683610be5565b92508282019050808211156117ee576117ed611351565b5b9291505056fea26469706673582212206edbc03d1724088daae76feaa7492f5363f4560d209125731eecfb0eef974c2664736f6c63430008130033","opcodes":"PUSH1 0x80 PUSH1 0x40 MSTORE PUSH1 0x1 PUSH1 0x8 SSTORE CALLVALUE DUP1 ISZERO PUSH3 0x16 JUMPI PUSH1 0x0 DUP1 REVERT JUMPDEST POP PUSH1 0x40 MLOAD PUSH3 0x23C6 CODESIZE SUB DUP1 PUSH3 0x23C6 DUP4 CODECOPY DUP2 DUP2 ADD PUSH1 0x40 MSTORE DUP2 ADD SWAP1 PUSH3 0x3C SWAP2 SWAP1 PUSH3 0x54C JUMP JUMPDEST PUSH1 0x0 DUP5 GT PUSH3 0x82 JUMPI PUSH1 0x40 MLOAD PUSH32 0x8C379A000000000000000000000000000000000000000000000000000000000 DUP2 MSTORE PUSH1 0x4 ADD PUSH3 0x79 SWAP1 PUSH3 0x654 JUMP JUMPDEST PUSH1 0x40 MLOAD DUP1 SWAP2 SUB SWAP1 REVERT JUMPDEST PUSH1 0x0 DUP4 GT PUSH3 0xC8 JUMPI PUSH1 0x40 MLOAD PUSH32 0x8C379A000000000000000000000000000000000000000000000000000000000 DUP2 MSTORE PUSH1 0x4 ADD PUSH3 0xBF SWAP1 PUSH3 0x6C6 JUMP JUMPDEST PUSH1 0x40 MLOAD DUP1 SWAP2 SUB SWAP1 REVERT JUMPDEST DUP5 PUSH1 0x5 SWAP1 DUP2 PUSH3 0xD9 SWAP2 SWAP1 PUSH3 0x929 JUMP JUMPDEST POP CALLER PUSH1 0x0 DUP1 PUSH2 0x100 EXP DUP2 SLOAD DUP2 PUSH20 0xFFFFFFFFFFFFFFFFFFFFFFFFFFFFFFFFFFFFFFFF MUL NOT AND SWAP1 DUP4 PUSH20 0xFFFFFFFFFFFFFFFFFFFFFFFFFFFFFFFFFFFFFFFF AND MUL OR SWAP1 SSTORE POP DUP4 PUSH1 0x1 DUP2 SWAP1 SSTORE POP PUSH3 0x15180 DUP4 PUSH3 0x132 SWAP2 SWAP1 PUSH3 0xA3F JUMP JUMPDEST TIMESTAMP PUSH3 0x13F SWAP2 SWAP1 PUSH3 0xA8A JUMP JUMPDEST PUSH1 0x3 DUP2 SWAP1 SSTORE POP DUP2 PUSH1 0x6 PUSH1 0x0 PUSH2 0x100 EXP DUP2 SLOAD DUP2 PUSH1 0xFF MUL NOT AND SWAP1 DUP4 PUSH1 0x2 DUP2 GT ISZERO PUSH3 0x16D JUMPI PUSH3 0x16C PUSH3 0xAC5 JUMP JUMPDEST JUMPDEST MUL OR SWAP1 SSTORE POP PUSH1 0x0 PUSH1 0x2 DUP2 GT ISZERO PUSH3 0x189 JUMPI PUSH3 0x188 PUSH3 0xAC5 JUMP JUMPDEST JUMPDEST PUSH1 0x6 PUSH1 0x0 SWAP1 SLOAD SWAP1 PUSH2 0x100 EXP SWAP1 DIV PUSH1 0xFF AND PUSH1 0x2 DUP2 GT ISZERO PUSH3 0x1AE JUMPI PUSH3 0x1AD PUSH3 0xAC5 JUMP JUMPDEST JUMPDEST SUB PUSH3 0x233 JUMPI PUSH1 0x1 PUSH1 0x7 DUP2 SWAP1 SSTORE POP PUSH1 0x1 ISZERO ISZERO PUSH1 0x9 PUSH1 0x0 DUP1 PUSH1 0x0 SWAP1 SLOAD SWAP1 PUSH2 0x100 EXP SWAP1 DIV PUSH20 0xFFFFFFFFFFFFFFFFFFFFFFFFFFFFFFFFFFFFFFFF AND PUSH20 0xFFFFFFFFFFFFFFFFFFFFFFFFFFFFFFFFFFFFFFFF AND PUSH20 0xFFFFFFFFFFFFFFFFFFFFFFFFFFFFFFFFFFFFFFFF AND DUP2 MSTORE PUSH1 0x20 ADD SWAP1 DUP2 MSTORE PUSH1 0x20 ADD PUSH1 0x0 KECCAK256 PUSH1 0x0 SWAP1 SLOAD SWAP1 PUSH2 0x100 EXP SWAP1 POP POP POP PUSH3 0x34B JUMP JUMPDEST PUSH1 0x1 PUSH1 0x2 DUP2 GT ISZERO PUSH3 0x24A JUMPI PUSH3 0x249 PUSH3 0xAC5 JUMP JUMPDEST JUMPDEST PUSH1 0x6 PUSH1 0x0 SWAP1 SLOAD SWAP1 PUSH2 0x100 EXP SWAP1 DIV PUSH1 0xFF AND PUSH1 0x2 DUP2 GT ISZERO PUSH3 0x26F JUMPI PUSH3 0x26E PUSH3 0xAC5 JUMP JUMPDEST JUMPDEST SUB PUSH3 0x34A JUMPI PUSH1 0x0 DUP2 GT PUSH3 0x2BB JUMPI PUSH1 0x40 MLOAD PUSH32 0x8C379A000000000000000000000000000000000000000000000000000000000 DUP2 MSTORE PUSH1 0x4 ADD PUSH3 0x2B2 SWAP1 PUSH3 0xB6A JUMP JUMPDEST PUSH1 0x40 MLOAD DUP1 SWAP2 SUB SWAP1 REVERT JUMPDEST PUSH1 0x1 DUP2 PUSH3 0x2CA SWAP2 SWAP1 PUSH3 0xA8A JUMP JUMPDEST PUSH1 0x7 DUP2 SWAP1 SSTORE POP PUSH1 0x1 PUSH1 0x9 PUSH1 0x0 DUP1 PUSH1 0x0 SWAP1 SLOAD SWAP1 PUSH2 0x100 EXP SWAP1 DIV PUSH20 0xFFFFFFFFFFFFFFFFFFFFFFFFFFFFFFFFFFFFFFFF AND PUSH20 0xFFFFFFFFFFFFFFFFFFFFFFFFFFFFFFFFFFFFFFFF AND PUSH20 0xFFFFFFFFFFFFFFFFFFFFFFFFFFFFFFFFFFFFFFFF AND DUP2 MSTORE PUSH1 0x20 ADD SWAP1 DUP2 MSTORE PUSH1 0x20 ADD PUSH1 0x0 KECCAK256 PUSH1 0x0 PUSH2 0x100 EXP DUP2 SLOAD DUP2 PUSH1 0xFF MUL NOT AND SWAP1 DUP4 ISZERO ISZERO MUL OR SWAP1 SSTORE POP JUMPDEST JUMPDEST POP POP POP POP POP PUSH3 0xB8C JUMP JUMPDEST PUSH1 0x0 PUSH1 0x40 MLOAD SWAP1 POP SWAP1 JUMP JUMPDEST PUSH1 0x0 DUP1 REVERT JUMPDEST PUSH1 0x0 DUP1 REVERT JUMPDEST PUSH1 0x0 DUP1 REVERT JUMPDEST PUSH1 0x0 DUP1 REVERT JUMPDEST PUSH1 0x0 PUSH1 0x1F NOT PUSH1 0x1F DUP4 ADD AND SWAP1 POP SWAP2 SWAP1 POP JUMP JUMPDEST PUSH32 0x4E487B7100000000000000000000000000000000000000000000000000000000 PUSH1 0x0 MSTORE PUSH1 0x41 PUSH1 0x4 MSTORE PUSH1 0x24 PUSH1 0x0 REVERT JUMPDEST PUSH3 0x3BF DUP3 PUSH3 0x374 JUMP JUMPDEST DUP2 ADD DUP2 DUP2 LT PUSH8 0xFFFFFFFFFFFFFFFF DUP3 GT OR ISZERO PUSH3 0x3E1 JUMPI PUSH3 0x3E0 PUSH3 0x385 JUMP JUMPDEST JUMPDEST DUP1 PUSH1 0x40 MSTORE POP POP POP JUMP JUMPDEST PUSH1 0x0 PUSH3 0x3F6 PUSH3 0x356 JUMP JUMPDEST SWAP1 POP PUSH3 0x404 DUP3 DUP3 PUSH3 0x3B4 JUMP JUMPDEST SWAP2 SWAP1 POP JUMP JUMPDEST PUSH1 0x0 PUSH8 0xFFFFFFFFFFFFFFFF DUP3 GT ISZERO PUSH3 0x427 JUMPI PUSH3 0x426 PUSH3 0x385 JUMP JUMPDEST JUMPDEST PUSH3 0x432 DUP3 PUSH3 0x374 JUMP JUMPDEST SWAP1 POP PUSH1 0x20 DUP2 ADD SWAP1 POP SWAP2 SWAP1 POP JUMP JUMPDEST PUSH1 0x0 JUMPDEST DUP4 DUP2 LT ISZERO PUSH3 0x45F JUMPI DUP1 DUP3 ADD MLOAD DUP2 DUP5 ADD MSTORE PUSH1 0x20 DUP2 ADD SWAP1 POP PUSH3 0x442 JUMP JUMPDEST PUSH1 0x0 DUP5 DUP5 ADD MSTORE POP POP POP POP JUMP JUMPDEST PUSH1 0x0 PUSH3 0x482 PUSH3 0x47C DUP5 PUSH3 0x409 JUMP JUMPDEST PUSH3 0x3EA JUMP JUMPDEST SWAP1 POP DUP3 DUP2 MSTORE PUSH1 0x20 DUP2 ADD DUP5 DUP5 DUP5 ADD GT ISZERO PUSH3 0x4A1 JUMPI PUSH3 0x4A0 PUSH3 0x36F JUMP JUMPDEST JUMPDEST PUSH3 0x4AE DUP5 DUP3 DUP6 PUSH3 0x43F JUMP JUMPDEST POP SWAP4 SWAP3 POP POP POP JUMP JUMPDEST PUSH1 0x0 DUP3 PUSH1 0x1F DUP4 ADD SLT PUSH3 0x4CE JUMPI PUSH3 0x4CD PUSH3 0x36A JUMP JUMPDEST JUMPDEST DUP2 MLOAD PUSH3 0x4E0 DUP5 DUP3 PUSH1 0x20 DUP7 ADD PUSH3 0x46B JUMP JUMPDEST SWAP2 POP POP SWAP3 SWAP2 POP POP JUMP JUMPDEST PUSH1 0x0 DUP2 SWAP1 POP SWAP2 SWAP1 POP JUMP JUMPDEST PUSH3 0x4FE DUP2 PUSH3 0x4E9 JUMP JUMPDEST DUP2 EQ PUSH3 0x50A JUMPI PUSH1 0x0 DUP1 REVERT JUMPDEST POP JUMP JUMPDEST PUSH1 0x0 DUP2 MLOAD SWAP1 POP PUSH3 0x51E DUP2 PUSH3 0x4F3 JUMP JUMPDEST SWAP3 SWAP2 POP POP JUMP JUMPDEST PUSH1 0x3 DUP2 LT PUSH3 0x532 JUMPI PUSH1 0x0 DUP1 REVERT JUMPDEST POP JUMP JUMPDEST PUSH1 0x0 DUP2 MLOAD SWAP1 POP PUSH3 0x546 DUP2 PUSH3 0x524 JUMP JUMPDEST SWAP3 SWAP2 POP POP JUMP JUMPDEST PUSH1 0x0 DUP1 PUSH1 0x0 DUP1 PUSH1 0x0 PUSH1 0xA0 DUP7 DUP9 SUB SLT ISZERO PUSH3 0x56B JUMPI PUSH3 0x56A PUSH3 0x360 JUMP JUMPDEST JUMPDEST PUSH1 0x0 DUP7 ADD MLOAD PUSH8 0xFFFFFFFFFFFFFFFF DUP2 GT ISZERO PUSH3 0x58C JUMPI PUSH3 0x58B PUSH3 0x365 JUMP JUMPDEST JUMPDEST PUSH3 0x59A DUP9 DUP3 DUP10 ADD PUSH3 0x4B6 JUMP JUMPDEST SWAP6 POP POP PUSH1 0x20 PUSH3 0x5AD DUP9 DUP3 DUP10 ADD PUSH3 0x50D JUMP JUMPDEST SWAP5 POP POP PUSH1 0x40 PUSH3 0x5C0 DUP9 DUP3 DUP10 ADD PUSH3 0x50D JUMP JUMPDEST SWAP4 POP POP PUSH1 0x60 PUSH3 0x5D3 DUP9 DUP3 DUP10 ADD PUSH3 0x535 JUMP JUMPDEST SWAP3 POP POP PUSH1 0x80 PUSH3 0x5E6 DUP9 DUP3 DUP10 ADD PUSH3 0x50D JUMP JUMPDEST SWAP2 POP POP SWAP3 SWAP6 POP SWAP3 SWAP6 SWAP1 SWAP4 POP JUMP JUMPDEST PUSH1 0x0 DUP3 DUP3 MSTORE PUSH1 0x20 DUP3 ADD SWAP1 POP SWAP3 SWAP2 POP POP JUMP JUMPDEST PUSH32 0x4D657461206465766520736572206D61696F7220717565207A65726F00000000 PUSH1 0x0 DUP3 ADD MSTORE POP JUMP JUMPDEST PUSH1 0x0 PUSH3 0x63C PUSH1 0x1C DUP4 PUSH3 0x5F3 JUMP JUMPDEST SWAP2 POP PUSH3 0x649 DUP3 PUSH3 0x604 JUMP JUMPDEST PUSH1 0x20 DUP3 ADD SWAP1 POP SWAP2 SWAP1 POP JUMP JUMPDEST PUSH1 0x0 PUSH1 0x20 DUP3 ADD SWAP1 POP DUP2 DUP2 SUB PUSH1 0x0 DUP4 ADD MSTORE PUSH3 0x66F DUP2 PUSH3 0x62D JUMP JUMPDEST SWAP1 POP SWAP2 SWAP1 POP JUMP JUMPDEST PUSH32 0x5072617A6F206465766520736572206D61696F7220717565207A65726F000000 PUSH1 0x0 DUP3 ADD MSTORE POP JUMP JUMPDEST PUSH1 0x0 PUSH3 0x6AE PUSH1 0x1D DUP4 PUSH3 0x5F3 JUMP JUMPDEST SWAP2 POP PUSH3 0x6BB DUP3 PUSH3 0x676 JUMP JUMPDEST PUSH1 0x20 DUP3 ADD SWAP1 POP SWAP2 SWAP1 POP JUMP JUMPDEST PUSH1 0x0 PUSH1 0x20 DUP3 ADD SWAP1 POP DUP2 DUP2 SUB PUSH1 0x0 DUP4 ADD MSTORE PUSH3 0x6E1 DUP2 PUSH3 0x69F JUMP JUMPDEST SWAP1 POP SWAP2 SWAP1 POP JUMP JUMPDEST PUSH1 0x0 DUP2 MLOAD SWAP1 POP SWAP2 SWAP1 POP JUMP JUMPDEST PUSH32 0x4E487B7100000000000000000000000000000000000000000000000000000000 PUSH1 0x0 MSTORE PUSH1 0x22 PUSH1 0x4 MSTORE PUSH1 0x24 PUSH1 0x0 REVERT JUMPDEST PUSH1 0x0 PUSH1 0x2 DUP3 DIV SWAP1 POP PUSH1 0x1 DUP3 AND DUP1 PUSH3 0x73B JUMPI PUSH1 0x7F DUP3 AND SWAP2 POP JUMPDEST PUSH1 0x20 DUP3 LT DUP2 SUB PUSH3 0x751 JUMPI PUSH3 0x750 PUSH3 0x6F3 JUMP JUMPDEST JUMPDEST POP SWAP2 SWAP1 POP JUMP JUMPDEST PUSH1 0x0 DUP2 SWAP1 POP DUP2 PUSH1 0x0 MSTORE PUSH1 0x20 PUSH1 0x0 KECCAK256 SWAP1 POP SWAP2 SWAP1 POP JUMP JUMPDEST PUSH1 0x0 PUSH1 0x20 PUSH1 0x1F DUP4 ADD DIV SWAP1 POP SWAP2 SWAP1 POP JUMP JUMPDEST PUSH1 0x0 DUP3 DUP3 SHL SWAP1 POP SWAP3 SWAP2 POP POP JUMP JUMPDEST PUSH1 0x0 PUSH1 0x8 DUP4 MUL PUSH3 0x7BB PUSH32 0xFFFFFFFFFFFFFFFFFFFFFFFFFFFFFFFFFFFFFFFFFFFFFFFFFFFFFFFFFFFFFFFF DUP3 PUSH3 0x77C JUMP JUMPDEST PUSH3 0x7C7 DUP7 DUP4 PUSH3 0x77C JUMP JUMPDEST SWAP6 POP DUP1 NOT DUP5 AND SWAP4 POP DUP1 DUP7 AND DUP5 OR SWAP3 POP POP POP SWAP4 SWAP3 POP POP POP JUMP JUMPDEST PUSH1 0x0 DUP2 SWAP1 POP SWAP2 SWAP1 POP JUMP JUMPDEST PUSH1 0x0 PUSH3 0x80A PUSH3 0x804 PUSH3 0x7FE DUP5 PUSH3 0x4E9 JUMP JUMPDEST PUSH3 0x7DF JUMP JUMPDEST PUSH3 0x4E9 JUMP JUMPDEST SWAP1 POP SWAP2 SWAP1 POP JUMP JUMPDEST PUSH1 0x0 DUP2 SWAP1 POP SWAP2 SWAP1 POP JUMP JUMPDEST PUSH3 0x826 DUP4 PUSH3 0x7E9 JUMP JUMPDEST PUSH3 0x83E PUSH3 0x835 DUP3 PUSH3 0x811 JUMP JUMPDEST DUP5 DUP5 SLOAD PUSH3 0x789 JUMP JUMPDEST DUP3 SSTORE POP POP POP POP JUMP JUMPDEST PUSH1 0x0 SWAP1 JUMP JUMPDEST PUSH3 0x855 PUSH3 0x846 JUMP JUMPDEST PUSH3 0x862 DUP2 DUP5 DUP5 PUSH3 0x81B JUMP JUMPDEST POP POP POP JUMP JUMPDEST JUMPDEST DUP2 DUP2 LT ISZERO PUSH3 0x88A JUMPI PUSH3 0x87E PUSH1 0x0 DUP3 PUSH3 0x84B JUMP JUMPDEST PUSH1 0x1 DUP2 ADD SWAP1 POP PUSH3 0x868 JUMP JUMPDEST POP POP JUMP JUMPDEST PUSH1 0x1F DUP3 GT ISZERO PUSH3 0x8D9 JUMPI PUSH3 0x8A3 DUP2 PUSH3 0x757 JUMP JUMPDEST PUSH3 0x8AE DUP5 PUSH3 0x76C JUMP JUMPDEST DUP2 ADD PUSH1 0x20 DUP6 LT ISZERO PUSH3 0x8BE JUMPI DUP2 SWAP1 POP JUMPDEST PUSH3 0x8D6 PUSH3 0x8CD DUP6 PUSH3 0x76C JUMP JUMPDEST DUP4 ADD DUP3 PUSH3 0x867 JUMP JUMPDEST POP POP JUMPDEST POP POP POP JUMP JUMPDEST PUSH1 0x0 DUP3 DUP3 SHR SWAP1 POP SWAP3 SWAP2 POP POP JUMP JUMPDEST PUSH1 0x0 PUSH3 0x8FE PUSH1 0x0 NOT DUP5 PUSH1 0x8 MUL PUSH3 0x8DE JUMP JUMPDEST NOT DUP1 DUP4 AND SWAP2 POP POP SWAP3 SWAP2 POP POP JUMP JUMPDEST PUSH1 0x0 PUSH3 0x919 DUP4 DUP4 PUSH3 0x8EB JUMP JUMPDEST SWAP2 POP DUP3 PUSH1 0x2 MUL DUP3 OR SWAP1 POP SWAP3 SWAP2 POP POP JUMP JUMPDEST PUSH3 0x934 DUP3 PUSH3 0x6E8 JUMP JUMPDEST PUSH8 0xFFFFFFFFFFFFFFFF DUP2 GT ISZERO PUSH3 0x950 JUMPI PUSH3 0x94F PUSH3 0x385 JUMP JUMPDEST JUMPDEST PUSH3 0x95C DUP3 SLOAD PUSH3 0x722 JUMP JUMPDEST PUSH3 0x969 DUP3 DUP3 DUP6 PUSH3 0x88E JUMP JUMPDEST PUSH1 0x0 PUSH1 0x20 SWAP1 POP PUSH1 0x1F DUP4 GT PUSH1 0x1 DUP2 EQ PUSH3 0x9A1 JUMPI PUSH1 0x0 DUP5 ISZERO PUSH3 0x98C JUMPI DUP3 DUP8 ADD MLOAD SWAP1 POP JUMPDEST PUSH3 0x998 DUP6 DUP3 PUSH3 0x90B JUMP JUMPDEST DUP7 SSTORE POP PUSH3 0xA08 JUMP JUMPDEST PUSH1 0x1F NOT DUP5 AND PUSH3 0x9B1 DUP7 PUSH3 0x757 JUMP JUMPDEST PUSH1 0x0 JUMPDEST DUP3 DUP2 LT ISZERO PUSH3 0x9DB JUMPI DUP5 DUP10 ADD MLOAD DUP3 SSTORE PUSH1 0x1 DUP3 ADD SWAP2 POP PUSH1 0x20 DUP6 ADD SWAP5 POP PUSH1 0x20 DUP2 ADD SWAP1 POP PUSH3 0x9B4 JUMP JUMPDEST DUP7 DUP4 LT ISZERO PUSH3 0x9FB JUMPI DUP5 DUP10 ADD MLOAD PUSH3 0x9F7 PUSH1 0x1F DUP10 AND DUP3 PUSH3 0x8EB JUMP JUMPDEST DUP4 SSTORE POP JUMPDEST PUSH1 0x1 PUSH1 0x2 DUP9 MUL ADD DUP9 SSTORE POP POP POP JUMPDEST POP POP POP POP POP POP JUMP JUMPDEST PUSH32 0x4E487B7100000000000000000000000000000000000000000000000000000000 PUSH1 0x0 MSTORE PUSH1 0x11 PUSH1 0x4 MSTORE PUSH1 0x24 PUSH1 0x0 REVERT JUMPDEST PUSH1 0x0 PUSH3 0xA4C DUP3 PUSH3 0x4E9 JUMP JUMPDEST SWAP2 POP PUSH3 0xA59 DUP4 PUSH3 0x4E9 JUMP JUMPDEST SWAP3 POP DUP3 DUP3 MUL PUSH3 0xA69 DUP2 PUSH3 0x4E9 JUMP JUMPDEST SWAP2 POP DUP3 DUP3 DIV DUP5 EQ DUP4 ISZERO OR PUSH3 0xA83 JUMPI PUSH3 0xA82 PUSH3 0xA10 JUMP JUMPDEST JUMPDEST POP SWAP3 SWAP2 POP POP JUMP JUMPDEST PUSH1 0x0 PUSH3 0xA97 DUP3 PUSH3 0x4E9 JUMP JUMPDEST SWAP2 POP PUSH3 0xAA4 DUP4 PUSH3 0x4E9 JUMP JUMPDEST SWAP3 POP DUP3 DUP3 ADD SWAP1 POP DUP1 DUP3 GT ISZERO PUSH3 0xABF JUMPI PUSH3 0xABE PUSH3 0xA10 JUMP JUMPDEST JUMPDEST SWAP3 SWAP2 POP POP JUMP JUMPDEST PUSH32 0x4E487B7100000000000000000000000000000000000000000000000000000000 PUSH1 0x0 MSTORE PUSH1 0x21 PUSH1 0x4 MSTORE PUSH1 0x24 PUSH1 0x0 REVERT JUMPDEST PUSH32 0x4E756D65726F2064652063757261646F726573206465766520736572206D6169 PUSH1 0x0 DUP3 ADD MSTORE PUSH32 0x6F7220717565207A65726F000000000000000000000000000000000000000000 PUSH1 0x20 DUP3 ADD MSTORE POP JUMP JUMPDEST PUSH1 0x0 PUSH3 0xB52 PUSH1 0x2B DUP4 PUSH3 0x5F3 JUMP JUMPDEST SWAP2 POP PUSH3 0xB5F DUP3 PUSH3 0xAF4 JUMP JUMPDEST PUSH1 0x40 DUP3 ADD SWAP1 POP SWAP2 SWAP1 POP JUMP JUMPDEST PUSH1 0x0 PUSH1 0x20 DUP3 ADD SWAP1 POP DUP2 DUP2 SUB PUSH1 0x0 DUP4 ADD MSTORE PUSH3 0xB85 DUP2 PUSH3 0xB43 JUMP JUMPDEST SWAP1 POP SWAP2 SWAP1 POP JUMP JUMPDEST PUSH2 0x182A DUP1 PUSH3 0xB9C PUSH1 0x0 CODECOPY PUSH1 0x0 RETURN INVALID PUSH1 0x80 PUSH1 0x40 MSTORE CALLVALUE DUP1 ISZERO PUSH2 0x10 JUMPI PUSH1 0x0 DUP1 REVERT JUMPDEST POP PUSH1 0x4 CALLDATASIZE LT PUSH2 0x120 JUMPI PUSH1 0x0 CALLDATALOAD PUSH1 0xE0 SHR DUP1 PUSH4 0x3260E7A2 GT PUSH2 0xAD JUMPI DUP1 PUSH4 0xC885044E GT PUSH2 0x71 JUMPI DUP1 PUSH4 0xC885044E EQ PUSH2 0x30F JUMPI DUP1 PUSH4 0xCFE70F51 EQ PUSH2 0x32D JUMPI DUP1 PUSH4 0xE7770CCF EQ PUSH2 0x34B JUMPI DUP1 PUSH4 0xEE22BA81 EQ PUSH2 0x367 JUMPI DUP1 PUSH4 0xF90C6D1D EQ PUSH2 0x383 JUMPI PUSH2 0x120 JUMP JUMPDEST DUP1 PUSH4 0x3260E7A2 EQ PUSH2 0x267 JUMPI DUP1 PUSH4 0x85E656F5 EQ PUSH2 0x297 JUMPI DUP1 PUSH4 0x8DA5CB5B EQ PUSH2 0x2B5 JUMPI DUP1 PUSH4 0xB23D8829 EQ PUSH2 0x2D3 JUMPI DUP1 PUSH4 0xB983BDF5 EQ PUSH2 0x2F1 JUMPI PUSH2 0x120 JUMP JUMPDEST DUP1 PUSH4 0x16BB69FD GT PUSH2 0xF4 JUMPI DUP1 PUSH4 0x16BB69FD EQ PUSH2 0x1C1 JUMPI DUP1 PUSH4 0x2503C6D8 EQ PUSH2 0x1DF JUMPI DUP1 PUSH4 0x28F3B1FE EQ PUSH2 0x1FB JUMPI DUP1 PUSH4 0x2B66FEDB EQ PUSH2 0x217 JUMPI DUP1 PUSH4 0x2DEB124B EQ PUSH2 0x249 JUMPI PUSH2 0x120 JUMP JUMPDEST DUP1 PUSH3 0xDD2325 EQ PUSH2 0x125 JUMPI DUP1 PUSH4 0x444F11F EQ PUSH2 0x143 JUMPI DUP1 PUSH4 0x92F8CFB EQ PUSH2 0x161 JUMPI DUP1 PUSH4 0xC5DB638 EQ PUSH2 0x191 JUMPI JUMPDEST PUSH1 0x0 DUP1 REVERT JUMPDEST PUSH2 0x12D PUSH2 0x39F JUMP JUMPDEST PUSH1 0x40 MLOAD PUSH2 0x13A SWAP2 SWAP1 PUSH2 0xBFE JUMP JUMPDEST PUSH1 0x40 MLOAD DUP1 SWAP2 SUB SWAP1 RETURN JUMPDEST PUSH2 0x14B PUSH2 0x3A5 JUMP JUMPDEST PUSH1 0x40 MLOAD PUSH2 0x158 SWAP2 SWAP1 PUSH2 0xBFE JUMP JUMPDEST PUSH1 0x40 MLOAD DUP1 SWAP2 SUB SWAP1 RETURN JUMPDEST PUSH2 0x17B PUSH1 0x4 DUP1 CALLDATASIZE SUB DUP2 ADD SWAP1 PUSH2 0x176 SWAP2 SWAP1 PUSH2 0xC8B JUMP JUMPDEST PUSH2 0x3AB JUMP JUMPDEST PUSH1 0x40 MLOAD PUSH2 0x188 SWAP2 SWAP1 PUSH2 0xBFE JUMP JUMPDEST PUSH1 0x40 MLOAD DUP1 SWAP2 SUB SWAP1 RETURN JUMPDEST PUSH2 0x1AB PUSH1 0x4 DUP1 CALLDATASIZE SUB DUP2 ADD SWAP1 PUSH2 0x1A6 SWAP2 SWAP1 PUSH2 0xC8B JUMP JUMPDEST PUSH2 0x3C3 JUMP JUMPDEST PUSH1 0x40 MLOAD PUSH2 0x1B8 SWAP2 SWAP1 PUSH2 0xCD3 JUMP JUMPDEST PUSH1 0x40 MLOAD DUP1 SWAP2 SUB SWAP1 RETURN JUMPDEST PUSH2 0x1C9 PUSH2 0x3E3 JUMP JUMPDEST PUSH1 0x40 MLOAD PUSH2 0x1D6 SWAP2 SWAP1 PUSH2 0xD65 JUMP JUMPDEST PUSH1 0x40 MLOAD DUP1 SWAP2 SUB SWAP1 RETURN JUMPDEST PUSH2 0x1F9 PUSH1 0x4 DUP1 CALLDATASIZE SUB DUP2 ADD SWAP1 PUSH2 0x1F4 SWAP2 SWAP1 PUSH2 0xC8B JUMP JUMPDEST PUSH2 0x3F6 JUMP JUMPDEST STOP JUMPDEST PUSH2 0x215 PUSH1 0x4 DUP1 CALLDATASIZE SUB DUP2 ADD SWAP1 PUSH2 0x210 SWAP2 SWAP1 PUSH2 0xDAC JUMP JUMPDEST PUSH2 0x6CE JUMP JUMPDEST STOP JUMPDEST PUSH2 0x231 PUSH1 0x4 DUP1 CALLDATASIZE SUB DUP2 ADD SWAP1 PUSH2 0x22C SWAP2 SWAP1 PUSH2 0xDAC JUMP JUMPDEST PUSH2 0x7A9 JUMP JUMPDEST PUSH1 0x40 MLOAD PUSH2 0x240 SWAP4 SWAP3 SWAP2 SWAP1 PUSH2 0xE78 JUMP JUMPDEST PUSH1 0x40 MLOAD DUP1 SWAP2 SUB SWAP1 RETURN JUMPDEST PUSH2 0x251 PUSH2 0x88B JUMP JUMPDEST PUSH1 0x40 MLOAD PUSH2 0x25E SWAP2 SWAP1 PUSH2 0xEB6 JUMP JUMPDEST PUSH1 0x40 MLOAD DUP1 SWAP2 SUB SWAP1 RETURN JUMPDEST PUSH2 0x281 PUSH1 0x4 DUP1 CALLDATASIZE SUB DUP2 ADD SWAP1 PUSH2 0x27C SWAP2 SWAP1 PUSH2 0xC8B JUMP JUMPDEST PUSH2 0x919 JUMP JUMPDEST PUSH1 0x40 MLOAD PUSH2 0x28E SWAP2 SWAP1 PUSH2 0xCD3 JUMP JUMPDEST PUSH1 0x40 MLOAD DUP1 SWAP2 SUB SWAP1 RETURN JUMPDEST PUSH2 0x29F PUSH2 0x939 JUMP JUMPDEST PUSH1 0x40 MLOAD PUSH2 0x2AC SWAP2 SWAP1 PUSH2 0xCD3 JUMP JUMPDEST PUSH1 0x40 MLOAD DUP1 SWAP2 SUB SWAP1 RETURN JUMPDEST PUSH2 0x2BD PUSH2 0x94C JUMP JUMPDEST PUSH1 0x40 MLOAD PUSH2 0x2CA SWAP2 SWAP1 PUSH2 0xED8 JUMP JUMPDEST PUSH1 0x40 MLOAD DUP1 SWAP2 SUB SWAP1 RETURN JUMPDEST PUSH2 0x2DB PUSH2 0x970 JUMP JUMPDEST PUSH1 0x40 MLOAD PUSH2 0x2E8 SWAP2 SWAP1 PUSH2 0xBFE JUMP JUMPDEST PUSH1 0x40 MLOAD DUP1 SWAP2 SUB SWAP1 RETURN JUMPDEST PUSH2 0x2F9 PUSH2 0x976 JUMP JUMPDEST PUSH1 0x40 MLOAD PUSH2 0x306 SWAP2 SWAP1 PUSH2 0xCD3 JUMP JUMPDEST PUSH1 0x40 MLOAD DUP1 SWAP2 SUB SWAP1 RETURN JUMPDEST PUSH2 0x317 PUSH2 0x989 JUMP JUMPDEST PUSH1 0x40 MLOAD PUSH2 0x324 SWAP2 SWAP1 PUSH2 0xBFE JUMP JUMPDEST PUSH1 0x40 MLOAD DUP1 SWAP2 SUB SWAP1 RETURN JUMPDEST PUSH2 0x335 PUSH2 0x98F JUMP JUMPDEST PUSH1 0x40 MLOAD PUSH2 0x342 SWAP2 SWAP1 PUSH2 0xBFE JUMP JUMPDEST PUSH1 0x40 MLOAD DUP1 SWAP2 SUB SWAP1 RETURN JUMPDEST PUSH2 0x365 PUSH1 0x4 DUP1 CALLDATASIZE SUB DUP2 ADD SWAP1 PUSH2 0x360 SWAP2 SWAP1 PUSH2 0xF18 JUMP JUMPDEST PUSH2 0x995 JUMP JUMPDEST STOP JUMPDEST PUSH2 0x381 PUSH1 0x4 DUP1 CALLDATASIZE SUB DUP2 ADD SWAP1 PUSH2 0x37C SWAP2 SWAP1 PUSH2 0x107A JUMP JUMPDEST PUSH2 0xA50 JUMP JUMPDEST STOP JUMPDEST PUSH2 0x39D PUSH1 0x4 DUP1 CALLDATASIZE SUB DUP2 ADD SWAP1 PUSH2 0x398 SWAP2 SWAP1 PUSH2 0xDAC JUMP JUMPDEST PUSH2 0xAF1 JUMP JUMPDEST STOP JUMPDEST PUSH1 0x2 SLOAD DUP2 JUMP JUMPDEST PUSH1 0x7 SLOAD DUP2 JUMP JUMPDEST PUSH1 0xB PUSH1 0x20 MSTORE DUP1 PUSH1 0x0 MSTORE PUSH1 0x40 PUSH1 0x0 KECCAK256 PUSH1 0x0 SWAP2 POP SWAP1 POP SLOAD DUP2 JUMP JUMPDEST PUSH1 0x9 PUSH1 0x20 MSTORE DUP1 PUSH1 0x0 MSTORE PUSH1 0x40 PUSH1 0x0 KECCAK256 PUSH1 0x0 SWAP2 POP SLOAD SWAP1 PUSH2 0x100 EXP SWAP1 DIV PUSH1 0xFF AND DUP2 JUMP JUMPDEST PUSH1 0x6 PUSH1 0x0 SWAP1 SLOAD SWAP1 PUSH2 0x100 EXP SWAP1 DIV PUSH1 0xFF AND DUP2 JUMP JUMPDEST PUSH1 0x0 DUP1 SLOAD SWAP1 PUSH2 0x100 EXP SWAP1 DIV PUSH20 0xFFFFFFFFFFFFFFFFFFFFFFFFFFFFFFFFFFFFFFFF AND PUSH20 0xFFFFFFFFFFFFFFFFFFFFFFFFFFFFFFFFFFFFFFFF AND CALLER PUSH20 0xFFFFFFFFFFFFFFFFFFFFFFFFFFFFFFFFFFFFFFFF AND EQ PUSH2 0x484 JUMPI PUSH1 0x40 MLOAD PUSH32 0x8C379A000000000000000000000000000000000000000000000000000000000 DUP2 MSTORE PUSH1 0x4 ADD PUSH2 0x47B SWAP1 PUSH2 0x1135 JUMP JUMPDEST PUSH1 0x40 MLOAD DUP1 SWAP2 SUB SWAP1 REVERT JUMPDEST PUSH1 0x1 PUSH1 0x2 DUP2 GT ISZERO PUSH2 0x498 JUMPI PUSH2 0x497 PUSH2 0xCEE JUMP JUMPDEST JUMPDEST PUSH1 0x6 PUSH1 0x0 SWAP1 SLOAD SWAP1 PUSH2 0x100 EXP SWAP1 DIV PUSH1 0xFF AND PUSH1 0x2 DUP2 GT ISZERO PUSH2 0x4BA JUMPI PUSH2 0x4B9 PUSH2 0xCEE JUMP JUMPDEST JUMPDEST EQ PUSH2 0x4FA JUMPI PUSH1 0x40 MLOAD PUSH32 0x8C379A000000000000000000000000000000000000000000000000000000000 DUP2 MSTORE PUSH1 0x4 ADD PUSH2 0x4F1 SWAP1 PUSH2 0x11C7 JUMP JUMPDEST PUSH1 0x40 MLOAD DUP1 SWAP2 SUB SWAP1 REVERT JUMPDEST PUSH1 0x9 PUSH1 0x0 DUP3 PUSH20 0xFFFFFFFFFFFFFFFFFFFFFFFFFFFFFFFFFFFFFFFF AND PUSH20 0xFFFFFFFFFFFFFFFFFFFFFFFFFFFFFFFFFFFFFFFF AND DUP2 MSTORE PUSH1 0x20 ADD SWAP1 DUP2 MSTORE PUSH1 0x20 ADD PUSH1 0x0 KECCAK256 PUSH1 0x0 SWAP1 SLOAD SWAP1 PUSH2 0x100 EXP SWAP1 DIV PUSH1 0xFF AND ISZERO PUSH2 0x587 JUMPI PUSH1 0x40 MLOAD PUSH32 0x8C379A000000000000000000000000000000000000000000000000000000000 DUP2 MSTORE PUSH1 0x4 ADD PUSH2 0x57E SWAP1 PUSH2 0x1233 JUMP JUMPDEST PUSH1 0x40 MLOAD DUP1 SWAP2 SUB SWAP1 REVERT JUMPDEST PUSH1 0x0 DUP1 SLOAD SWAP1 PUSH2 0x100 EXP SWAP1 DIV PUSH20 0xFFFFFFFFFFFFFFFFFFFFFFFFFFFFFFFFFFFFFFFF AND PUSH20 0xFFFFFFFFFFFFFFFFFFFFFFFFFFFFFFFFFFFFFFFF AND DUP2 PUSH20 0xFFFFFFFFFFFFFFFFFFFFFFFFFFFFFFFFFFFFFFFF AND SUB PUSH2 0x615 JUMPI PUSH1 0x40 MLOAD PUSH32 0x8C379A000000000000000000000000000000000000000000000000000000000 DUP2 MSTORE PUSH1 0x4 ADD PUSH2 0x60C SWAP1 PUSH2 0x129F JUMP JUMPDEST PUSH1 0x40 MLOAD DUP1 SWAP2 SUB SWAP1 REVERT JUMPDEST PUSH1 0x7 SLOAD PUSH1 0x8 SLOAD LT PUSH2 0x65B JUMPI PUSH1 0x40 MLOAD PUSH32 0x8C379A000000000000000000000000000000000000000000000000000000000 DUP2 MSTORE PUSH1 0x4 ADD PUSH2 0x652 SWAP1 PUSH2 0x1331 JUMP JUMPDEST PUSH1 0x40 MLOAD DUP1 SWAP2 SUB SWAP1 REVERT JUMPDEST PUSH1 0x1 PUSH1 0x9 PUSH1 0x0 DUP4 PUSH20 0xFFFFFFFFFFFFFFFFFFFFFFFFFFFFFFFFFFFFFFFF AND PUSH20 0xFFFFFFFFFFFFFFFFFFFFFFFFFFFFFFFFFFFFFFFF AND DUP2 MSTORE PUSH1 0x20 ADD SWAP1 DUP2 MSTORE PUSH1 0x20 ADD PUSH1 0x0 KECCAK256 PUSH1 0x0 PUSH2 0x100 EXP DUP2 SLOAD DUP2 PUSH1 0xFF MUL NOT AND SWAP1 DUP4 ISZERO ISZERO MUL OR SWAP1 SSTORE POP PUSH1 0x8 PUSH1 0x0 DUP2 SLOAD DUP1 SWAP3 SWAP2 SWAP1 PUSH2 0x6C6 SWAP1 PUSH2 0x1380 JUMP JUMPDEST SWAP2 SWAP1 POP SSTORE POP POP JUMP JUMPDEST PUSH1 0x0 DUP1 SLOAD SWAP1 PUSH2 0x100 EXP SWAP1 DIV PUSH20 0xFFFFFFFFFFFFFFFFFFFFFFFFFFFFFFFFFFFFFFFF AND PUSH20 0xFFFFFFFFFFFFFFFFFFFFFFFFFFFFFFFFFFFFFFFF AND CALLER PUSH20 0xFFFFFFFFFFFFFFFFFFFFFFFFFFFFFFFFFFFFFFFF AND EQ PUSH2 0x75C JUMPI PUSH1 0x40 MLOAD PUSH32 0x8C379A000000000000000000000000000000000000000000000000000000000 DUP2 MSTORE PUSH1 0x4 ADD PUSH2 0x753 SWAP1 PUSH2 0x1135 JUMP JUMPDEST PUSH1 0x40 MLOAD DUP1 SWAP2 SUB SWAP1 REVERT JUMPDEST PUSH1 0x0 DUP2 GT PUSH2 0x79F JUMPI PUSH1 0x40 MLOAD PUSH32 0x8C379A000000000000000000000000000000000000000000000000000000000 DUP2 MSTORE PUSH1 0x4 ADD PUSH2 0x796 SWAP1 PUSH2 0x1414 JUMP JUMPDEST PUSH1 0x40 MLOAD DUP1 SWAP2 SUB SWAP1 REVERT JUMPDEST DUP1 PUSH1 0x1 DUP2 SWAP1 SSTORE POP POP JUMP JUMPDEST PUSH1 0xA DUP2 DUP2 SLOAD DUP2 LT PUSH2 0x7B9 JUMPI PUSH1 0x0 DUP1 REVERT JUMPDEST SWAP1 PUSH1 0x0 MSTORE PUSH1 0x20 PUSH1 0x0 KECCAK256 SWAP1 PUSH1 0x4 MUL ADD PUSH1 0x0 SWAP2 POP SWAP1 POP DUP1 PUSH1 0x0 ADD DUP1 SLOAD PUSH2 0x7DC SWAP1 PUSH2 0x1463 JUMP JUMPDEST DUP1 PUSH1 0x1F ADD PUSH1 0x20 DUP1 SWAP2 DIV MUL PUSH1 0x20 ADD PUSH1 0x40 MLOAD SWAP1 DUP2 ADD PUSH1 0x40 MSTORE DUP1 SWAP3 SWAP2 SWAP1 DUP2 DUP2 MSTORE PUSH1 0x20 ADD DUP3 DUP1 SLOAD PUSH2 0x808 SWAP1 PUSH2 0x1463 JUMP JUMPDEST DUP1 ISZERO PUSH2 0x855 JUMPI DUP1 PUSH1 0x1F LT PUSH2 0x82A JUMPI PUSH2 0x100 DUP1 DUP4 SLOAD DIV MUL DUP4 MSTORE SWAP2 PUSH1 0x20 ADD SWAP2 PUSH2 0x855 JUMP JUMPDEST DUP3 ADD SWAP2 SWAP1 PUSH1 0x0 MSTORE PUSH1 0x20 PUSH1 0x0 KECCAK256 SWAP1 JUMPDEST DUP2 SLOAD DUP2 MSTORE SWAP1 PUSH1 0x1 ADD SWAP1 PUSH1 0x20 ADD DUP1 DUP4 GT PUSH2 0x838 JUMPI DUP3 SWAP1 SUB PUSH1 0x1F AND DUP3 ADD SWAP2 JUMPDEST POP POP POP POP POP SWAP1 DUP1 PUSH1 0x1 ADD PUSH1 0x0 SWAP1 SLOAD SWAP1 PUSH2 0x100 EXP SWAP1 DIV PUSH20 0xFFFFFFFFFFFFFFFFFFFFFFFFFFFFFFFFFFFFFFFF AND SWAP1 DUP1 PUSH1 0x2 ADD SLOAD SWAP1 POP DUP4 JUMP JUMPDEST PUSH1 0x5 DUP1 SLOAD PUSH2 0x898 SWAP1 PUSH2 0x1463 JUMP JUMPDEST DUP1 PUSH1 0x1F ADD PUSH1 0x20 DUP1 SWAP2 DIV MUL PUSH1 0x20 ADD PUSH1 0x40 MLOAD SWAP1 DUP2 ADD PUSH1 0x40 MSTORE DUP1 SWAP3 SWAP2 SWAP1 DUP2 DUP2 MSTORE PUSH1 0x20 ADD DUP3 DUP1 SLOAD PUSH2 0x8C4 SWAP1 PUSH2 0x1463 JUMP JUMPDEST DUP1 ISZERO PUSH2 0x911 JUMPI DUP1 PUSH1 0x1F LT PUSH2 0x8E6 JUMPI PUSH2 0x100 DUP1 DUP4 SLOAD DIV MUL DUP4 MSTORE SWAP2 PUSH1 0x20 ADD SWAP2 PUSH2 0x911 JUMP JUMPDEST DUP3 ADD SWAP2 SWAP1 PUSH1 0x0 MSTORE PUSH1 0x20 PUSH1 0x0 KECCAK256 SWAP1 JUMPDEST DUP2 SLOAD DUP2 MSTORE SWAP1 PUSH1 0x1 ADD SWAP1 PUSH1 0x20 ADD DUP1 DUP4 GT PUSH2 0x8F4 JUMPI DUP3 SWAP1 SUB PUSH1 0x1F AND DUP3 ADD SWAP2 JUMPDEST POP POP POP POP POP DUP2 JUMP JUMPDEST PUSH1 0xC PUSH1 0x20 MSTORE DUP1 PUSH1 0x0 MSTORE PUSH1 0x40 PUSH1 0x0 KECCAK256 PUSH1 0x0 SWAP2 POP SLOAD SWAP1 PUSH2 0x100 EXP SWAP1 DIV PUSH1 0xFF AND DUP2 JUMP JUMPDEST PUSH1 0x4 PUSH1 0x1 SWAP1 SLOAD SWAP1 PUSH2 0x100 EXP SWAP1 DIV PUSH1 0xFF AND DUP2 JUMP JUMPDEST PUSH1 0x0 DUP1 SLOAD SWAP1 PUSH2 0x100 EXP SWAP1 DIV PUSH20 0xFFFFFFFFFFFFFFFFFFFFFFFFFFFFFFFFFFFFFFFF AND DUP2 JUMP JUMPDEST PUSH1 0x8 SLOAD DUP2 JUMP JUMPDEST PUSH1 0x4 PUSH1 0x0 SWAP1 SLOAD SWAP1 PUSH2 0x100 EXP SWAP1 DIV PUSH1 0xFF AND DUP2 JUMP JUMPDEST PUSH1 0x1 SLOAD DUP2 JUMP JUMPDEST PUSH1 0x3 SLOAD DUP2 JUMP JUMPDEST PUSH1 0x0 DUP1 SLOAD SWAP1 PUSH2 0x100 EXP SWAP1 DIV PUSH20 0xFFFFFFFFFFFFFFFFFFFFFFFFFFFFFFFFFFFFFFFF AND PUSH20 0xFFFFFFFFFFFFFFFFFFFFFFFFFFFFFFFFFFFFFFFF AND CALLER PUSH20 0xFFFFFFFFFFFFFFFFFFFFFFFFFFFFFFFFFFFFFFFF AND EQ PUSH2 0xA23 JUMPI PUSH1 0x40 MLOAD PUSH32 0x8C379A000000000000000000000000000000000000000000000000000000000 DUP2 MSTORE PUSH1 0x4 ADD PUSH2 0xA1A SWAP1 PUSH2 0x1135 JUMP JUMPDEST PUSH1 0x40 MLOAD DUP1 SWAP2 SUB SWAP1 REVERT JUMPDEST DUP1 PUSH1 0x6 PUSH1 0x0 PUSH2 0x100 EXP DUP2 SLOAD DUP2 PUSH1 0xFF MUL NOT AND SWAP1 DUP4 PUSH1 0x2 DUP2 GT ISZERO PUSH2 0xA48 JUMPI PUSH2 0xA47 PUSH2 0xCEE JUMP JUMPDEST JUMPDEST MUL OR SWAP1 SSTORE POP POP JUMP JUMPDEST PUSH1 0x0 DUP1 SLOAD SWAP1 PUSH2 0x100 EXP SWAP1 DIV PUSH20 0xFFFFFFFFFFFFFFFFFFFFFFFFFFFFFFFFFFFFFFFF AND PUSH20 0xFFFFFFFFFFFFFFFFFFFFFFFFFFFFFFFFFFFFFFFF AND CALLER PUSH20 0xFFFFFFFFFFFFFFFFFFFFFFFFFFFFFFFFFFFFFFFF AND EQ PUSH2 0xADE JUMPI PUSH1 0x40 MLOAD PUSH32 0x8C379A000000000000000000000000000000000000000000000000000000000 DUP2 MSTORE PUSH1 0x4 ADD PUSH2 0xAD5 SWAP1 PUSH2 0x1135 JUMP JUMPDEST PUSH1 0x40 MLOAD DUP1 SWAP2 SUB SWAP1 REVERT JUMPDEST DUP1 PUSH1 0x5 SWAP1 DUP2 PUSH2 0xAED SWAP2 SWAP1 PUSH2 0x1640 JUMP JUMPDEST POP POP JUMP JUMPDEST PUSH1 0x0 DUP1 SLOAD SWAP1 PUSH2 0x100 EXP SWAP1 DIV PUSH20 0xFFFFFFFFFFFFFFFFFFFFFFFFFFFFFFFFFFFFFFFF AND PUSH20 0xFFFFFFFFFFFFFFFFFFFFFFFFFFFFFFFFFFFFFFFF AND CALLER PUSH20 0xFFFFFFFFFFFFFFFFFFFFFFFFFFFFFFFFFFFFFFFF AND EQ PUSH2 0xB7F JUMPI PUSH1 0x40 MLOAD PUSH32 0x8C379A000000000000000000000000000000000000000000000000000000000 DUP2 MSTORE PUSH1 0x4 ADD PUSH2 0xB76 SWAP1 PUSH2 0x1135 JUMP JUMPDEST PUSH1 0x40 MLOAD DUP1 SWAP2 SUB SWAP1 REVERT JUMPDEST PUSH1 0x0 DUP2 GT PUSH2 0xBC2 JUMPI PUSH1 0x40 MLOAD PUSH32 0x8C379A000000000000000000000000000000000000000000000000000000000 DUP2 MSTORE PUSH1 0x4 ADD PUSH2 0xBB9 SWAP1 PUSH2 0x175E JUMP JUMPDEST PUSH1 0x40 MLOAD DUP1 SWAP2 SUB SWAP1 REVERT JUMPDEST PUSH3 0x15180 DUP2 PUSH2 0xBD1 SWAP2 SWAP1 PUSH2 0x177E JUMP JUMPDEST TIMESTAMP PUSH2 0xBDC SWAP2 SWAP1 PUSH2 0x17C0 JUMP JUMPDEST PUSH1 0x3 DUP2 SWAP1 SSTORE POP POP JUMP JUMPDEST PUSH1 0x0 DUP2 SWAP1 POP SWAP2 SWAP1 POP JUMP JUMPDEST PUSH2 0xBF8 DUP2 PUSH2 0xBE5 JUMP JUMPDEST DUP3 MSTORE POP POP JUMP JUMPDEST PUSH1 0x0 PUSH1 0x20 DUP3 ADD SWAP1 POP PUSH2 0xC13 PUSH1 0x0 DUP4 ADD DUP5 PUSH2 0xBEF JUMP JUMPDEST SWAP3 SWAP2 POP POP JUMP JUMPDEST PUSH1 0x0 PUSH1 0x40 MLOAD SWAP1 POP SWAP1 JUMP JUMPDEST PUSH1 0x0 DUP1 REVERT JUMPDEST PUSH1 0x0 DUP1 REVERT JUMPDEST PUSH1 0x0 PUSH20 0xFFFFFFFFFFFFFFFFFFFFFFFFFFFFFFFFFFFFFFFF DUP3 AND SWAP1 POP SWAP2 SWAP1 POP JUMP JUMPDEST PUSH1 0x0 PUSH2 0xC58 DUP3 PUSH2 0xC2D JUMP JUMPDEST SWAP1 POP SWAP2 SWAP1 POP JUMP JUMPDEST PUSH2 0xC68 DUP2 PUSH2 0xC4D JUMP JUMPDEST DUP2 EQ PUSH2 0xC73 JUMPI PUSH1 0x0 DUP1 REVERT JUMPDEST POP JUMP JUMPDEST PUSH1 0x0 DUP2 CALLDATALOAD SWAP1 POP PUSH2 0xC85 DUP2 PUSH2 0xC5F JUMP JUMPDEST SWAP3 SWAP2 POP POP JUMP JUMPDEST PUSH1 0x0 PUSH1 0x20 DUP3 DUP5 SUB SLT ISZERO PUSH2 0xCA1 JUMPI PUSH2 0xCA0 PUSH2 0xC23 JUMP JUMPDEST JUMPDEST PUSH1 0x0 PUSH2 0xCAF DUP5 DUP3 DUP6 ADD PUSH2 0xC76 JUMP JUMPDEST SWAP2 POP POP SWAP3 SWAP2 POP POP JUMP JUMPDEST PUSH1 0x0 DUP2 ISZERO ISZERO SWAP1 POP SWAP2 SWAP1 POP JUMP JUMPDEST PUSH2 0xCCD DUP2 PUSH2 0xCB8 JUMP JUMPDEST DUP3 MSTORE POP POP JUMP JUMPDEST PUSH1 0x0 PUSH1 0x20 DUP3 ADD SWAP1 POP PUSH2 0xCE8 PUSH1 0x0 DUP4 ADD DUP5 PUSH2 0xCC4 JUMP JUMPDEST SWAP3 SWAP2 POP POP JUMP JUMPDEST PUSH32 0x4E487B7100000000000000000000000000000000000000000000000000000000 PUSH1 0x0 MSTORE PUSH1 0x21 PUSH1 0x4 MSTORE PUSH1 0x24 PUSH1 0x0 REVERT JUMPDEST PUSH1 0x3 DUP2 LT PUSH2 0xD2E JUMPI PUSH2 0xD2D PUSH2 0xCEE JUMP JUMPDEST JUMPDEST POP JUMP JUMPDEST PUSH1 0x0 DUP2 SWAP1 POP PUSH2 0xD3F DUP3 PUSH2 0xD1D JUMP JUMPDEST SWAP2 SWAP1 POP JUMP JUMPDEST PUSH1 0x0 PUSH2 0xD4F DUP3 PUSH2 0xD31 JUMP JUMPDEST SWAP1 POP SWAP2 SWAP1 POP JUMP JUMPDEST PUSH2 0xD5F DUP2 PUSH2 0xD44 JUMP JUMPDEST DUP3 MSTORE POP POP JUMP JUMPDEST PUSH1 0x0 PUSH1 0x20 DUP3 ADD SWAP1 POP PUSH2 0xD7A PUSH1 0x0 DUP4 ADD DUP5 PUSH2 0xD56 JUMP JUMPDEST SWAP3 SWAP2 POP POP JUMP JUMPDEST PUSH2 0xD89 DUP2 PUSH2 0xBE5 JUMP JUMPDEST DUP2 EQ PUSH2 0xD94 JUMPI PUSH1 0x0 DUP1 REVERT JUMPDEST POP JUMP JUMPDEST PUSH1 0x0 DUP2 CALLDATALOAD SWAP1 POP PUSH2 0xDA6 DUP2 PUSH2 0xD80 JUMP JUMPDEST SWAP3 SWAP2 POP POP JUMP JUMPDEST PUSH1 0x0 PUSH1 0x20 DUP3 DUP5 SUB SLT ISZERO PUSH2 0xDC2 JUMPI PUSH2 0xDC1 PUSH2 0xC23 JUMP JUMPDEST JUMPDEST PUSH1 0x0 PUSH2 0xDD0 DUP5 DUP3 DUP6 ADD PUSH2 0xD97 JUMP JUMPDEST SWAP2 POP POP SWAP3 SWAP2 POP POP JUMP JUMPDEST PUSH1 0x0 DUP2 MLOAD SWAP1 POP SWAP2 SWAP1 POP JUMP JUMPDEST PUSH1 0x0 DUP3 DUP3 MSTORE PUSH1 0x20 DUP3 ADD SWAP1 POP SWAP3 SWAP2 POP POP JUMP JUMPDEST PUSH1 0x0 JUMPDEST DUP4 DUP2 LT ISZERO PUSH2 0xE13 JUMPI DUP1 DUP3 ADD MLOAD DUP2 DUP5 ADD MSTORE PUSH1 0x20 DUP2 ADD SWAP1 POP PUSH2 0xDF8 JUMP JUMPDEST PUSH1 0x0 DUP5 DUP5 ADD MSTORE POP POP POP POP JUMP JUMPDEST PUSH1 0x0 PUSH1 0x1F NOT PUSH1 0x1F DUP4 ADD AND SWAP1 POP SWAP2 SWAP1 POP JUMP JUMPDEST PUSH1 0x0 PUSH2 0xE3B DUP3 PUSH2 0xDD9 JUMP JUMPDEST PUSH2 0xE45 DUP2 DUP6 PUSH2 0xDE4 JUMP JUMPDEST SWAP4 POP PUSH2 0xE55 DUP2 DUP6 PUSH1 0x20 DUP7 ADD PUSH2 0xDF5 JUMP JUMPDEST PUSH2 0xE5E DUP2 PUSH2 0xE1F JUMP JUMPDEST DUP5 ADD SWAP2 POP POP SWAP3 SWAP2 POP POP JUMP JUMPDEST PUSH2 0xE72 DUP2 PUSH2 0xC4D JUMP JUMPDEST DUP3 MSTORE POP POP JUMP JUMPDEST PUSH1 0x0 PUSH1 0x60 DUP3 ADD SWAP1 POP DUP2 DUP2 SUB PUSH1 0x0 DUP4 ADD MSTORE PUSH2 0xE92 DUP2 DUP7 PUSH2 0xE30 JUMP JUMPDEST SWAP1 POP PUSH2 0xEA1 PUSH1 0x20 DUP4 ADD DUP6 PUSH2 0xE69 JUMP JUMPDEST PUSH2 0xEAE PUSH1 0x40 DUP4 ADD DUP5 PUSH2 0xBEF JUMP JUMPDEST SWAP5 SWAP4 POP POP POP POP JUMP JUMPDEST PUSH1 0x0 PUSH1 0x20 DUP3 ADD SWAP1 POP DUP2 DUP2 SUB PUSH1 0x0 DUP4 ADD MSTORE PUSH2 0xED0 DUP2 DUP5 PUSH2 0xE30 JUMP JUMPDEST SWAP1 POP SWAP3 SWAP2 POP POP JUMP JUMPDEST PUSH1 0x0 PUSH1 0x20 DUP3 ADD SWAP1 POP PUSH2 0xEED PUSH1 0x0 DUP4 ADD DUP5 PUSH2 0xE69 JUMP JUMPDEST SWAP3 SWAP2 POP POP JUMP JUMPDEST PUSH1 0x3 DUP2 LT PUSH2 0xF00 JUMPI PUSH1 0x0 DUP1 REVERT JUMPDEST POP JUMP JUMPDEST PUSH1 0x0 DUP2 CALLDATALOAD SWAP1 POP PUSH2 0xF12 DUP2 PUSH2 0xEF3 JUMP JUMPDEST SWAP3 SWAP2 POP POP JUMP JUMPDEST PUSH1 0x0 PUSH1 0x20 DUP3 DUP5 SUB SLT ISZERO PUSH2 0xF2E JUMPI PUSH2 0xF2D PUSH2 0xC23 JUMP JUMPDEST JUMPDEST PUSH1 0x0 PUSH2 0xF3C DUP5 DUP3 DUP6 ADD PUSH2 0xF03 JUMP JUMPDEST SWAP2 POP POP SWAP3 SWAP2 POP POP JUMP JUMPDEST PUSH1 0x0 DUP1 REVERT JUMPDEST PUSH1 0x0 DUP1 REVERT JUMPDEST PUSH32 0x4E487B7100000000000000000000000000000000000000000000000000000000 PUSH1 0x0 MSTORE PUSH1 0x41 PUSH1 0x4 MSTORE PUSH1 0x24 PUSH1 0x0 REVERT JUMPDEST PUSH2 0xF87 DUP3 PUSH2 0xE1F JUMP JUMPDEST DUP2 ADD DUP2 DUP2 LT PUSH8 0xFFFFFFFFFFFFFFFF DUP3 GT OR ISZERO PUSH2 0xFA6 JUMPI PUSH2 0xFA5 PUSH2 0xF4F JUMP JUMPDEST JUMPDEST DUP1 PUSH1 0x40 MSTORE POP POP POP JUMP JUMPDEST PUSH1 0x0 PUSH2 0xFB9 PUSH2 0xC19 JUMP JUMPDEST SWAP1 POP PUSH2 0xFC5 DUP3 DUP3 PUSH2 0xF7E JUMP JUMPDEST SWAP2 SWAP1 POP JUMP JUMPDEST PUSH1 0x0 PUSH8 0xFFFFFFFFFFFFFFFF DUP3 GT ISZERO PUSH2 0xFE5 JUMPI PUSH2 0xFE4 PUSH2 0xF4F JUMP JUMPDEST JUMPDEST PUSH2 0xFEE DUP3 PUSH2 0xE1F JUMP JUMPDEST SWAP1 POP PUSH1 0x20 DUP2 ADD SWAP1 POP SWAP2 SWAP1 POP JUMP JUMPDEST DUP3 DUP2 DUP4 CALLDATACOPY PUSH1 0x0 DUP4 DUP4 ADD MSTORE POP POP POP JUMP JUMPDEST PUSH1 0x0 PUSH2 0x101D PUSH2 0x1018 DUP5 PUSH2 0xFCA JUMP JUMPDEST PUSH2 0xFAF JUMP JUMPDEST SWAP1 POP DUP3 DUP2 MSTORE PUSH1 0x20 DUP2 ADD DUP5 DUP5 DUP5 ADD GT ISZERO PUSH2 0x1039 JUMPI PUSH2 0x1038 PUSH2 0xF4A JUMP JUMPDEST JUMPDEST PUSH2 0x1044 DUP5 DUP3 DUP6 PUSH2 0xFFB JUMP JUMPDEST POP SWAP4 SWAP3 POP POP POP JUMP JUMPDEST PUSH1 0x0 DUP3 PUSH1 0x1F DUP4 ADD SLT PUSH2 0x1061 JUMPI PUSH2 0x1060 PUSH2 0xF45 JUMP JUMPDEST JUMPDEST DUP2 CALLDATALOAD PUSH2 0x1071 DUP5 DUP3 PUSH1 0x20 DUP7 ADD PUSH2 0x100A JUMP JUMPDEST SWAP2 POP POP SWAP3 SWAP2 POP POP JUMP JUMPDEST PUSH1 0x0 PUSH1 0x20 DUP3 DUP5 SUB SLT ISZERO PUSH2 0x1090 JUMPI PUSH2 0x108F PUSH2 0xC23 JUMP JUMPDEST JUMPDEST PUSH1 0x0 DUP3 ADD CALLDATALOAD PUSH8 0xFFFFFFFFFFFFFFFF DUP2 GT ISZERO PUSH2 0x10AE JUMPI PUSH2 0x10AD PUSH2 0xC28 JUMP JUMPDEST JUMPDEST PUSH2 0x10BA DUP5 DUP3 DUP6 ADD PUSH2 0x104C JUMP JUMPDEST SWAP2 POP POP SWAP3 SWAP2 POP POP JUMP JUMPDEST PUSH32 0x4170656E6173206F20646F6E6F20706F64652065786563757461722065737461 PUSH1 0x0 DUP3 ADD MSTORE PUSH32 0x2066756E63616F00000000000000000000000000000000000000000000000000 PUSH1 0x20 DUP3 ADD MSTORE POP JUMP JUMPDEST PUSH1 0x0 PUSH2 0x111F PUSH1 0x27 DUP4 PUSH2 0xDE4 JUMP JUMPDEST SWAP2 POP PUSH2 0x112A DUP3 PUSH2 0x10C3 JUMP JUMPDEST PUSH1 0x40 DUP3 ADD SWAP1 POP SWAP2 SWAP1 POP JUMP JUMPDEST PUSH1 0x0 PUSH1 0x20 DUP3 ADD SWAP1 POP DUP2 DUP2 SUB PUSH1 0x0 DUP4 ADD MSTORE PUSH2 0x114E DUP2 PUSH2 0x1112 JUMP JUMPDEST SWAP1 POP SWAP2 SWAP1 POP JUMP JUMPDEST PUSH32 0x45737465206D6F646F206E616F207065726D697465206D756C7469706C6F7320 PUSH1 0x0 DUP3 ADD MSTORE PUSH32 0x63757261646F7265730000000000000000000000000000000000000000000000 PUSH1 0x20 DUP3 ADD MSTORE POP JUMP JUMPDEST PUSH1 0x0 PUSH2 0x11B1 PUSH1 0x29 DUP4 PUSH2 0xDE4 JUMP JUMPDEST SWAP2 POP PUSH2 0x11BC DUP3 PUSH2 0x1155 JUMP JUMPDEST PUSH1 0x40 DUP3 ADD SWAP1 POP SWAP2 SWAP1 POP JUMP JUMPDEST PUSH1 0x0 PUSH1 0x20 DUP3 ADD SWAP1 POP DUP2 DUP2 SUB PUSH1 0x0 DUP4 ADD MSTORE PUSH2 0x11E0 DUP2 PUSH2 0x11A4 JUMP JUMPDEST SWAP1 POP SWAP2 SWAP1 POP JUMP JUMPDEST PUSH32 0x4573746520656E64657265636F206A61206520756D2063757261646F72000000 PUSH1 0x0 DUP3 ADD MSTORE POP JUMP JUMPDEST PUSH1 0x0 PUSH2 0x121D PUSH1 0x1D DUP4 PUSH2 0xDE4 JUMP JUMPDEST SWAP2 POP PUSH2 0x1228 DUP3 PUSH2 0x11E7 JUMP JUMPDEST PUSH1 0x20 DUP3 ADD SWAP1 POP SWAP2 SWAP1 POP JUMP JUMPDEST PUSH1 0x0 PUSH1 0x20 DUP3 ADD SWAP1 POP DUP2 DUP2 SUB PUSH1 0x0 DUP4 ADD MSTORE PUSH2 0x124C DUP2 PUSH2 0x1210 JUMP JUMPDEST SWAP1 POP SWAP2 SWAP1 POP JUMP JUMPDEST PUSH32 0x4F20646F6E6F206A61206520756D2063757261646F7200000000000000000000 PUSH1 0x0 DUP3 ADD MSTORE POP JUMP JUMPDEST PUSH1 0x0 PUSH2 0x1289 PUSH1 0x16 DUP4 PUSH2 0xDE4 JUMP JUMPDEST SWAP2 POP PUSH2 0x1294 DUP3 PUSH2 0x1253 JUMP JUMPDEST PUSH1 0x20 DUP3 ADD SWAP1 POP SWAP2 SWAP1 POP JUMP JUMPDEST PUSH1 0x0 PUSH1 0x20 DUP3 ADD SWAP1 POP DUP2 DUP2 SUB PUSH1 0x0 DUP4 ADD MSTORE PUSH2 0x12B8 DUP2 PUSH2 0x127C JUMP JUMPDEST SWAP1 POP SWAP2 SWAP1 POP JUMP JUMPDEST PUSH32 0x4E756D65726F206D6178696D6F2064652063757261646F726573206174696E67 PUSH1 0x0 DUP3 ADD MSTORE PUSH32 0x69646F0000000000000000000000000000000000000000000000000000000000 PUSH1 0x20 DUP3 ADD MSTORE POP JUMP JUMPDEST PUSH1 0x0 PUSH2 0x131B PUSH1 0x23 DUP4 PUSH2 0xDE4 JUMP JUMPDEST SWAP2 POP PUSH2 0x1326 DUP3 PUSH2 0x12BF JUMP JUMPDEST PUSH1 0x40 DUP3 ADD SWAP1 POP SWAP2 SWAP1 POP JUMP JUMPDEST PUSH1 0x0 PUSH1 0x20 DUP3 ADD SWAP1 POP DUP2 DUP2 SUB PUSH1 0x0 DUP4 ADD MSTORE PUSH2 0x134A DUP2 PUSH2 0x130E JUMP JUMPDEST SWAP1 POP SWAP2 SWAP1 POP JUMP JUMPDEST PUSH32 0x4E487B7100000000000000000000000000000000000000000000000000000000 PUSH1 0x0 MSTORE PUSH1 0x11 PUSH1 0x4 MSTORE PUSH1 0x24 PUSH1 0x0 REVERT JUMPDEST PUSH1 0x0 PUSH2 0x138B DUP3 PUSH2 0xBE5 JUMP JUMPDEST SWAP2 POP PUSH32 0xFFFFFFFFFFFFFFFFFFFFFFFFFFFFFFFFFFFFFFFFFFFFFFFFFFFFFFFFFFFFFFFF DUP3 SUB PUSH2 0x13BD JUMPI PUSH2 0x13BC PUSH2 0x1351 JUMP JUMPDEST JUMPDEST PUSH1 0x1 DUP3 ADD SWAP1 POP SWAP2 SWAP1 POP JUMP JUMPDEST PUSH32 0x4D657461206465766520736572206D61696F7220717565207A65726F00000000 PUSH1 0x0 DUP3 ADD MSTORE POP JUMP JUMPDEST PUSH1 0x0 PUSH2 0x13FE PUSH1 0x1C DUP4 PUSH2 0xDE4 JUMP JUMPDEST SWAP2 POP PUSH2 0x1409 DUP3 PUSH2 0x13C8 JUMP JUMPDEST PUSH1 0x20 DUP3 ADD SWAP1 POP SWAP2 SWAP1 POP JUMP JUMPDEST PUSH1 0x0 PUSH1 0x20 DUP3 ADD SWAP1 POP DUP2 DUP2 SUB PUSH1 0x0 DUP4 ADD MSTORE PUSH2 0x142D DUP2 PUSH2 0x13F1 JUMP JUMPDEST SWAP1 POP SWAP2 SWAP1 POP JUMP JUMPDEST PUSH32 0x4E487B7100000000000000000000000000000000000000000000000000000000 PUSH1 0x0 MSTORE PUSH1 0x22 PUSH1 0x4 MSTORE PUSH1 0x24 PUSH1 0x0 REVERT JUMPDEST PUSH1 0x0 PUSH1 0x2 DUP3 DIV SWAP1 POP PUSH1 0x1 DUP3 AND DUP1 PUSH2 0x147B JUMPI PUSH1 0x7F DUP3 AND SWAP2 POP JUMPDEST PUSH1 0x20 DUP3 LT DUP2 SUB PUSH2 0x148E JUMPI PUSH2 0x148D PUSH2 0x1434 JUMP JUMPDEST JUMPDEST POP SWAP2 SWAP1 POP JUMP JUMPDEST PUSH1 0x0 DUP2 SWAP1 POP DUP2 PUSH1 0x0 MSTORE PUSH1 0x20 PUSH1 0x0 KECCAK256 SWAP1 POP SWAP2 SWAP1 POP JUMP JUMPDEST PUSH1 0x0 PUSH1 0x20 PUSH1 0x1F DUP4 ADD DIV SWAP1 POP SWAP2 SWAP1 POP JUMP JUMPDEST PUSH1 0x0 DUP3 DUP3 SHL SWAP1 POP SWAP3 SWAP2 POP POP JUMP JUMPDEST PUSH1 0x0 PUSH1 0x8 DUP4 MUL PUSH2 0x14F6 PUSH32 0xFFFFFFFFFFFFFFFFFFFFFFFFFFFFFFFFFFFFFFFFFFFFFFFFFFFFFFFFFFFFFFFF DUP3 PUSH2 0x14B9 JUMP JUMPDEST PUSH2 0x1500 DUP7 DUP4 PUSH2 0x14B9 JUMP JUMPDEST SWAP6 POP DUP1 NOT DUP5 AND SWAP4 POP DUP1 DUP7 AND DUP5 OR SWAP3 POP POP POP SWAP4 SWAP3 POP POP POP JUMP JUMPDEST PUSH1 0x0 DUP2 SWAP1 POP SWAP2 SWAP1 POP JUMP JUMPDEST PUSH1 0x0 PUSH2 0x153D PUSH2 0x1538 PUSH2 0x1533 DUP5 PUSH2 0xBE5 JUMP JUMPDEST PUSH2 0x1518 JUMP JUMPDEST PUSH2 0xBE5 JUMP JUMPDEST SWAP1 POP SWAP2 SWAP1 POP JUMP JUMPDEST PUSH1 0x0 DUP2 SWAP1 POP SWAP2 SWAP1 POP JUMP JUMPDEST PUSH2 0x1557 DUP4 PUSH2 0x1522 JUMP JUMPDEST PUSH2 0x156B PUSH2 0x1563 DUP3 PUSH2 0x1544 JUMP JUMPDEST DUP5 DUP5 SLOAD PUSH2 0x14C6 JUMP JUMPDEST DUP3 SSTORE POP POP POP POP JUMP JUMPDEST PUSH1 0x0 SWAP1 JUMP JUMPDEST PUSH2 0x1580 PUSH2 0x1573 JUMP JUMPDEST PUSH2 0x158B DUP2 DUP5 DUP5 PUSH2 0x154E JUMP JUMPDEST POP POP POP JUMP JUMPDEST JUMPDEST DUP2 DUP2 LT ISZERO PUSH2 0x15AF JUMPI PUSH2 0x15A4 PUSH1 0x0 DUP3 PUSH2 0x1578 JUMP JUMPDEST PUSH1 0x1 DUP2 ADD SWAP1 POP PUSH2 0x1591 JUMP JUMPDEST POP POP JUMP JUMPDEST PUSH1 0x1F DUP3 GT ISZERO PUSH2 0x15F4 JUMPI PUSH2 0x15C5 DUP2 PUSH2 0x1494 JUMP JUMPDEST PUSH2 0x15CE DUP5 PUSH2 0x14A9 JUMP JUMPDEST DUP2 ADD PUSH1 0x20 DUP6 LT ISZERO PUSH2 0x15DD JUMPI DUP2 SWAP1 POP JUMPDEST PUSH2 0x15F1 PUSH2 0x15E9 DUP6 PUSH2 0x14A9 JUMP JUMPDEST DUP4 ADD DUP3 PUSH2 0x1590 JUMP JUMPDEST POP POP JUMPDEST POP POP POP JUMP JUMPDEST PUSH1 0x0 DUP3 DUP3 SHR SWAP1 POP SWAP3 SWAP2 POP POP JUMP JUMPDEST PUSH1 0x0 PUSH2 0x1617 PUSH1 0x0 NOT DUP5 PUSH1 0x8 MUL PUSH2 0x15F9 JUMP JUMPDEST NOT DUP1 DUP4 AND SWAP2 POP POP SWAP3 SWAP2 POP POP JUMP JUMPDEST PUSH1 0x0 PUSH2 0x1630 DUP4 DUP4 PUSH2 0x1606 JUMP JUMPDEST SWAP2 POP DUP3 PUSH1 0x2 MUL DUP3 OR SWAP1 POP SWAP3 SWAP2 POP POP JUMP JUMPDEST PUSH2 0x1649 DUP3 PUSH2 0xDD9 JUMP JUMPDEST PUSH8 0xFFFFFFFFFFFFFFFF DUP2 GT ISZERO PUSH2 0x1662 JUMPI PUSH2 0x1661 PUSH2 0xF4F JUMP JUMPDEST JUMPDEST PUSH2 0x166C DUP3 SLOAD PUSH2 0x1463 JUMP JUMPDEST PUSH2 0x1677 DUP3 DUP3 DUP6 PUSH2 0x15B3 JUMP JUMPDEST PUSH1 0x0 PUSH1 0x20 SWAP1 POP PUSH1 0x1F DUP4 GT PUSH1 0x1 DUP2 EQ PUSH2 0x16AA JUMPI PUSH1 0x0 DUP5 ISZERO PUSH2 0x1698 JUMPI DUP3 DUP8 ADD MLOAD SWAP1 POP JUMPDEST PUSH2 0x16A2 DUP6 DUP3 PUSH2 0x1624 JUMP JUMPDEST DUP7 SSTORE POP PUSH2 0x170A JUMP JUMPDEST PUSH1 0x1F NOT DUP5 AND PUSH2 0x16B8 DUP7 PUSH2 0x1494 JUMP JUMPDEST PUSH1 0x0 JUMPDEST DUP3 DUP2 LT ISZERO PUSH2 0x16E0 JUMPI DUP5 DUP10 ADD MLOAD DUP3 SSTORE PUSH1 0x1 DUP3 ADD SWAP2 POP PUSH1 0x20 DUP6 ADD SWAP5 POP PUSH1 0x20 DUP2 ADD SWAP1 POP PUSH2 0x16BB JUMP JUMPDEST DUP7 DUP4 LT ISZERO PUSH2 0x16FD JUMPI DUP5 DUP10 ADD MLOAD PUSH2 0x16F9 PUSH1 0x1F DUP10 AND DUP3 PUSH2 0x1606 JUMP JUMPDEST DUP4 SSTORE POP JUMPDEST PUSH1 0x1 PUSH1 0x2 DUP9 MUL ADD DUP9 SSTORE POP POP POP JUMPDEST POP POP POP POP POP POP JUMP JUMPDEST PUSH32 0x44696173206465766520736572206D61696F7220717565207A65726F00000000 PUSH1 0x0 DUP3 ADD MSTORE POP JUMP JUMPDEST PUSH1 0x0 PUSH2 0x1748 PUSH1 0x1C DUP4 PUSH2 0xDE4 JUMP JUMPDEST SWAP2 POP PUSH2 0x1753 DUP3 PUSH2 0x1712 JUMP JUMPDEST PUSH1 0x20 DUP3 ADD SWAP1 POP SWAP2 SWAP1 POP JUMP JUMPDEST PUSH1 0x0 PUSH1 0x20 DUP3 ADD SWAP1 POP DUP2 DUP2 SUB PUSH1 0x0 DUP4 ADD MSTORE PUSH2 0x1777 DUP2 PUSH2 0x173B JUMP JUMPDEST SWAP1 POP SWAP2 SWAP1 POP JUMP JUMPDEST PUSH1 0x0 PUSH2 0x1789 DUP3 PUSH2 0xBE5 JUMP JUMPDEST SWAP2 POP PUSH2 0x1794 DUP4 PUSH2 0xBE5 JUMP JUMPDEST SWAP3 POP DUP3 DUP3 MUL PUSH2 0x17A2 DUP2 PUSH2 0xBE5 JUMP JUMPDEST SWAP2 POP DUP3 DUP3 DIV DUP5 EQ DUP4 ISZERO OR PUSH2 0x17B9 JUMPI PUSH2 0x17B8 PUSH2 0x1351 JUMP JUMPDEST JUMPDEST POP SWAP3 SWAP2 POP POP JUMP JUMPDEST PUSH1 0x0 PUSH2 0x17CB DUP3 PUSH2 0xBE5 JUMP JUMPDEST SWAP2 POP PUSH2 0x17D6 DUP4 PUSH2 0xBE5 JUMP JUMPDEST SWAP3 POP DUP3 DUP3 ADD SWAP1 POP DUP1 DUP3 GT ISZERO PUSH2 0x17EE JUMPI PUSH2 0x17ED PUSH2 0x1351 JUMP JUMPDEST JUMPDEST SWAP3 SWAP2 POP POP JUMP INVALID LOG2 PUSH5 0x6970667358 0x22 SLT KECCAK256 PUSH15 0xDBC03D1724088DAAE76FEAA7492F53 PUSH4 0xF4560D20 SWAP2 0x25 PUSH20 0x1EECFB0EEF974C2664736F6C6343000813003300 "},"methodIdentifiers":{"adicionarCurador(address)":"2503c6d8","alterarDataFim(uint256)":"f90c6d1d","alterarMeta(uint256)":"28f3b1fe","alterarModoHierarquia(uint8)":"e7770ccf","alterarNome(string)":"ee22ba81","curadores(address)":"0c5db638","dataFim()":"cfe70f51","doacoes(address)":"092f8cfb","jaVotou(address)":"3260e7a2","meta()":"c885044e","metaAtingida()":"85e656f5","modoDeHierarquia()":"16bb69fd","nome()":"2deb124b","numCuradoresAdd()":"b23d8829","numeroDeCuradores()":"0444f11f","owner()":"8da5cb5b","sugestoes(uint256)":"2b66fedb","totalArrecadado()":"00dd2325","votacaoIniciada()":"b983bdf5"}}}}}